:020000041000EA
:1000000000B5324B212058609868022188439860DF
:10001000D860186158612E4B002199600221596106
:100020000121F02299502B49196001219960352056
:1000300000F044F80222904214D00621196600F024
:1000400034F8196E01211966002018661A6600F04E
:100050002CF8196E196E196E052000F02FF8012189
:100060000842F9D1002199601B49196000215960AB
:100070001A491B48016001219960EB211966A021F2
:10008000196600F012F800219960164914480160C1
:100090000121996001BC002800D000471248134993
:1000A000086003C880F30888084703B5996A0420EC
:1000B0000142FBD001200142F8D103BD02B5186610
:1000C0001866FFF7F2FF186E186E02BD00000240BE
:1000D000000000180000070000035F00212200005C
:1000E000F4000018222000A00001001008ED00E03C
:1000F00000000000000000000000000074B24E7A12
:1001000000200420F7010010C3010010C5010010F9
:10011000C1010010C1010010C1010010C101001097
:10012000C1010010C1010010C1010010C701001081
:10013000C1010010C1010010C9010010CB01001065
:10014000CD010010CD010010CD010010CD01001037
:10015000CD010010CD010010CD010010CD01001027
:10016000CD010010CD010010CD010010CD01001017
:10017000CD010010CD010010CD010010CD01001007
:10018000CD010010CD010010CD010010CD010010F7
:10019000CD010010CD010010CD010010CD010010E7
:1001A000CD010010CD010010CD010010CD010010D7
:1001B000CD010010CD010010CD010010CD010010C7
:1001C00000BE00BE00BE00BE00BE00BEEFF3058054
:1001D000103800BEF2EB8871505E0010705E0010A7
:1001E0003802001090A31AE71E481F49086006C88D
:1001F00081F3088810471D480068002801D019487D
:10020000F3E70DA40ECC002902D000F012F8F9E7B4
:100210001749184A002000E001C19142FCD116495B
:100220008847164988471649884700BEFDE701C937
:1002300001C29A42FBD37047705E0010C0000020DC
:100240004C100020FC6D0010000004200000042071
:10025000FC6D0010001004200010042000000000BD
:10026000704700000000000008ED00E0000000D032
:100270004C100020E42302209D1E001045030010B6
:10028000951E0010F8B5C0460448054B10B58342D2
:1002900003D0044B002B00D0984710BD4C10002019
:1002A0004C1000200000000006480749091A8B1076
:1002B000C90FC91810B5491003D0044B002B00D04A
:1002C000984710BD4C1000204C100020000000008A
:1002D00010B5074C2378002B09D1FFF7D5FF054B4C
:1002E000002B02D0044800E000BF0123237010BDA2
:1002F000D8130020000000001C5A0010054B10B558
:10030000002B03D00449054800E000BFFFF7CCFFF5
:1003100010BDC04600000000DC1300201C5A001075
:1003200010B5112000F06EF8D024802324069B0223
:1003300063621020A36100F065F880235B026362B2
:10034000A36110BDF8B5CE464746D025802680B5BE
:1003500001F0A4FE2D06FFF7E3FFF602122000F0E5
:1003600051F8002201211220AE6200F037F8184B3C
:1003700001229946174B184F984610E080239B02A4
:100380006B6180235B024846AB6101F0D7FE96208B
:10039000400000F0ADFE0A2000F0AAFE22006B68CB
:1003A00033401C00611E8C41E4B2002AF3D0002BC4
:1003B000F1D101223B7853403B70DFD180239B0277
:1003C000AB6180235B024046AB6101F0B7FEDEE724
:1003D0001C5A00102C5A0010DB230220074B80000F
:1003E000C3181B68C90092000A435A400C231340EB
:1003F000034A9446604403607047C04604C001400D
:1004000004D001400123D0228340120693629361FD
:10041000094A83009A1811684022514080320A40EC
:100420000649C0008C4663441A60054B9C46052370
:10043000604443607047C04604C0014004D001409E
:10044000004001408023DB051868000F7047C0465C
:100450000FB400B5084883B001F070FE049B002B78
:1004600007D005A91800019101F0FAFC034801F03A
:1004700065FE012001F00CFD3C5A00104C5A0010A2
:1004800070B5EFF3108C72B60D4D2B68002BFCD0BD
:10049000BFF35F8F0724CB08C618C05C01230C4054
:1004A000A3401C000440034207D118433070BFF33F
:1004B0005F8F2C608CF3108870BD1000FFF7C8FFB1
:1004C0002C0100D0F8B54746CE46884680B5EFF3FC
:1004D000108C72B6214D2C68002CFCD0BFF35F8FBE
:1004E0009A422CD8D4080727055D06190124174025
:1004F000BC402C421FD007210127894609E0D408BF
:10050000055D06194C4639001440A1400C002942F3
:1005100011D001329342F2D201204042BFF35F8FEB
:1005200000220E4B1A608CF3108800280FDBC0BC31
:10053000B946B046F8BD254310003570EEE7BFF36D
:100540005F8F00232B608CF31088012040424346CC
:10055000002BECD00898FFF77BFFC0462C0100D0A1
:10056000044A1078431CDBB2172B00D910231370F8
:100570007047C046700F002010B5064B064C82B085
:100580000100009318221F232000FFF79BFF02B0F9
:1005900010BDC046505A0010241C00200021044BFE
:1005A000044ABFF35F8F02C39342FAD17047C0463B
:1005B000000100D0800100D0054B064A1360064AB6
:1005C000136053609360D36013615361936170470C
:1005D0008080808000E400E004E400E01F231840F5
:1005E0001E3B8340002905D0C021044A49005350D6
:1005F00013607047802201498B50FAE700E100E068
:1006000001228240034B1B6813405A1E9341D8B20B
:100610007047C04600E100E001238340014A1360B7
:100620007047C04600E200E0064B10309B68800037
:10063000C358054A00209B1A2F229A424041C0B25B
:100640007047C04600ED00E0740F002070B50D004B
:10065000EFF3108672B60F4A1368002BFCD0BFF37D
:100660005F8F0D4B10309B6884001B590B4A9342DF
:1006700003D09D4201D000F0F7FF074B9B681D514E
:10068000BFF35F8FBFF35F8F0022024B1A6086F3C8
:10069000108870BD240100D000ED00E0CD010010F5
:1006A000F0B557464E46DE464546E0B585B00600F5
:1006B00000911700EFF3108B72B66A4A1368002B93
:1006C000FCD0BFF35F8F0025674B5D579A46002D26
:1006D00000DAA9E06B00654C01935B199B0098461A
:1006E000A146C1444B4652469B7910361370604B6D
:1006F000B6009B6899590B1B2F2B33D95D4B994240
:1007000000D0ACE0019B42469C465B4B6544AD008B
:1007100063535A4B0232A218043B9B1A1B05584ADA
:100720005B0D651913436B80564B0121AB80FF2392
:10073000AB71009BEF71AB604B460B4319004C4B08
:100740009B689951BFF35F8FBFF35F8F0022454BCA
:100750001A608BF3108805B0F0BCBB46B246A946C0
:10076000A046F0BD01200A008243D3798C46BB42EB
:1007700031D84546130044491B1B5B415943090DC1
:100780003D4B63533D4B02356519043B5B1B1B0519
:100790003B4D5B0D2B43AA464D466B800425AC4672
:1007A0005546E044131F44441B1B1B055B0D1D43B2
:1007B0004B46997100999D8099604946DF71334B92
:1007C00001431360BBE75800C01880002018C179AE
:1007D000B9422FD902000623D356002BF3DA029335
:1007E0002B4B61460393131D9A4604235B429C46A0
:1007F000E14450464B461B1A1B055B0D9C46204BA3
:10080000957198466346404603439380019B5A196D
:100810009200039BA418A380029B1C4AA371009B17
:100820002260E771A3608AE700F01EFF00255346AF
:100830005D574FE7908802934005131D9A460315B4
:1008400061469C464046D444634604302018181A3A
:10085000E0230005400D1B0218430390C5E700F09C
:1008600003FF4FE7240100D0DD230220740F002096
:1008700000ED00E0CD01001000A1FFFFA40F00205B
:1008800000E0FFFF01BDFFFFAAAA0000014880476A
:1008900001BD000070B501240443EFF30581EFF3BF
:1008A000108C72B6214A1368002BFCD0BFF35F8F07
:1008B0001F4B05001F4AED1A6D416A43120D1E4D74
:1008C0008900AE6852B27658A6421CD0062159560D
:1008D00091421CD012215956914222D01E215956C4
:1008E000914220D02A2159560324914210D0134B13
:1008F00019781A708171BFF35F8F00220B4B1A6059
:100900008CF3108870BDAB680D4C5C50EFE7002491
:100910006100091989005B18FF21997109499980C3
:10092000E5E70124F4E70224F2E7C046240100D001
:10093000740F0020AAAA000000ED00E0DD230220D1
:10094000CD01001001BDFFFF10B5084B084C82B06F
:1009500001000093002205232000FFF7B3FD0028CB
:1009600001DB1F23181A02B010BDC0466C5A0010DC
:10097000E1230220024B9C466144890001607047DC
:1009800040000034F8B5124C124DAC4212D2012690
:10099000002776422368002B0DD0FFF7E1FD010010
:1009A0002000FFF7E7FF66602772BFF35F8F0C340C
:1009B000AC42EFD3F8BDFFF7D3FD01002000FFF7F5
:1009C000D9FF6660BFF35F8F0834AC42E2D3F1E732
:1009D0003C1000204C10002010B50400FFF7C0FDB3
:1009E00001002000FFF7C6FF01235B426360BFF3F5
:1009F0005F8F10BD10B504000120FFF7BDFD034B54
:100A0000C3189B002360BFF35F8F10BD400000340C
:100A1000034B9C46614489000160BFF35F8F7047C0
:100A200040000034F0B5DE4657464E464546E0B538
:100A300083B0EFF3058203231340B54A990052585F
:100A40000091904601229A409346B24B1A60B24BF5
:100A500001935B46B1484363434608229B5E994637
:100A6000002B3ADA43469B881BB2002B00DB9DE04B
:100A700043469B79002B00D0E1E0434608241C5FED
:100A8000002C20DB43465A6963001B19DB00D31896
:100A90009D68DC686B1C00D103E1A0480099844686
:100AA0006144826A0B69AE1A9B1A9E4213D35A465E
:100AB000036A1A420FD0994800F0BCFB8C4202DC5A
:100AC000C7D18542C5D940BF03B0F0BCBB46B246D2
:100AD000A946A046F0BD0D61EDE7424652695B00B4
:100AE00092464B44DB009A4453469E68DF6800F010
:100AF000A1FB8F42B6DC00D1F8E0002F00DAD9E08C
:100B00005246534654691B69019A934200D1CCE086
:100B1000414652460820085E5288000421001043D6
:100B2000984704000D0023002B4300D1C2E0002DA4
:100B300000DBDFE030003900001BA941534698601C
:100B4000D96000229A5E002A00DA8BE743465D698D
:100B500053009C18E4002C19A768E4688C4200DD5F
:100B600080E702D1874200D97CE7464632810836C9
:100B70000DE08C4200D1C6E01E000023F25E002A88
:100B80000ADB53009C18E4002C19A768E4689B1842
:100B9000DB00EB188C42ECDD53461A804B46338069
:100BA00043469B881BB2002B00DA61E743461A6973
:100BB000EFF3108172B61368002BFCD0BFF35F8F88
:100BC00043469E88012342465B42938036B21369B6
:100BD000BFF35F8F00221A6081F31088002E00DAC5
:100BE00046E743465D69083342469C467700BF1995
:100BF000FF00EF19BB68604698460823D15E924615
:100C0000FC68002907DA0EE0A24246D01800002353
:100C1000C15E002906DB4B005B18DB00EB18DA68CD
:100C2000A242F1DD524606800023FE5E3980002E8E
:100C3000DCDA904643469B79002B00D11DE7002368
:100C400042469371434646460821595E08364B1C7E
:100C500000D138E747468946556902E006004B1C3B
:100C600018D04B005B18DB00E8180A008C46E95EE0
:100C700043881BB2002BF1DA01235B42DC1783604F
:100C8000C4604A4503D031803B8903803A81E14604
:100C90004B1CE6D1B8464C46F2E69A684245B5D9B7
:100CA000C0E7631C00D0F8E605E7200023699847F9
:100CB000002825D1534642461B8813811269EFF361
:100CC000108372B611680029FCD0BFF35F8F4246D3
:100CD000514652880A804246494651801269BFF304
:100CE0005F8F0021116083F31088BBE6864200D835
:100CF00003E7B7E6094800F09DFA001969411DE7CE
:100D0000656824680FE7874200D835E744E7C046A6
:100D10009C2000203C700540250A00100040054042
:100D2000074810B50268EFF3108172B61368002B04
:100D3000FCD0BFF35F8F03F041FF0020002110BD06
:100D40004C23002070B52E4C2569002D04D00A21BB
:100D50002C48FFF70FFE70BD2B4E0321300000F032
:100D60005FFAE660FFF7FCFB284B03229C46D0238A
:100D700022701B061B6801216370254B6044A36031
:100D80000F23800020610220638063694942A180B3
:100D900019800231198647311D83585218315A5231
:100DA00075325C3999521832013199521832013139
:100DB0009952183201319952083518329D52023138
:100DC0001832995218320131995218320131995220
:100DD00018320131995218320131995218320131C9
:100DE00099520C4B0C49DC6001303562FFF72EFC48
:100DF00001210320FFF7F2FB084B1D60A7E7C04667
:100E0000BC0F00204C23002000400540400000346F
:100E1000FFFF10009C200020250A001038600540CC
:100E200000487047BC0F0020F8B51F0008AB1B78C6
:100E300004001600002B08D100F004FA32003B0039
:100E4000121A8B41002B00DA53E02269EFF3108075
:100E500072B61368002BFCD0BFF35F8F0223E15EF4
:100E600063694A005218D2009B18002937DB1A88A0
:100E700062802269BFF35F8F0025156080F31088C0
:100E8000069A9E60DF601A61079A5A615A88013299
:100E90005204520C101C002A1FD082B25880080441
:100EA00010432669EFF3108772B63268002AFCD02F
:100EB000BFF35F8FA2881A80A1802369BFF35F8F81
:100EC00000221A6087F310880B4923788C46013280
:100ED0009A40E36863441A60F8BD0120DDE72369A6
:100EE000BFF35F8F00221A6080F310880120404218
:100EF000F2E70020F0E7C0463C20000070B501009A
:100F00000469EFF3108C72B620680028FCD0BFF3A0
:100F10005F8F02200D5E4C6968004019C0002418E4
:100F2000002D37DB208848800869BFF35F8F0026DB
:100F300006608CF31088E3606388049801332061B5
:100F40005B0405985B0CA26060611A1C002B1FD02B
:100F500093B22804628018430A69EFF3108C72B6CA
:100F60001368002BFCD0BFF35F8F8B8823808D80AC
:100F70000B69BFF35F8F00221A608CF310880B7827
:100F800001329A40CB6808498C4663441A6070BDB0
:100F90000122DDE70B69BFF35F8F00221A608CF33B
:100FA000108801204042F2E73C20000010B5438940
:100FB0000A1493421ADD53009B184269DB00D318D0
:100FC0000469EFF3108C72B62268002AFCD0BFF3DC
:100FD0005F8F5A88090494B2090C8A4208D00369C9
:100FE000BFF35F8F00221A608CF31088002010BDC1
:100FF0008022120214435C80012302698371BFF3D3
:101000005F8F002111608CF31088044902788C46B0
:101010009340C268012062441360E8E73C2000006E
:1010200040787047F0B54746CE46040080B50D00C5
:1010300096267642F71736196F4183B08F4215D83E
:1010400012D000F0FFF832003B00121A8B41002B47
:1010500016DC002B40D02000290000F0FDF803B082
:10106000C0BCB946B046F0BD8642EAD9002600278A
:1010700000F0E8F832003B00121A8B41002BE8DD4B
:1010800000F0E0F832003B00121A8B41002B0ADB23
:1010900000230193124B3200009312483B00FFF7EC
:1010A0002DFF0028D7DBB846B1460F4F0F4E7B6AA5
:1010B000984504D8BA6A9145CDD99845CBD13268C4
:1010C000EFF3108172B61368002BFCD0BFF35F8F73
:1010D000300003F03FFDEAE7002ABCD0D0E7C0466D
:1010E000210D0010BC0F0020004005404C230020C3
:1010F00070B5060000F0A6F8FA2204000D000023E7
:1011000030000021920000F02DFE8023001969417B
:101110001B06994202D3012002494042FFF782FF99
:1011200070BDC046FFFFFF7FF0B5D6464F4646462E
:10113000C0B504000D0082B0EFF305878946002F8B
:101140000ED0344900204B6AAB4203D38A6A013087
:10115000A24226D302B0E0BCBA46B146A846F0BDD2
:101160002D4B9846DB689A46434650461E7800F061
:1011700061F80B00514602000436B6007158200099
:101180008E1A2900801A99418F4211DC0ED020BF9F
:10119000204A0020536A4B45DCD3926A0130A242B8
:1011A000D8D25B1B5A1E9341D8B2D3E78642EED900
:1011B00000F048F822002B00121A8B41002B1ADB9A
:1011C00000230193154B2200009340462B00FFF7AC
:1011D00095FE011E0FDD0F4B5A6A4A4517D39B6AD5
:1011E000A34212D34046FFF7E1FE0A4A0020536AA9
:1011F0004B45AFD3D1E7074A0020536A4B45A9D3EB
:10120000926A0120A242A5D2CBE74A45EAD120BF8B
:10121000E8E7C04600400540BC0F0020210D00104B
:1012200010B5024A0248FFF72BF910BD885A00108A
:10123000281C00200300416A0A00986A596A8A4201
:10124000FAD17047034B596A0A00986A596A914269
:10125000FAD1704700400540064A536A9942FCD8CB
:1012600007D1044B02E05A6A914202D19A6A824243
:10127000F9D3704700400540F8B5DE464E46574664
:101280004546E0B58B4605000A991800160000F0A7
:10129000C9FA0A9B6C001F02324B64199C46A400D9
:1012A0006444636881469F4200D967602B1FDBB2AC
:1012B0009846012B30D9C02380229B01E3181201EC
:1012C0001A60294BAD0059599A4600291BD1730168
:1012D000E026226853401E40802342465B01E3180B
:1012E0001E60012A30D9802380229B01E31812015D
:1012F0001A6053464A4667605A51F0BCBB46B24634
:10130000A946A046F8BD586900F08CFA01304300A8
:101310001B18033BFDD2DAE75B46012BCBD1C02380
:1013200003229B01E3181A60023AA3681A42FCD018
:101330007301E0262268AD0053401E4080230A4A14
:101340005B019246E3181E605A4621685140032211
:101350000A401A6001225B469A40A3681A42FCD0F8
:10136000C1E7C046008000402C1C0020F0B5464676
:101370004F46D646C0B51F00344B44009C46241847
:10138000A4006444636888461600FF2B02D88023BB
:101390005B006360031FDBB29A46012B30D9C02388
:1013A00080229B01E31812011A60294B85005959CC
:1013B000994600291BD17301E026226853401E4044
:1013C000802352465B01E3181E60012A30D9802336
:1013D00080229B01E31812011A6080235B00636086
:1013E0004B465F51E0BCBA46B146A846F0BD5869CD
:1013F00000F018FA013043001B18033BFDD2DAE776
:101400004346012BCBD1C02303229B01E3181A6072
:10141000023AA3681A42FCD07301E02622688500D4
:1014200053401E4080230A4A5B019146E3181E6028
:1014300042462168514003220A401A600123424675
:101440009340A2681342FCD0C1E7C0460080004030
:101450002C1C0020014B8000C05870472C1C002021
:10146000F8B5040021481E0017000D0000F0DAF95D
:101470000100380000F0D6F9069B36041B031E431A
:101480002368002B20DB1A4B1A49E3185A1E93419C
:101490008022920194465B421B0B174A1B03634454
:1014A0001360164A13601F000A689743FBD1144B60
:1014B0002560E2182123A06013602368002BFCDA6A
:1014C0000823E6601360F8BD3F2322681340AB4257
:1014D000D9D1A3681B051B0D8342D4D1EE22E3684A
:1014E000D2021340B342CED1EDE7C046001BB70095
:1014F0000040FDBF08C0004000E0004000F0004098
:101500000430000010B580241C4BE4051C6000284A
:101510001AD001231A4C18431A4BDC611A4C444070
:101520001C62596298628021144BC90519601748E2
:1015300017490860E021C9041960002A07D18022F8
:10154000144B12061A6010BD0E4BD861EBE7530125
:101550009B1A9B009A18802312015B049A4209D2BD
:1015600013000D490B60074B5A608022094BD205CE
:101570001A60E8E7094B1A00F3E7C04600B00540DF
:10158000D3C007B0008005402D3FF84FFCFF01009D
:101590000820014000A005408C200020FFFFFF0034
:1015A0008023024A9B000B43D362704700800540B2
:1015B000142310B50100188804331B88984710BD08
:1015C000162310B50100188802331B88984710BDF8
:1015D000F8B54746CE4680B50F1E19D0142399465C
:1015E000043304000025012698464B4618884346DC
:1015F00021681B88984701C4431E98410135404229
:101600000640AF42F1D13000C0BCB946B046F8BD8B
:101610000126F8E7142370B50400188804331B88EA
:101620000D000549984703000020002C01DB013024
:10163000A04029009847C04655420000AA23064A08
:101640001B0113608D235B00D3600449044B1960B8
:101650005368002BFCDA70470040024000B0FA00EB
:10166000006002407047C04610B50148FEF7F0FE2A
:10167000AC5A001070B5074D074EB54209D2002490
:10168000013E761BB60808CD984723000134B342CB
:10169000F9D170BDD05900100C5A0010054B064A04
:1016A00006491A60064A074B1A6010000B689843F7
:1016B000FBD1704700E00040BFCDFBFE08C00040FA
:1016C000FE7F3C0000F00040044BDB6C002B03D19C
:1016D0008022034BD2021A607047C04600001150AE
:1016E0004C201150044A054B1A60054A1368DB016F
:1016F0008033FBD17047C046FFFFFF0100F0004080
:1017000008C000404022034B9A675A671A67DA669E
:101710007047C04600F0014010B5FEF73FFF10BD16
:1017200070B5044D044CA968C022200000F08AFB6B
:10173000AC6070BD00ED00E000000020002310B59B
:10174000294C82B0A367FFF779FF0122274B1A606B
:10175000636C012BFCD10322254B1A60224A936B48
:10176000012BFCD1013300930121224A224804338A
:10177000FFF776FE052301210093204A2048FFF75A
:101780006FFE0022022104201E4BFFF7EFFD002216
:10179000012105201C4BFFF7E9FD00220021072055
:1017A0001A4BFFF7E3FD002200210820174BFFF73B
:1017B000DDFD8023DB000093002200210920134B74
:1017C000FFF75AFD0022104B00210620FFF7CEFD47
:1017D0000420FFF73FFE0E4900F024F8010000202E
:1017E000FFF7DEFE02B010BD008000403CB00040BC
:1017F00030B00040002F685900800240008C8647BE
:1018000000C00240001BB70040597307006CDC02A7
:1018100040420F0001480421014B1847E00F00200F
:10182000D1150010114A936F9B0813D210665166B0
:10183000002905D0FFE7FFE7FFE7516F106F704702
:1018400004B5002801D00020C04304F089F800212D
:1018500004BDC046F0B5146E556E576F166FFFF796
:10186000E5FF1466556657671667F0BD000000D0A7
:1018700094464A4A926F9208624601D228E0C046D6
:10188000F0B5464E346E756E776F366F00F020F807
:101890009446424A14665566576716676246F0BD1D
:1018A00094463E4A926F9208624601D254E0C04686
:1018B000F0B53A4E346E756E776F366F00F04CF8B7
:1018C0009446364A14665566576716676246F0BDF9
:1018D000002B24DB11D000293EDA00B5C943404279
:1018E00000D1013100F038F8C943404200D1013144
:1018F000DB43524200D1013300BD002AEBD1002866
:1019000001D1002905D00020C90FC90701D1C0436A
:10191000410800B504F014F80022002300BD00B512
:1019200000290ADBDB43524200D1013300F014F8F6
:10193000C943404200D1013100BDC943404200D1FA
:101940000131DB43524200D1013300F005F8DB43A3
:10195000524200D1013300BD002923D1002B18D100
:10196000002A0CD0BC460D4F38667A660021002351
:10197000FFE7FFE7FFE77A6F386F67467047002899
:1019800001D00748010000B503F0DAFF0022002370
:1019900000BD02000B00002000217047000000D0B5
:1019A000FFFFFFFF002B00D0BFE0130C28D1002A5F
:1019B000E7D080B4114F39667A66FFE7FFE730B4AD
:1019C000040C7B6F396F1B0423433B667A66FFE789
:1019D000FFE7FFE7C04684B27B6F3D6F1B042343E4
:1019E0003B667A66FFE7FFE7C04600232C042D0C18
:1019F0007A6F386F00196941B0BC7047000000D0A1
:101A0000F0B594460025140E01D112020835140FCA
:101A100001D112010435940F01D192000235D40F87
:101A200001D152000135D40B0134254F7C66254C81
:101A30003C660E0C93B2FFE7FFE7FFE73C6F66439F
:101A4000360C7703BE467343DF0B5B04C01AB94103
:101A5000130C7343DB18C91ACE086643360CB64420
:101A600093B273431F0F1B01C01AB941130C734388
:101A70001F0B1B05C01AB941860D8F023E436643FA
:101A8000360C092D24DB520A7243801A7703460A6A
:101A90006643360C16235B1BDE40DF40BF196446ED
:101AA0006643821B7046043506330100D940A840C6
:101AB000C01900D30131A24206D20023F0BD0000BC
:101AC000000000D0FFFFFFFF121B0130F3D3F1E74E
:101AD00009277F1BFE406446A2B27243801A00D2DF
:101AE0000139220C7243130C1204821A99410B0023
:101AF0007046043513370100F940A840801900D31F
:101B00000131002B02D1A2420AD2F0BD013000D334
:101B10000131121BFAD2013BF8D1A24200D2F0BD32
:101B2000013000D30131121BF7E7F0B51C0C00D0D7
:101B300080E00CB400251C0A04D11B02160E3343AE
:101B4000120208351C0B04D11B01160F334312017E
:101B500004359C0B04D19B00960F33439200023551
:101B6000DC0B02D192185B4101351C0097186441CF
:101B70000134464F7C66464C3C660E0CFFE7FFE79F
:101B8000FFE7C0463C6F6643360C7703BE4697B20C
:101B90007743C01B00D20139C01B00D201399FB26C
:101BA0007743C91BC91B170C77437E04FF0B801BAF
:101BB000B941CE086643360C0C2D33DBB644120B0C
:101BC0001F053A431B0B97B27743C01B00D2013964
:101BD0009FB27743C91B170C77433E043F0C801B11
:101BE000B941860D8F023E43664329277F1BFE4085
:101BF0000C3D7746AF40BF1930BCA2B2ABB27243C6
:101C00007343801A9941220C7243130C1204801AF8
:101C1000994102000B000137001BA941F9D2781E3F
:101C20000021F0BD0C277F1BFE4077467F0BAF40A5
:101C3000FF19E0E700245D1C07D0144F7D6639666C
:101C4000FFE7FFE7FFE7FFE73C6F95B29EB2654312
:101C50006643401BB141150C1E0C654366433604B8
:101C60002F0C3E432D04401BB141994204D2020087
:101C70000B0020000021F0BD01D19042F7D3801A63
:101C8000994101349942F2D3F6E70000000000D0F8
:101C9000FFFFFFFF132370B51D78012D19D014DD50
:101CA0001F48FFF78DFC06001E48FFF789FC1E4CFD
:101CB00080223100200000F0C5F8022D2DD01B48F5
:101CC000FFF776FC1A4B186070BD1A4B164CA364D4
:101CD000F5E7184B144C23606360A360E360236155
:101CE0006361A361E36123626362A362E3622363CE
:101CF0006363A363E36323646364A364E3642365AE
:101D00006365A365E36523666366A366E36623678D
:101D10006367A367E367A364D1E7064BA364CEE7D9
:101D20005344000053460000D81100204C330000FB
:101D300048230020391D001007B5604601880A0AB3
:101D40000230DF2AFAD1C9B2820804D3028840885F
:101D50000004104300E00068014A5050039007BDA2
:101D6000D811002051434343C9188C46110C83B24B
:101D70004B4310B4040C614392B280B250436243AF
:101D80001C041B0C001910BC59411304120CC01880
:101D90005141614470470000132310B512481C786C
:101DA000FFF70EFC0100012C0AD003DD80220F4852
:101DB00000F048F80E48FFF7FBFB0E4B186010BD13
:101DC0000A4C5422200000F03DF80B4B6365A365DC
:101DD000E36523666366A366E36623676367A367B9
:101DE000E3672362E361E5E753460000D812002071
:101DF0004C33000048230020FD1D001007B560464D
:101E000001880A0A0230DF2AFAD1C9B2820804D353
:101E1000028840880004104300E00068014A5050E6
:101E2000039007BDD812002001480421014B184738
:101E3000F00F0020D1150010014B1B68184700005F
:101E4000F00F0020014B5B6818470000F00F0020E6
:101E500010B5002800D110BD00F024F9FBE7C04602
:101E600010B5094A0300146884B0002C08D0012280
:101E700000910648524203A9A047012004B010BDBA
:101E800000F05CF90020F9E788200020511E0010C6
:101E900000BEFDE710B5FFF7FBFFC04670B5FFF7CA
:101EA000E9FB074D074EB54209D20024013E761BDF
:101EB000B60808CD984723000134B342F9D170BD6C
:101EC0000C5A00101C5A0010030010B50800110035
:101ED0001B68984710BDC046F0B5C64600B5437DA7
:101EE00007000D001600002B38D0002A2EDD00213F
:101EF0006A1E90466A5C037D4C1C00200A2A0CD0A6
:101F0000A64216D043461B5D21000D3B5A42534169
:101F10006A5CDBB24C1C0A2AF2D1002BF0D1884259
:101F200017DB022110483B689847A64207D02000E3
:101F3000E8E7864203DD311A3B6828189847AD1957
:101F4000013D2B780D3B5A4253413B7580BCB8464E
:101F5000F0BD091A3B6828189847E2E703681100AA
:101F600028009847F2E7C046EC5B0010F0B5DE466B
:101F700057464E464546E0B585B017001C000600A2
:101F80000D00FFF75FF90023314A12184B41802101
:101F900009068B4202D301222E4B52422E490800E1
:101FA0008A4603F0F5FC01906B1C03D1300003F06E
:101FB00021FC0500002C26D0284B9846284B1C6895
:101FC000002C15D0002F21D1264F02E02469002CCF
:101FD0000ED02368002BF9D03B68002B01D09C4227
:101FE000F4D120002A003100C0472469002CF0D130
:101FF000019B002B28D1280005B0F0BCBB46B2469F
:10200000A946A046F0BD184B9846D7E7154B994610
:1020100002ABDF1D0A239B4602E02469002CE7D0B7
:102020002368002BF9D04B461B68002B01D0A3423C
:10203000F3D12A0031002000C0475B46012239005D
:1020400020003B70C047E8E7504603F071FCD2E740
:1020500040420F00FFFFFF7F44100020D91E0010F8
:102060007C1C0020841C0020C91E00100A4A136832
:10207000002B05D10CE01A001B691032002B07D091
:102080009842F8D1002902D10369136001617047B9
:102090000029FCD01060FAE77C1C002010B500F08D
:1020A0008DFA10BDF0B5CE46474680B583B06B467D
:1020B0000600DD1D2870FFF7C5F800231A4A121824
:1020C0004B41802109068B4202D30122174B524219
:1020D00017490800884603F05BFC164B81461C68D4
:1020E000002C14D0144F02E02469002C0FD0236878
:1020F000002BF9D03B68002B01D09C42F4D120008A
:1021000001222900FFF7E8FE2469002CEFD14B469D
:10211000002B05D1300003B0C0BCB946B046F0BDBD
:10212000404603F005FCF5E740420F00FFFFFF7F4C
:10213000441000207C1C0020841C002070B504008A
:1021400003F058FB01230100050001222000FFF7E6
:102150000DFF084B1C68002C06D06368002B05D0CF
:1021600098472469002CF8D1280070BD2469002C00
:10217000F3D1F9E77C1C00207047C0460022014BD8
:102180001A707047DE2302204B790020FF2B0BD101
:102190008B79002B08D1CB79012B05D1082A03D9E3
:1021A000024B8A7809301A707047C046DE2302203D
:1021B0000120704710B5012901D0012010BD13493D
:1021C0005379107909781B02034300209942F5D115
:1021D0005378012B08D0022BF0D10020642200217B
:1021E000FFF790F90120E9E7D37891781B021943B2
:1021F000DB0507D54A0A100001231A407E33194037
:10220000FFF708FA01204A0A4042F5E7DE230220E0
:1022100000487047B85C001070B50500140001203C
:10222000012909D153780020012B05D16379127956
:102230001B021343072B00D070BD21002800024A67
:102240009F3301F063FAF7E7105C0010012303707D
:1022500000487047F05B00104B780A781B0213436C
:102260008A7810B512041A43CB781B0613439622C2
:10227000D200934200D010BD002201201100404244
:10228000FFF7C8F9024B1860024B19607047C0464F
:102290001C1C0020201C002010B5024B1878FEF7F3
:1022A000BBF910BDDF230220154B70B51A68002A58
:1022B00022D0EFF3108172B610680028FCD0BFF373
:1022C0005F8F00200F4A596010701B68BFF35F8F4B
:1022D000186081F31088002400250B4E3078FEF73B
:1022E0008FF9002804D1002400252900200070BDAA
:1022F0003078FEF791F9F8E7FA240025A400ECE71E
:1023000094200020E0230220DF23022070B5040087
:1023100000200E0001F01AFB002836D0002001F04A
:102320002BFB002831D0FEF78DFF0023184A12182E
:102330004B41802109068B4216D2164D280003F02E
:1023400027FB002821D0002001F000FB00280FD13E
:1023500001200021404200F009FD032464422800CE
:1023600003F0E6FA200070BD01220B4B5242E4E775
:10237000002001F001FB0028EAD0210032000020FB
:1023800001F004FB041EEAD1E7E703246442E9E715
:1023900040420F0050230020FFFFFF7F10B5FEF7E3
:1023A00051FF00230E4A12184B41802109068B422F
:1023B00002D301220B4B52420B4C200003F0E8FAEF
:1023C00000280CD001200021404200F0CFFC00206A
:1023D00001F026FB0028F5D1200003F0A9FA10BD7A
:1023E00040420F00FFFFFF7F50230020F8B5DE467C
:1023F000574680B505000C00FEF724FF0023374A3E
:1024000012184B41802109068B4202D30122344B22
:102410005242344908008A4603F0BAFA002803D130
:10242000C0BCBB46B246F8BD002001F08FFA0028C0
:102430004AD00026002C43DD2B4B9B4614E0A91903
:10244000002001F027FB070001200021404200F09E
:102450008DFC002001F0E4FAFEF7F4FE224BF619A1
:1024600018605960B4422BDD002001F033FBA71B3C
:102470000200B84200DD3A00002AE0D1012000212C
:10248000404200F073FC002001F0CAFA002001F085
:102490005DFA002814D0002001F01CFB0028E1D1D7
:1024A000FEF7D0FE5B460F001A685B680021844689
:1024B0000E4812184B419F4202D8D3D19445D1D92E
:1024C000504603F035FAABE700200021064B1860B8
:1024D0005960504603F02CFAA2E7C04640420F0074
:1024E000FFFFFF7F50230020D011002020A1070014
:1024F00030B52B4C85B00021200003F039FA0028BC
:102500001CD1284B1A68002A16D0EFF3108172B63E
:1025100010680028FCD0BFF35F8F01242248596067
:1025200002781B68D2B20470BFF35F8F002018607E
:1025300081F31088002A17D005B030BD012000219A
:10254000404200F013FC002001F016FA05002000C4
:1025500003F0EEF9002DEFD0144B1B68002BEBD0ED
:10256000134A10689847E7E7FEF75AFC0400FEF7A5
:1025700069FEFA220023920012184B4180210906BD
:102580008B4202D301220B4B5242012102910021C6
:102590000191094920000091FEF746FCCCE7C046B6
:1025A0005023002094200020E02302201C1C002047
:1025B000201C0020FFFFFF7FA9220010D02310B5B0
:1025C0001B0684B01C68FEF72BFCFEF729FDA04219
:1025D00002D0002004B010BD2A4B002100201B783F
:1025E00001F078FD28480368002B47D00120FEF752
:1025F000ABF9FF23254C264920701840FEF726F83A
:1026000020780121FDF7EAFF0520FEF70DF80028EC
:1026100026D1082200211F48FFF70EFCFEF700FC20
:102620000400FEF70FFEFA220023920012184B411D
:10263000802109068B4202D30122174B524201210D
:10264000029100210191154920000091FEF7ECFB59
:102650000028BEDB12480121FFF708FD0120B9E781
:102660000120FDF789FF0B4B01001800FEF7D0F9A0
:10267000002205200B49FEF713F8EBE7FEF7ACF953
:10268000B4E7C0466C5E001050230020DF23022018
:10269000F124001094200020FFFFFF7FA9220010EA
:1026A000001000209922001000487047545D00106F
:1026B00000487047005D001010B50400174803780B
:1026C000002B20D0002C06D1154B16484380063B2A
:1026D000FF3B038010BD052C19D8134BA400E05814
:1026E00012490123013804E001330A800231142B1E
:1026F0000FD0C25C002AF7D1C022DBB25B0092008F
:1027000008481343E5E7112100F01AF8DAE7002042
:10271000E0E7CA2303489B00DBE7C04658230220BA
:1027200009040000541C0020E85C0010561C002026
:1027300010B5024800F0D8F810BDC0464023002074
:1027400030B54B1E012900D1A7E0664A11780D096A
:102750002C0030349F2900D9A2E00470012B00D155
:10276000BEE00F21147821400C003034092900D933
:1027700098E04470022B00D1B2E05478250929007A
:1027800030319F2C00D990E08170032B00D1A7E05D
:102790000F2121400C003034092900D987E0C47092
:1027A000042B00D19CE094782509290030319F2C1E
:1027B00000D97FE00171052B00D191E00F2121406C
:1027C0000C003034092900D976E04471062B00D181
:1027D00086E0D4782509290030319F2C00D96EE09D
:1027E0008171072B00D17BE00F2121400C00303498
:1027F000092966D8C471082B00D171E01479250924
:10280000290030319F2C5FD80172092B68D00F212D
:1028100021400C003034092958D844720A2B5FD06B
:1028200054792509290030319F2C52D881720B2B05
:1028300056D00F2121400C00303409294BD8C472E6
:102840000C2B4DD094792509290030319F2C00D9CB
:10285000073101730D2B43D00F2121400C00303480
:10286000092901D937310C0044730E2B38D0D179A6
:102870000C09220030329F2900D9073282730F2BB6
:102880002ED00F220A4011003731092A01D83032E8
:102890001100C173102B23D010300023037030BD02
:1028A00007345AE737310C0063E707316CE73731FB
:1028B0000C0074E707317DE737310C0085E70731FD
:1028C0008EE737310C0095E707319DE737310C0073
:1028D000A3E70731AAE737310C00C4720C2BB1D142
:1028E000C018DAE74023002010B588B004000D229C
:1028F00000216846FFF7A0FA0D22002104A8FFF787
:102900009BFA4B236A466846137004A90D2203F014
:1029100007F81521082220006944FFF793FA08B050
:1029200010BDC046F8B500F043F90C23194DFF2245
:10293000AB6705201849FDF7B3FE184C4022002173
:102940002000FFF779FA4027002301262121144AAD
:1029500066702783A260136063545F3161844539D8
:102960006354104A10496360E2602787A1620B60DC
:102970006362E26202F0ECFF80239B052E64EB644D
:1029800090230A4A0120EA508022094B5202DA645D
:10299000F8BDC0460000115075040020881C0020BE
:1029A00084001050000110508000105010D0010021
:1029B0000020115010B501210520FDF70FFE10BDBC
:1029C00010B500220021024800F012F910BDC046E7
:1029D000A81C0020044B1970002904D080219023EA
:1029E000024A8902D1507047D92302200020115099
:1029F0000B785B0602D14B78052B00D070478A78A4
:102A0000014B1A60FAE7C04600001150F0B5C64607
:102A1000C87800B58007830F1800012B60D08F782D
:102A20000A794B797F213940FC091B024E00134380
:102A3000334D32195201AA18977001276740577019
:102A400000275B055B0DD7701383D076B846CA00AC
:102A5000012C32D02B4FBC468F016244BC46AC44A3
:102A60006746BA6047461760002932D0264AC90037
:102A700090466246414451603F223F3393430228CF
:102A800037D0224937190A687F01D3180B602049D3
:102A9000EF19FA608B422ED836197601AD19EB7E0C
:102AA0001C499B064A4013438022120613436A685E
:102AB0001360012080BCB846F0BD174FBC468F01A3
:102AC0006244BC46AC446746BA6247461760002978
:102AD00008D1002364012C196360104BE360E8E720
:102AE0000020E7E70B4AC900904662464144516224
:102AF000C2E75B00C5E7FEF7B7FDFA68CCE7C04662
:102B0000881C0020840010500400105090200020E9
:102B1000FF0F1050000010508000105000011050A6
:102B200010B502F015FF10BD10B57F200C0020403D
:102B30004000E409110000191A00034B4001C018BD
:102B400000F056F8012010BD881C00207F231800DB
:102B500010B50840CA090B4203D107497D3B9B1AB7
:102B60008B66400080188022044B40010021C01871
:102B7000120102F025FF10BD00201150881C00201A
:102B80007F22130010B50B400A4200D110BDC909C5
:102B90005B005B1804485B01C01800230022034956
:102BA000C37002F00DFFF1E7881C0020FFF7FFFF64
:102BB00080220A4B520410B51A60094B09491A6069
:102BC00010000B689843FBD1802200215201064877
:102BD000FFF732F90922054B5A6710BD00E00040AB
:102BE00000F0004008C000400000105000001150EC
:102BF000002310B5C3820133828283760161040011
:102C000002F086FE002804D080219023074A890222
:102C1000D150200002F0CCFE002802D001232377FF
:102C200010BD200002F0BCFEFAE7C04600201150A3
:102C30007047C0467047C04600207047002070476C
:102C40007047C0467047C0467047C0467047C04690
:102C5000024B5878431E9841C0B270473417002089
:102C6000024B18784007C00F7047C0463417002049
:102C7000F0B5D6464F464646C0B5314B07009A469A
:102C80001B780E00FF2B01D0012044E0002941D029
:102C9000002154222B48FFF7CFF800222A4C2B4B5F
:102CA00020001A70FDF798FE294B1C60294C20006B
:102CB000143CFDF79FFE200001F032FE264B274D0D
:102CC0001C60274B002B2BD02800FFF7BFFA254BA9
:102CD0002A7818602449002489462249002388461E
:102CE00010E043461B6862019B18002B12D05B6802
:102CF000002B0FD098472A780134E4B2511C2300EE
:102D0000A1420FDBA242ECD89B1A5B014B445B68EB
:102D1000002BEFD10020E0BCBA46B146A846F0BD7A
:102D20002A78D7E75346310038001F70FFF7FAFDC5
:102D30000028EFD03800FFF73DFE0120EBE7C0464A
:102D400034100020341700202C170020DA23022032
:102D5000881700202C1000208C170020D823022078
:102D60004D22001088150020105E0010F0B5DE46E0
:102D700057464E464546E0B5C84B91B002931B7886
:102D8000FF2B00D13EE1C64BC64E9B465F46C64B6D
:102D90000DAC0193C54B009335686A69EFF3108160
:102DA00072B61368002BFCD0BFF35F8FA9612800B7
:102DB000210001F0E3FB6A69AB69BFF35F8F00217B
:102DC000116083F31088002800D11BE16378082B81
:102DD000E2D89B00FB589F466368002BDCD0A068BC
:102DE0009847D9E77F222179AF4D0A405300EB186D
:102DF0009846C809804440460123303005799D43F8
:102E00000571057903339D430571002A00D100E166
:102E10004346A74A1B7D1278934200D3EFE0A54AB0
:102E20005B011568ED18002D00D1EBE0A368627915
:102E30002078AD69A847AFE79F4A1378002B00D1EF
:102E4000E0E01378013BDBB213701378002BA3D1C1
:102E50000122954D01212B78042013432B7034233C
:102E6000EA5C8A43EA54EA5C8243EA540133EA5C4E
:102E70008A43EA54EA5C8243EA54237800209B4662
:102E800000F0A4FC602223791A40602A00D1EFE010
:102E9000402A00D1F5E0DB06DB0E012B00D113E167
:102EA000022B00D1C7E0002B00D0E1E0202A00D1A6
:102EB0001CE2002A00D0DBE06379092B00D9D7E0BF
:102EC0007E4A9B00D3589F46774D2B78DB0700D472
:102ED00062E7FFF7BBFE5FE7019BDB78DB0700D40F
:102EE0005AE76068FFF7A6FE56E76F4D2B78DB07C1
:102EF00000D451E728780007C00FFFF7A5FE4BE785
:102F000023786A4999468B46694B6A4998468A46AE
:102F100039001A7847460023B04600254E468946B8
:102F200010E053461B686A019B18002B00D176E025
:102F3000DB68300098473A780135EDB2511C2B0020
:102F40008D4244DC9542ECD39B1A5B015B44EFE776
:102F5000237858499946564B8A4698463100BB46D5
:102F60004E461A7800250023474689460FE053460F
:102F70001B686A019B18002B55D0DB68300098470E
:102F80003A780135EDB2511C2B008D4207DC954299
:102F9000EDD39B1A009A5B0194466344EDE7019DD3
:102FA000542200212800FEF747FF1022FF21444849
:102FB000FEF742FF28002022FF2114304E465F46D4
:102FC000FEF73AFF00F0F8FBFFF73CFEE4E6364D73
:102FD000542200212800FEF72FFF1022FF21281D78
:102FE000FEF72AFF28002022FF21143046464F46D4
:102FF000FEF722FF00F0E0FB2379AB70CCE6501C1B
:10300000984213DA11B0F0BCBB46B246A946A046BE
:10301000F0BDA3686279207800F0ECFBBCE6464680
:103020004F46214DE6E74E465F46CBE71F4D9B1AC4
:103030005B015D19FAE67023217A0B4218D1C809A9
:1030400082460F330B405B0098461948EB185344F7
:103050001B7D00789946834266D216485B01006862
:1030600081469944002A00D15FE14B46002B68D18C
:1030700020780021FFF76AFD80212078FFF766FDA8
:103080008AE6104800F0A2FB012158460EAAFFF77D
:10309000C3F8002800D07FE6EAE7C04634100020DD
:1030A000685D00108C17002034170020105E00109F
:1030B000D823022088150020DA2302208C5D00101E
:1030C0003817002019220010237A0F2BD0D8CF4AAE
:1030D000EB181B791578AB423ED3691C9942C7DBCC
:1030E0005D1BCB4B6D01ED18686900F06FFB012192
:1030F00058466B690EAA9847002800D04CE660221B
:10310000150023791D401A42B2D163790A3B012B85
:10311000AED800F05BFB63790A2B00D199E15846E9
:103120000EA900F0DDFA37E6431C4B4500DAF7E064
:103130004B461B1A5B019946B5488144002A00D1D1
:10314000F3E04B46586900F041FB4B4601215846DD
:103150005B690EAA98479CE7AE4A5B011568ED18BB
:10316000002DC1D184E7A37999466B789945D6D0D3
:103170006B78002B00D033E14B466B70002B00D1F5
:103180002BE148460138C0B2FFF792FA002800D17F
:103190007EE143780793022B00D079E10122C179C7
:1031A000B1468B11491113400A40302112015B01D5
:1031B00013432A78A8468A4313432B7009239A465F
:1031C00082445646BA46C37882781B021343C3181A
:1031D00005938E4B04938E4B08938E4B09938E4B25
:1031E0000A93059BB34200D855E1737801220B2B5B
:1031F00003D13378F278F6187378042B00D044E1C9
:10320000059B00279B1B9BB20693049B0B921D788A
:10321000002303931BE0099A7B011568ED18002D2C
:1032200000D132E1310058462B69069A984784460E
:10323000082803D9069A824200D313E1049B013780
:103240001D78FFB26B1C03979F4200DD1DE1BD425C
:10325000E1D8039B5D1B089B6D019C466544E1E73B
:103260006B780CAA02321370584601230EA900F0A5
:103270004DFA91E5E3881A0AD8B20F2A00D9F7E689
:1032800066499300CB589F460EA800F0A5FA584611
:10329000A179FFF795FB02222B7813432B707BE576
:1032A000E388012B00D0E3E608222B7858469343AD
:1032B0000EA92B7000F014FA6EE5022029780CABF1
:1032C0009A1C8B068908DB0F01400B43138058467C
:1032D00002230EA900F01AFA5EE5E388012B00D064
:1032E000C6E608222B7813432B7018E7237A0F2B9E
:1032F00000D9BDE6EB181D79444B1B789D4228D2BE
:10330000444B6D011B685D19002D00D1B0E6686962
:1033100000F05CFA012158466B690EAA9847B8E69E
:10332000002A00D0A4E60023994662790220130007
:1033300003928343012B15D0002A00D098E62B007E
:103340004344534430331B790CAA9B07DB0F0232F2
:10335000BCE75A1CAA4200DA8AE6ED1A2C4B6D0132
:10336000ED18D4E7E388002B12D1029B1878039B59
:10337000012B23D0FFF7EAFB43460221EB1853440D
:1033800030331A790A4301211A711A790A431A71E2
:103390004B46002B00D1FFE4586900F017FA4B466A
:1033A00001215B690EAA58469847002000F00EFAEA
:1033B0003523EB5CDB0700D5EEE4B0E6FFF7E0FB7E
:1033C00043460221EB18534430331A798A431A7169
:1033D0001A7903998A431A71DAE7FFF733FC9EE6FC
:1033E00000215846FFF7F6FA5846FFF799FBAB78ED
:1033F000074903930491054B064998461A780591AD
:10340000002329001D008A461BE0C046D823022065
:10341000105E00108815002048170020B45D0010D1
:10342000059B6A011B689B18002B4DD0DB68584632
:10343000984743461A780135EDB2511C2B008D4256
:103440002EDC9542ECD39B1A049A5B0194466344AC
:10345000ECE70CAB9A1C584601230EA9157000F03E
:1034600055F999E40B9A012A4FD0002A3CD0002349
:10347000B07804E00133DBB20F71934234D2C1184B
:10348000C9B241440D79FF2DF4D04E46454657460A
:1034900000236B70ECE54E465746FFF7D1FB3EE646
:1034A0005546542200212800FEF7C6FC1022FF21B9
:1034B000281DFEF7C1FC28002022FF211430FEF752
:1034C000BBFC039BAB7057E65546FAE7FEF7A0FE40
:1034D000021E00D1CCE5D37891781B020B435846ED
:1034E0000EA900F013F9D4E565463B002A0031002F
:1034F0000A9800F0B3FEAC46049B039A1B7866441E
:103500000133934200DB6CE6BFE7174B2969994210
:10351000ADD1079AABE7FFF78FFB021E00D1A7E5FD
:10352000584613780EA900F0F1F8B2E52189FFF7AB
:10353000C3F8021EF4D19BE5022A0FD0FFF77EFBF1
:10354000021EC8D194E5FFF7AFF8021E00D18FE547
:10355000122358460EA900F0D9F89AE5FFF7A8F80B
:10356000021EB8D184E5C046E13B0010F8B55746CD
:103570004E46DE4645460C00E0B516001F00002A08
:103580003DD0204B00259A46702399461E4B9B4602
:1035900018E05B4600222000997800F003FE002826
:1035A0001FD021004046FFF731FA002819D0A37838
:1035B000DA09012A1CD00A9A013513702378E4181D
:1035C000B5421CDA6378052B0BD1E3789B079B0F80
:1035D000BB4206D153464A461B789846A3781A4206
:1035E000D7D00020F0BCBB46B246A946A046F8BDE5
:1035F0000B9A013513702378E418B542E2DB012001
:10360000F0E7C0463410002034170020702270B557
:103610000A4B0C001D788B781A4201D0002070BD37
:10362000074B00222000997800F0BCFD0028F5D05F
:1036300021002800FFF7EAF9F1E7C0463410002026
:10364000341700200B007F2010B51840DB093433FD
:103650004000044AC018044B1168C01800F05EFD19
:1036600010BDC04688170020341700200B007F20B3
:1036700010B51840DB0934334000044AC018044B2D
:103680001168C01800F072FD10BDC04688170020F8
:103690003417002070B57F240F480C4064000419D3
:1036A000CD09641930342079C00701D5002070BDE0
:1036B000012625790948354300782571FFF734FA4A
:1036C0000028F4D101222379934323712379033213
:1036D00093432371EAE7C0463417002034100020DA
:1036E00070B5094C0600082220000D00FEF7AAFB69
:1036F00000238021E360A3602B78300099430022EF
:103700000023FFF7C7FF70BD14170020F8B5CE46A1
:1037100047469046264E80B58146082230000D006F
:103720001F00FEF78FFB4346B3600023F381EC7963
:10373000AB7924021C43231CBC4200D93B1C9FB222
:10374000B381002C0ED0002F18D04346002B2CD074
:103750003B1C402F1BD89FB233787F2B1CD80021F5
:10376000144A0FE080212B78002299434846002319
:10377000FFF790FFC0BCB946B046F8BD7F230022DA
:10378000317899433B004846FFF784FFF2E7402336
:103790009FB233787F2BE2D9064C3A004146200095
:1037A000FEF750FB80212200ECE70020E2E7C04654
:1037B00014170020D416002010B51422002102484E
:1037C000FEF73AFB10BDC04614170020014B1861EC
:1037D0007047C0461417002010B5054C01000822A0
:1037E0002000FEF72FFB0023A360E36010BDC0465E
:1037F0001417002070B5384C1D0023780600DA0934
:10380000C9098A4210D00020002D00D070BD2100CF
:103810003000FFF7EDF82369002B03D022000321CD
:10382000300098470120F1E7A0687F2B05D80028D9
:1038300034D02A002949FEF705FBE289A168521914
:10384000E38892B24919E281A160934214D03F2DDE
:1038500012D9A389981A051C80B240282AD820784A
:10386000ADB27F2828D800219A4232D01B4A2B00C3
:103870003000FFF70FFFC9E72369002B05D02200B6
:1038800002213000984700280AD0802123780022A6
:10389000994330000023FFF7FDFEB7E70020B5E7AE
:1038A00000213000FFF752F930008021FFF74EF978
:1038B0000120ABE74025D2E79A4207D0074C2A0007
:1038C0002000FEF7BFFA80212200D0E780210022ED
:1038D000CDE70022CBE7C04614170020D416002005
:1038E00070B50500FFF7B4F9002800D170BDFFF7EF
:1038F000B7F90028FAD1C8236B43124CE618F178C7
:103900000029F3D010331C19200000F021FE3F28BD
:10391000ECD90020F178FFF795FE0028E6D02000D2
:1039200000F016FE3F2808D9074BEA01D218F178BB
:1039300040230020FFF7AEFED8E7F1780020FFF724
:1039400095FED3E70C1600208C15002010B504005E
:10395000FFF77EF9002801D1002010BDFFF780F9A4
:103960000028F9D1C8226243024B01309B181B7911
:103970001840F2E70C160020C82310B54343024854
:10398000181800F0C7FD10BD1C160020F0B5C824A3
:10399000C646802344431F4F1034050000B53C1930
:1039A0005B029A4200D31C4A200092B200F034FE1F
:1039B0008046FFF74DF9002803D1404680BCB84649
:1039C000F0BDFFF74DF90028F7D1C8266E43BE19A8
:1039D000F378002BF1D0200000F0BAFD3F28ECD99D
:1039E0000020F178FFF72EFE0028E6D0200000F03E
:1039F000AFFD3F2808D9094BEA01D218F1784023DE
:103A00000020FFF747FED8E7F1780020FFF72EFEF1
:103A1000D3E7C0460C160020FFFF00008C150020E5
:103A2000F8B50600FFF714F9002801D10020F8BD11
:103A3000FFF716F90028F9D1C82474432500134F65
:103A40002435ED19280000F065FD0028EED03F195F
:103A50000020B978FFF7F6FD0028E7D00C4BF40101
:103A6000E41821002800402200F0D6FDB978051E98
:103A700008D0030022000020FFF70CFE0028D5D05C
:103A80002800D4E70020FFF7F1FDCFE70C16002057
:103A9000CC15002070B5C82444430C4B0500E41835
:103AA00080235B029A4200D3094A200092B200F0C0
:103AB0007BFE0600200000F02DFD3F2801D83000DD
:103AC00070BD2800FFF7ACFFF9E7C04630160020B4
:103AD000FFFF0000C82310B543430248181800F048
:103AE00037FD10BD30160020F0B51A4C83B0C82247
:103AF00000212000FEF7A0F9FF236371E1235B02A0
:103B00000025A360210008232000A3734022383140
:103B10000095073B103000F0C7FC27002100200073
:103B200026000D4B40221B7878315B07DB0F00939A
:103B3000B8370123243000F0B7FCC0363800FCF75A
:103B40004BFF3000FCF748FFE561276226636563A1
:103B500003B0F0BD0C160020381000200B4B196B81
:103B600000290AD01A6A002A0DD000221A621A63AC
:103B7000DA6100225A63012070471A6A002AFAD0DB
:103B8000D9611962F7E71A63F3E7C0460C16002003
:103B900070B5104D052200212800FEF74DF90E4C9E
:103BA0002378DA0709D50D4D9B070ED5217828001B
:103BB0004907C90F00F0D4FE70BD2800103000F096
:103BC000AFFE2378054D9B07F0D4280000F0A8FE37
:103BD000ECE7C0460C1600203810002030160020FC
:103BE000F0B54B79060083B0022B02D18B79022B02
:103BF00003D00025280003B0F0BD214FBB78002B77
:103C0000F7D18B7809253B700C780C196378242B3D
:103C10000BD1082A02D80FE0AA420DD32378E4186A
:103C20005D196378ADB2242BF6D0052B08D0042B98
:103C300002D163790A2B11D00020FFF751FED9E79A
:103C400021003000FFF7E2FC0028D2D0A3787B707F
:103C500023785D19E4186378ADB2E8E7094B27785B
:103C6000019301330093022202233000E119FFF790
:103C70007DFC0028BDD00E35ED19ADB2DCE7C046A5
:103C80000C1600200E160020F8B5602314001278E0
:103C9000050013400020202B07D1354A637927798E
:103CA00016781B023B439E4200D0F8BD6378222B5E
:103CB0001AD007D8202B38D0212BF6D1012942D099
:103CC0000120F2E7232BF0D1012944D00329F7D1B9
:103CD000284B002BF4D0E178A37809020020194387
:103CE00000E000BF0120E0E7012934D00329E7D13B
:103CF0000125A378E47824021C431F4B25401B7840
:103D000014715B072DD50121243269401000C9B21E
:103D100000F026FE194B002BD2D0A207002029006C
:103D2000D20F00E000BF0120BFE701290BD003291B
:103D3000C6D1134B002BC3D0083200201100FEF770
:103D40008BFA0120B1E70723210028000D4AFFF775
:103D5000DDFC0120A9E721002800FFF7C1FC0120BC
:103D6000A3E724321000002100F0FAFDD2E7C0469C
:103D70000C16002000000000381000200000000099
:103D80005922001014160020F0B54F464646D6467C
:103D9000364DC0B5EA781F0080460C00AB788A42E9
:103DA0003AD08B4210D00020E0BCBA46B146A846BB
:103DB000F0BD2F4B002B04D02E4800F0C1FB002893
:103DC00050D00020FFF78CFDAB78A34201D001203A
:103DD000EAE7294B002B02D0002000E000BF0020C2
:103DE000FFF71EFE0028F2D1244C200000F092FBC9
:103DF0000028ECD1002FEAD0BF06E8D1243C404691
:103E0000A178FFF71FFC0028E1D0002300224046E4
:103E1000A178FFF73FFCC7E710239A46184EAA4443
:103E200031005046BAB200F0BFFC164B002BC0D098
:103E30006B79FF2BBDD0002FBBD0F219914603E068
:103E40000136B145B5D06B7932789A42F8D15046F7
:103E500000F076FB0028F3D15346103B597900E07F
:103E600000BFEDE700E000BFABE7C0460C16002046
:103E7000000000001C16002000000000301600208A
:103E80008C150020000000009322F0B5134C85B083
:103E9000002120009200FDF7CFFF230020008026A4
:103EA00040270F4D4D337600FF33293002950093A4
:103EB00000220023002103970196FF3000F0E8F96B
:103EC0004035201D2834002301220021039702954C
:103ED0000196009400F0DCF905B0F0BDD018002088
:103EE0005018002010B5054C200000F007FA200003
:103EF0002538FF3800F002FA012010BDF819002023
:103F000070B5084C002520003130FF30257000F0DE
:103F100007FD20000C3000F003FD2A23FF33E55499
:103F2000657170BDD0180020F8B5CE46474680B503
:103F30004B7906000C00FF2B55D12A233C4FFF3351
:103F4000FB5C0D78002B4ED17B79002B4BD190463A
:103F50008B7888444D193B70A8450ED92B78EB1807
:103F600098450AD36B78042B07D00B2B05D0052B73
:103F700006D02B78ED18A845F0D8281B80B233E086
:103F800029003000FFF742FB00282CD0AB78DB097A
:103F9000012B2DD02A23FF339946FB5C002BE8D15F
:103FA00038003130FF3000F0BBFC4A46AB7894213A
:103FB000BB546B792A791B0213431E4A5B05944656
:103FC0005B0D63445A425341022049007A5C5B0016
:103FD000824313437B54390029313000FF3100F014
:103FE000F5F90028C5D10020C0BCB946B046F8BDDF
:103FF0007B79002BBDD138000C3000F091FCAB7800
:1040000002217B716B792A791B021343094A5B05F4
:1040100094465B0D63445A4253413A795B008A43AC
:104020001343391D00203B7100F09EF9A1E7C04603
:10403000D018002000FEFFFF70B505002A201F4C9D
:10404000FF30205C1E006379884203D000208B4241
:104050001DD070BD9A235B00E35A002B0DD1184B85
:10406000002B04D000201749B2B200E000BF2800A6
:10407000154900F0ABF90120EBE720009623313021
:104080005B00E158B2B2FF3000F08EFBE7E70F4B68
:10409000002B04D031040020090C00E000BF0C4CC0
:1040A0002800210000F060F90028E4D1320021004E
:1040B000280000F025F90120CBE7C046D0180020E9
:1040C0000000000050180020F81900200000000037
:1040D000D418002000B5030083B0002910D00020C0
:1040E000012B07D80A78002A04D00B48C2540120BB
:1040F000012A01D003B000BD1800FEF7B9FDF9E7B1
:10410000012301A900200B80FEF7B2FD0028F1D0A9
:104110000122014B1A70EDE728170020037870B5D3
:10412000DB0704000E00DD0F002B17D103785B07BF
:1041300001D5280070BD01213000494201F020FC6A
:104140002378DB07DD0F002B0AD123785B0708D427
:104150000422237801251343237002E00025E8E7B9
:104160000025300001F0E4FBE3E7C04670B50C0029
:10417000012106004942200001F002FC33785B0770
:10418000DD0F002B04DB200001F0D2FB280070BD06
:104190003378DB0704D40422337893433370F2E797
:1041A0000025F0E750B54479037924021C43C37815
:1041B00066059B07760D9B0F022B1DD0032B0CD0A1
:1041C0000020012B08D102394B4259411F4B9C461C
:1041D0006144B1424041C0B250BD02394B1E9941C9
:1041E0001B4B494219408023DB009C460020614460
:1041F000B1424041C0B2EFE7022912D0002A03D0F9
:1042000080239B009E4218D0202E10D8FF23DB0075
:104210001C4219D00F4B083EB6B2F34001201840A3
:10422000DAE70D4BF01843425841C0B2D4E73000F2
:10423000403843425841C0B2CEE7C13BFF3B037117
:10424000002343711000C7E70020C5E7FF0300000B
:1042500040FCFFFF0101000100FEFFFF8A1870B55E
:10426000914207D27F264C78052C04D00C7809198E
:104270008A42F8D870BD34008D782C40640004194F
:10428000ED0963550C7809198A42ECD8F2E7C0466B
:10429000F0B5C64600B582B0150008AA40CA0400B1
:1042A00017880BAA1288012090460A002178024044
:1042B00081432000114321703A0000933100012313
:1042C000083000F0F1F8002E01D0002F08D10A9B31
:1042D000012063604346638002B080BCB846F0BDF5
:1042E00026001C363000FCF777FB0023002D01D0A0
:1042F000330000266361A661E9E7C04601207047EC
:10430000F8B502240B7807001C4063425C41144B53
:1043100064421C40134B08009C4608300D001600F8
:10432000644400F0F7F8002807D1002E05D034428D
:1043300003D101242B781C4201D00020F8BD3800A5
:104340006978FFF77FF90028F7D02B781C42F4D169
:104350000023002238006978FFF79CF9EEE7C04699
:1043600040FEFFFFFF010000F8B50D000835060014
:1043700028000C0000F0CEF8002803D00127237895
:104380001F4201D00020F8BD30006178FFF75AF9D4
:104390000028F7D028006288616800F03DF9237892
:1043A000051E0BD01F42EDD103006268300061781A
:1043B000FFF770F90028E5D02800E4E71F42E1D1BB
:1043C00030006178FFF752F9DCE7C046F8B5CE4619
:1043D000474680B58A8905000C000B78002A07D172
:1043E00001261E423FD00020C0BCB946B046F8BDF1
:1043F0009B0734D5FE2380261B029946B600270072
:104400000837380000F0A4F88642ECD8012223785F
:1044100090461A42E7D128006178FFF713F9002887
:10442000E1D0380000F094F8864231D84146237834
:1044300062881942D7D14B461840061C904200D9D9
:10444000161CB6B200226178002E00D062683300DC
:104450002800FFF71FF90028C5D03000C4E7114B32
:1044600040269946CBE74978FFF7ECF80028BAD008
:10447000227863881642B6D100226178002B00D0E2
:1044800062682800FFF706F90028ACD06088ABE727
:10449000424623781A42A6D128006178FFF7E6F851
:1044A000A1E7C046C0FF0000F0B5C64600B5040055
:1044B00006A805788020884617001E000002824268
:1044C00026D8E068002803D00121494201F058FABB
:1044D0002069002803D00121494201F051FA4346E6
:1044E000236073045B0CED031D430023E0686381CC
:1044F000A780E5802381002801D001F019FA206906
:10450000002801D001F014FA012080BCB846F0BDAB
:104510000020FAE710B5048941898288A3B288B2E5
:104520008C4207D31B1A9BB2101C9A4200D9181C4C
:1045300080B210BD5100091A5B189BB2F4E7C04667
:1045400003894089181A43425841C0B27047C04697
:1045500010B5048941898288A3B288B28C4207D3FE
:104560001B1A9BB200209A4201D9D21A90B210BDF8
:104570005100091A5B189BB2F4E7C04670B50400FD
:1045800000690E00002803D00121494201F0F8F92A
:1045900025896089A288A9B283B285422CD3CD1A1D
:1045A000ADB2002D2ED0AA4208D2914230D3891A42
:1045B0008BB263819A4203D89B1A9BB29A42FBD971
:1045C000E28821685204520C53433000C918FDF7A9
:1045D00039FC63890125591C89B2A2888B4213D901
:1045E00000215200891A89B220696181002801D016
:1045F00001F09EF9280070BD5500ED1A4D19ADB2BD
:10460000002DD0D1618989B252009142ECDBE9E7FB
:1046100089188BB26381CDE7F0B546464F46D64642
:10462000C0B50600006989469046002803D00121E4
:10463000494201F0A5F931897289B5888BB294B2EB
:10464000914254D31F1BBFB2002F4AD0BD4205D2A6
:10465000AB4251D25B199CB22F0074814346B845DE
:104660003DD89FB2A54203D8641BA4B2A542FBD992
:10467000F28831685204520C904662432B1B9BB265
:10468000891842469F4225D953439BB21A00484697
:104690009A46FDF7D7FB434648467D1B64195C43A9
:1046A00031685044A2B2FDF7CDFB7189B588CB19B2
:1046B0009BB26A00994216D99B1A9BB230697381EA
:1046C000002801D001F034F93800E0BCBA46B14608
:1046D000A846F0BD48467A43FDF7B4FBE5E73B1C2E
:1046E000BFE773899BB26A009342E7DBE4E76F00A0
:1046F0003F1BDF19BFB2A7E75B1B9CB2ACE7C0460C
:10470000F8B50400C0680E00002803D0012149421A
:1047100001F036F9258920896189A288ADB283B27A
:104720008FB2884229D3DB1B9BB29A4209D8E77922
:10473000FF0906D1E068002801D001F0F9F838003F
:10474000F8BD95421ED32B009B1A9BB29342FBD21D
:10475000E28820685204520C53433100C018FDF720
:1047600071FB6B1C9BB2A2889D4218D9002352009A
:104770009B1A9BB201272381DCE75100C91B5B1800
:104780009BB2D2E72B00E28820685204520C5343BC
:104790003100C018FDF756FB0135A288ABB25200BC
:1047A0009342E7DBE4E7C046F0B557464546DE46B0
:1047B0004E46E0B5140005000F0083B0002A75D006
:1047C000C068002803D00121494201F0D9F82E89A0
:1047D000E9796A89AB88B6B292B2C90945D19642E5
:1047E00000D36DE059008A1AB21892B200218946AE
:1047F0009A4234D29A1A111C92B2A24200D9211CB8
:104800008AB29146EA885204520C90464A46B2183F
:1048100092B292464A46D21A92B2934634009E42CF
:1048200003D3E41AA4B29C42FBD2424662432868F6
:104830001B1B9BB2801842464B4554D34B46390054
:104840005A43FDF7FFFAAB885B00564501D89A45FD
:1048500003DB5246D31A9BB29A4653462B81E86833
:10486000002825D001F064F822E0E9884904490CC9
:1048700088469C4227D2964247D3B11A89B28C46C9
:104880005800E11A89B28B4661460919814208DB5A
:10489000D11889B20E1BB6B28A46B2423BD9361A3B
:1048A000B6B2A21992B29246A146B7E70023994642
:1048B000484603B0F0BCBB46B246A946A046F0BD90
:1048C000B21A92B292E700218946002BC7D0414626
:1048D000E41A4C431600D118002289B28A46994640
:1048E00093463F199AE753439BB21A0039005C4440
:1048F0000193FDF7A7FA414622004A43019B28682D
:1049000092B2F918FDF79EFA9DE75800811A7118C6
:1049100089B28C46B5E7A146B04200DD7EE7BEE72E
:1049200010B50400C068002803D00121494201F0FD
:1049300027F82069002803D00121494201F020F81E
:104940000023E06863812381002801D000F0F0FF9C
:104950002069002801D000F0EBFF012010BDC04607
:10496000C37970B5DB0904000D008B421DD0C0680F
:10497000002803D00121494201F002F820690028F3
:1049800003D00121494200F0FBFF7F23E279ED01D2
:104990001340E0682B43E371002801D000F0C8FF0A
:1049A0002069002801D000F0C3FF012070BDC0467F
:1049B000F0B5C646431E00B50A3314D807230400D9
:1049C0001A000834224023426CD01300093BA34252
:1049D00009D31030841A00F0C9FC374A2700156843
:1049E000002D28D10EE000F0C1FC334A1368002BE3
:1049F00006D0002500F0C2FC280080BCB846F0BDFF
:104A00000027002407202D4D2B002900284245D1E6
:104A100000202B4E706031602A4EB4460726654454
:104A2000B5431560284AEB1A1360284A686028606D
:104A300013604B600D60002FDBDD244F3E68A64203
:104A4000D7D31F48036804E01A68002A04D018006E
:104A500013005968A142F7D3AB42CAD01D001A68AF
:104A60000835904602600A1B102A05D919194A60B8
:104A700042460A6001602100134A761A10683E60BF
:104A8000864200D21660802212060A435A60002233
:104A90001A600F4A136801331360ABE7EB1D8343C1
:104AA0001900B5E700F062FC034A27001568002DE5
:104AB000A8D0002CC1DA9CE7B820002058230020A1
:104AC000B0230220F8FF0100882302208423022063
:104AD000942302208022044B52051A60BFF34F8FAB
:104AE000BFF36F8F7047C04604ED00E072B6044A12
:104AF000136801331360BFF34F8FBFF36F8F70479D
:104B00006C230220034A1368013B1360002B00D181
:104B100062B670476C230220EFF3108072B67047C4
:104B200080F310887047C046D02310B51B06186864
:104B3000074B1B78834200D010BDEFF30583002B99
:104B400002D05B00C018F7E700F0F4FDF4E7C046C0
:104B50003910002010B503000268154882B00478AF
:104B6000D02000060068844208D0BFF35F8F002386
:104B7000136081F3108820BF02B010BDBFF35F8FB8
:104B80000020106081F310880A4A1B6810680A4AE6
:104B9000944663449A105C2B00D9183A01230121F2
:104BA0005B42914000930122002300F00FF9E3E7FC
:104BB000391000208023022000FFFF2F2D4A30B53E
:104BC000944603680C00634483B099105C2B00D9B1
:104BD00018390122284B8A401978D0231B061B68FC
:104BE00099421FD040BF254D036829688B4235D0BC
:104BF0000B68002BFCD0BFF35F8F21490B68134378
:104C00000B602B68BFF35F8F00221A600368D0210E
:104C1000002209064A65BFF35F8F1A6084F310888B
:104C200003B030BD40BF0368BFF35F8F0021196040
:104C300084F31088EFF30583DBB2002B13D0114B04
:104C400001911148196801AB00F0B8FD019B002BE0
:104C5000E6D080220D4B52051A60E1E70848016852
:104C600011430160D3E7074B1100186800F00AF9FF
:104C7000D6E7C04600FFFF2F39100020AC200020EF
:104C80007023022080230220214F001004ED00E059
:104C9000F0B5CE46474680B51D00364B14001A7855
:104CA000D0231B061B688046894683B09A420FD0EA
:104CB0000368BFF35F8F00221A6081F31088200021
:104CC0002900FCF731FA03B0C0BCB946B046F0BDCC
:104CD000FCF7B8FA26002F000123361A8F41264A26
:104CE0005B42B6185F41002F20DC1BD043461B6897
:104CF000BFF35F8F00221A6089F310881F4B5A6A36
:104D0000954205D89B6A0120A342DCD29542DAD1B4
:104D100080221B4B52051A60BFF34F8FBFF36F8F7A
:104D20000020D0E7FA239B009E42DFD3FA22002323
:104D3000300039009200FCF79BFD031ED6D042469E
:104D40001268BFF35F8F0021116089F310880D4A4C
:104D50000D49106842468C461268624496105C2ADF
:104D600000D9183E01210093B1400023012200F038
:104D70002DF8C3E73910002018FCFFFF0040054064
:104D800004ED00E08023022000FFFF2F10B5FBF7A9
:104D9000E7FB054A054B944660448000186000F02C
:104DA00009F8034B186010BD40000034AC2000200F
:104DB0008023022010B51820FFF7FAFD041E03D04F
:104DC000002308C000F0F4F8200010BDF0B5C6467E
:104DD000060000B50D0090461F0000F0C7FA3468C9
:104DE000002F13D125420BD04346002B0BD02300BC
:104DF000AB43336000F0C2FA200080BCB846F0BD7F
:104E0000069B002B21D100F0B9FAF5E72B002340D7
:104E10009D42E9D0069B002BF5D0434680215A1EC7
:104E20009341C9041B061943069A2943301D00F01B
:104E30006FFB00F0A3FA00281CD000F0B3FC0400C4
:104E4000830107D52402240AD6E741464B1E994127
:104E50000906E9E7FFF74AFE3468002F0DD12C421E
:104E600005D04346002B02D02300AB433360FFF74D
:104E700049FEE7E7FFF72EFEDFE723002B409D42C8
:104E8000F5D1EEE7F0B5DE4657464E4645460400FE
:104E9000E0B583B00D000600019000F067FA220033
:104EA000136824690C361D4337001560A6422BD0C9
:104EB000002399468023DB04984680235B049B46AD
:104EC00080239B049A460FE000290BD059460A42E2
:104ED00002D04A461A4391465146294300F0E0FB6E
:104EE000019B1D68A7420DD020002900464602689C
:104EF000646813021B0A19403242E5D08B42E5D0A8
:104F0000A742F1D14B469D43019B1D6000F036FA4C
:104F1000280003B0F0BCBB46B246A946A046F0BD8F
:104F2000F8B5DE4657464E464546E0B505000F004B
:104F3000060000F01BFA29682C6939430C362960F9
:104F4000A6422CD0002398468023DB049B46802376
:104F50005B049A4680239B0499460FE06746002F26
:104F60000AD057463A4202D042461A4390464B4630
:104F7000194300F095FB2968A6420ED020000F00CF
:104F80000268646813021B0A1F40BC465F463A422F
:104F9000E4D06345E5D0A642F0D143469943296069
:104FA00000F0ECF9F0BCBB46B246A946A046F8BDFD
:104FB0000300083301224360C360036100235242AF
:104FC000826003607047C046030030B50D68083347
:104FD0006A1C0DD01C005B681A68AA42FAD94B60A3
:104FE000996003688C60013361600861036030BDC3
:104FF00004696368F3E7C0460369416882688A60B0
:1050000051605968814205D0002202611868013858
:10501000186070475A60F7E7F0B5C64600B5846C73
:1050200082B0A26BE36B002501909A4204D3280062
:1050300002B080BCB846F0BD4523226CE65CA76B8D
:1050400076B2002A1CD0606801A9FCF7FBFE6368F9
:10505000226C9B18A2686360934201D3236863604B
:1050600000250137A763731C15D1636A002BDED0BE
:105070002000243000F0AEFA0028D8D00125D6E771
:1050800023689846002BEBD1A06800F059FB4346FB
:105090000500A360E5E700F035FA8642C7D2452354
:1050A000013676B2E654C2E7F8B54E46DE465746BC
:1050B00045460400E0B591461D000F00FFF72CFDAA
:1050C000A26BE36B06009A422DD300239846022D73
:1050D00009D03000FFF724FD4046F0BCBB46B24685
:1050E000A946A046F8BD4533E35C226C5BB2984606
:1050F000A36B9B46A36B9A46002A3BD15746236875
:1051000001379A46002B63D04346A763013327D16A
:10511000A36C002B42D0022D4AD15B46002B47D016
:1051200001239846D5E74523E35C226C5BB29846A1
:10513000A36B9B46A36B9A46002ADFD0002D19D1A2
:10514000390057466068FCF77DFE6368226C0137C2
:105150009B18A26863609342D6D323686360D3E749
:1051600000F0D0F98045DBD24346452201335BB2E3
:10517000A354D5E73900E068FCF764FE226CE368CD
:1051800051429B1A2268E360934202D2A3685B18E3
:10519000E3605746022D17D00137B5E7636A002B4D
:1051A000BED02000243000F015FA002805D1B7E762
:1051B0002000FFF731FF0028B2D04B46002BAFD0C4
:1051C00001234A461360ABE7002F9DD101379BE7CF
:1051D000A06800F0B5FA5346A36095E7F0B5DE4647
:1051E00057464E464546584BE0B51A6883B00132E3
:1051F00094461A60002A5ED0544B1A6894456ED3C8
:10520000534A904612681268002A00D195E00022A5
:105210000092504A504D9346002291464F4A0193C6
:10522000924636E0494659611168013911609A6A1F
:10523000002A0DD0D969186A566888604160190043
:1052400018318E426FD04946996211680139116058
:105250005246D96A1268914201D9524611608A00B9
:1052600052189200AE18706887689860DF607C60A2
:1052700084605E61AB580133AB505B461B68DB6AF0
:10528000994201D90123009343461B681B68002BF8
:105290004ED043461B68DB68DB685A68944544D3AC
:1052A0005A699868D9681C1D816048605068A0429E
:1052B000B8D15160B6E7264B294A196810681860C2
:1052C000116028490A6801320A601A681268002AC7
:1052D00023D11E4B013A1A601A68944590D20023DC
:1052E00000931C4B1C4D9B465B461B68DA6A93007F
:1052F0009B189B00EB58012B01D9012300931A4BFB
:105300001B68002B01D001230093009803B0F0BC70
:10531000BB46B246A946A046F0BD1B68DB681A68CA
:105320000A4B1A6069E750608DE7019B1A60DBE762
:10533000019B012252421A60D6E700220092054AE0
:10534000054D9346F5E7C046CC2302208C2302206E
:10535000B4200020B0200020C02000207C230220A8
:10536000BC20002090230220D4230220024A13688C
:10537000013313607047C04678230220F0B5DE4643
:1053800057464E464546E0B583B0FFF7AFFB534C5A
:105390002368013B23602368002B00D081E0504B41
:1053A0001B68002B7DD04F4B9C461B68002B00D107
:1053B00090E04D4B4D4D98464D4B019499464D4BC9
:1053C0009A4600239B466346DB68DB68D869196A06
:1053D0009A6A81604860180056681830864200D189
:1053E00072E0594699621168013911605A699868EA
:1053F000D968566881604860181D864262D011687D
:10540000013911604146DA6A09688A4201D9414688
:105410000A60910089188C002E1971688F68996054
:10542000DF60786088605E612B5901332B514B46F9
:105430001B68DB6A9A423FD9534601221A606346D1
:105440001B68002BBFD12C4B019C1A681268002AE4
:105450003CD01B68DB681A68284B1A60284E3568F8
:10546000002D14D0012708E0FFF7B8FE002801D076
:1054700053461F60013D002D08D02368002BF3D058
:105480003368013D01333360002DF6D1356053465A
:105490001B68002B05D0164B01241B68FFF71AFB75
:1054A00000E00024FFF72EFB200003B0F0BCBB4659
:1054B000B246A946A046F0BD63461B68002B00D04B
:1054C00081E7C0E751609AE751608AE70B4B013AE8
:1054D0001A60C3E7074B9A46C0E7C046782302200C
:1054E000742302209C2302207C230220C020002061
:1054F000B0200020D4230220B42000208C230220DE
:1055000098230220014B18687047C046742302207C
:105510008023F0B5C646294C15001B0622680B43B4
:1055200000B59361226843689968D361226811626B
:10553000226818324A602268002118329A60236873
:1055400098620368013303601D4B1E681D4B1F6882
:105550001D4B1B682268984651232068D1540430A3
:10556000FFF74AFD6B1C15D023682168AD195D60FB
:105570000431AE4205D94046FFF726FD80BCB8464F
:10558000F0BD3800FFF720FD104B1A689542F5D2A8
:105590001D60F3E70E4B21685A688A6090682168A5
:1055A000C86021680431416021680431916022683B
:1055B00053611A6801321A60E0E7C046B02000204B
:1055C000CC230220B4200020BC2000208C23022009
:1055D000B8230220C368F0B5DB68D869196A9A6AF3
:1055E00081604860180054681830844241D000211E
:1055F0009962116801391160234AD96A1268002A38
:1056000029D15A699C68D8681D1DA06044605468FF
:10561000AC4230D01068013810601C4A10688842D3
:1056200025D38A001A485218920086187468A76811
:105630009C60DF607D60A5605E61835801338350AC
:10564000144B00201B68DB6A8B4203D20122124BF1
:1056500001301A60F0BD114A5468A568DC611D6212
:105660006860A0609A62136801331360E8E7116014
:10567000D7E75160BBE75060106801381060034AFB
:1056800010688842CDD2F2E7782302207C230220E2
:10569000C0200020B0200020D42302209C23022020
:1056A00080231B06F0B5026944680B4381680360E0
:1056B000C368A1604C60546884422ED0002101610F
:1056C00011689868013911605A69D9681D1D816097
:1056D00048605068A84222D0116801391160114A0F
:1056E000D96A1068814200D911608A000E485218A8
:1056F000920086187468A7689C60DF607D60A56072
:105700005E61835801338350084B1B68DB6A994202
:1057100002D90122064B1A60F0BD5160CEE75160FC
:10572000DAE7C0467C230220C0200020B020002001
:10573000D4230220014B18687047C046B0200020D7
:1057400070B5041E08D0836CC16A426C013B83644F
:10575000914201D0002B01D0002070BD051D280012
:10576000FFF74AFC2023626C9B1AA3610B4BE26299
:1057700019688A4200D91A60930009499B189B0056
:10578000C81842689668A260E66075609560CA585D
:10579000606101320120CA50DFE7C0467C2302204D
:1057A000C0200020044B1A68196890691A682023E9
:1057B000C96A5B1A93617047B020002010B51400CD
:1057C0001A00022384B05B420093054B01900291C2
:1057D0001868694600230394FFF766FC04B010BD07
:1057E000D023022010B5010000230022002000F089
:1057F00043F810BD10B583070AD00300032102E06F
:1058000001330B4205D01A78002AF9D1181A10BDBD
:10581000030019680C4A0D4C8A188A4322420FD1A2
:105820005968094A04338A188A43224208D15968C0
:10583000054A04338A188A432242F1D000E001333A
:105840001A78002AFBD1E1E7FFFEFEFE808080800F
:1058500070B5074C074D641BA41005D0013CA30094
:10586000EB589847002CF9D100F04EF870BDC046B7
:105870001C5A00101C5A0010F0B5C6461A4C00B550
:105880002568002D2AD06C681F2C2ADC002808D13E
:105890000020631C0234A4006B60615180BCB846D8
:1058A000F0BD8827A600AE19F2510137FF37BC467C
:1058B0000122AC446746A2403F68904617436246C7
:1058C000176084277F00F3510228E1D12800424667
:1058D0008D30FF30036813430360D9E7034D256023
:1058E000D1E701204042D9E784150020F4130020BD
:1058F000034B10B5002B02D00248FFF773FF10BD19
:105900000000000051580010F8B5C046000000002B
:1059100001B40248844601BC604700BF850B0020EB
:1059200001B40248844601BC604700BFAD020020BC
:1059300001B40248844601BC604700BF1902002040
:1059400001B40248844601BC604700BFCD0E002070
:1059500001B40248844601BC604700BF6D030020CB
:1059600001B40248844601BC604700BFCD0E002050
:1059700001B40248844601BC604700BFC10000205A
:1059800001B40248844601BC604700BFA101002069
:1059900001B40248844601BC604700BF01010020F9
:1059A00001B40248844601BC604700BF3D0C0020A2
:1059B00001B40248844601BC604700BFAD0B002023
:1059C00001B40248844601BC604700BFED0B0020D3
:1059D0009D160010C916001015180010291E001081
:1059E000951C0010991D00103D170010E5160010C1
:1059F0000517001019170010850900102117001055
:105A0000450D001065160010B9050010F158001082
:0C5A1000FD020010312700108D4D001029
:105A1C00426F6D6261204C494741444100000000D7
:105A2C00426F6D6261204445534C494741444100EB
:105A3C000A2A2A2A2050414E4943202A2A2A0A009F
:105A4C000A0000004E6F207370696E6C6F636B738D
:105A5C002061726520617661696C61626C65000021
:105A6C004E6F2075736572204952517320617265B7
:105A7C0020617661696C61626C65000048617264DA
:105A8C007761726520616C61726D20256420616C98
:105A9C00726561647920636C61696D6564000000F6
:105AAC0048617264206173736572740052656C6531
:105ABC0061736500626F6F74325F773235713038A5
:105ACC0030000000322E312E310000007069636FFF
