:020000041000EA
:1000000000B5324B212058609868022188439860DF
:10001000D860186158612E4B002199600221596106
:100020000121F02299502B49196001219960352056
:1000300000F044F80222904214D00621196600F024
:1000400034F8196E01211966002018661A6600F04E
:100050002CF8196E196E196E052000F02FF8012189
:100060000842F9D1002199601B49196000215960AB
:100070001A491B48016001219960EB211966A021F2
:10008000196600F012F800219960164914480160C1
:100090000121996001BC002800D000471248134993
:1000A000086003C880F30888084703B5996A0420EC
:1000B0000142FBD001200142F8D103BD02B5186610
:1000C0001866FFF7F2FF186E186E02BD00000240BE
:1000D000000000180000070000035F00212200005C
:1000E000F4000018222000A00001001008ED00E03C
:1000F00000000000000000000000000074B24E7A12
:1001000000200420F7010010C3010010C5010010F9
:10011000C1010010C1010010C1010010C101001097
:10012000C1010010C1010010C1010010C701001081
:10013000C1010010C1010010C9010010CB01001065
:10014000CD010010CD010010CD010010CD01001037
:10015000CD010010CD010010CD010010CD01001027
:10016000CD010010CD010010CD010010CD01001017
:10017000CD010010CD010010CD010010CD01001007
:10018000CD010010CD010010CD010010CD010010F7
:10019000CD010010CD010010CD010010CD010010E7
:1001A000CD010010CD010010CD010010CD010010D7
:1001B000CD010010CD010010CD010010CD010010C7
:1001C00000BE00BE00BE00BE00BE00BEEFF3058054
:1001D000103800BEF2EB8871D8740010F87400106B
:1001E0003802001090A31AE71E481F49086006C88D
:1001F00081F3088810471D480068002801D019487D
:10020000F3E70DA40ECC002902D000F012F8F9E7B4
:100210001749184A002000E001C19142FCD116495B
:100220008847164988471649884700BEFDE701C937
:1002300001C29A42FBD37047F8740010C00000203E
:100240004C100020848400100000042000000420D2
:10025000848400100010042000100420000000001E
:10026000704700000000000008ED00E0000000D032
:100270004C100020C024022021230010D1030010C4
:1002800019230010F8B5C0460448054B10B5834249
:1002900003D0044B002B00D0984710BD4C10002019
:1002A0004C1000200000000006480749091A8B1076
:1002B000C90FC91810B5491003D0044B002B00D04A
:1002C000984710BD4C1000204C100020000000008A
:1002D00010B5074C2378002B09D1FFF7D5FF054B4C
:1002E000002B02D0044800E000BF0123237010BDA2
:1002F00018140020000000005C700010054B10B5C1
:10030000002B03D00449054800E000BFFFF7CCFFF5
:1003100010BDC046000000001C1400205C700010DE
:100320000023012200B585B0019311330293D0233D
:1003300082401B065B6802A913405A425341039353
:10034000074B01AA1868002305F03CFB019B002B1A
:1003500003D08022034B52051A6005B000BDC04691
:10036000D420002004ED00E070B5D02501260B4C10
:1003700082B02D06012269462068524205F0BCFB7E
:100380000028F7D03200009B9A401300019A012AFE
:1003900001D16B61EEE7AB61ECE7C046D4200020F1
:1003A00010B5040000F0FEF90123D022A34012068C
:1003B000200093620121002200F078F901220C2133
:1003C0002000024B00F086F910BDC046210300104A
:1003D00000B583B002F0A4F8112000F0E3F9D023B7
:1003E00080221B0692025A620F209A61FFF7D8FF03
:1003F000002208210A2005F097FA0B4B186000280C
:100400000DD000238022019301330849009352004C
:100410000023074805F0CEFE05F0DEFEFEE70548A6
:1004200002F0CEF8FEE7C046D42000207470001021
:10043000690300105C700010D0231B061B68974AEC
:100440009900F0B54E46894651585A4253412F22E1
:1004500057464546DE465B4293439846904BE0B58F
:100460009C4683B000270191E044002939D08D4B90
:100470000F269B464246FB0808339B009C580123ED
:100480003D009A460837002C22D0310021402642F8
:1004900018D05B464A469A582B00EA40203BDB17AF
:1004A0001340524613420DD1072208002A40920001
:1004B00090400200EB087C483C339B001A50280017
:1004C000019B984724090135002C01D0BD42DCD3A3
:1004D000202FCFD103B0F0BCBB46B246A946A04600
:1004E000F0BD704B00200F229B46C60833004146EA
:1004F00008339B005B5801000830002B00D1B2E0AC
:1005000017001F40BC461A420FD04C465D460F00F4
:100510002C59203FCC40FF1727400124274204D10B
:100520006446614F3C36B600F4511E0900D19AE092
:1005300017003740324213D04C1CA4465D464C464F
:100540002C5965460E00EC401F3EF617264001244C
:10055000264205D1EE08544C3C363F01B6003751D7
:100560001E0A00D17FE017003740324213D08C1CA6
:10057000A4465D464C462C5965460E00EC401E3E96
:10058000F61726400124264205D1EE08464C3C369B
:100590003F02B60037511E0B65D01700374032427C
:1005A0000DD0CC1CA4465D464C462C5965460E0029
:1005B000EC401D3EF61726400124264257D01E0C63
:1005C00051D014003440A44632420BD04C46354E34
:1005D0000F1D3659FE40B2460E0054461C3EF60F23
:1005E00026424BD01E0D3ED014003440A446324269
:1005F0000BD04C462B4E4F1D3659FE40B2460E00D6
:1006000054461B3EF60F264240D01E0E2BD014003F
:100610003440A446324212D04C46224E8F1D3659E9
:10062000FE40B2460E0054461A3EF60F264206D150
:100630006446FE083C3627061B4CB60037511B0F9C
:10064000CF1D002B0FD04C465D462E590124FE4095
:100650001939C9173140214205D1F908124E3C31F0
:100660001B0789008B51202800D03EE732E7EE08B7
:100670000D4C3C363F03B6003751A0E76446FF08F7
:100680003C37BE00084F2404F451ABE76446FE0833
:100690003C362705044CB6003751B6E75C1C0020F9
:1006A000304101409423002000400140074B80006E
:1006B000C3181B68C90092000A435A400C23134018
:1006C000034A9446604403607047C04604C001403A
:1006D00004D00140F8B545469846D0231B06DE46B7
:1006E0001C689B462B4B57469A46A3004E4699469C
:1006F000E0B5534616004A469B5807000D00002BF4
:1007000034D04346002B3FD053464A464146995089
:10071000D0231B061C6863425C412F2207206342E2
:1007200093431D4A38409446FA08110080008540E2
:100730003C311A486344890092000D509B18002EEA
:100740000ED0802292019446634401210D201D6049
:1007500000F01AF9F0BCBB46B246A946A046F8BD67
:10076000C0229201944663441D60F3E74346002B88
:10077000D1D0534641460D2099500022084900F03F
:1007800065F95B461C68C6E70D20054900F058FA7C
:10079000BAE7C0465C1C00203041014000400140E7
:1007A000390400100123D022834012069362936122
:1007B000094A83009A1811684022514080320A4049
:1007C0000649C0008C4663441A60054B9C460523CD
:1007D000604443607047C04604C0014004D00140FB
:1007E000004001408023DB051868000F7047C046B9
:1007F0000FB400B5084883B001F0E2FE049B002B63
:1008000007D005A91800019101F06CFD034801F023
:10081000D7FE012001F07EFD7C7000108C7000106E
:1008200010B50148FFF7E4FF9070001070B5EFF3CA
:10083000108C72B60D4D2B68002BFCD0BFF35F8F70
:100840000724CB08C618C05C01230C40A3401C0041
:100850000440034207D118433070BFF35F8F2C6010
:100860008CF3108870BD1000FFF7C2FF2C0100D080
:10087000F8B54746CE46884680B5EFF3108C72B681
:10088000214D2C68002CFCD0BFF35F8F9A422CD8EE
:10089000D4080727055D061901241740BC402C42E7
:1008A0001FD007210127894609E0D408055D0619F4
:1008B0004C4639001440A1400C00294211D00132AD
:1008C0009342F2D201204042BFF35F8F00220E4BD1
:1008D0001A608CF3108800280FDBC0BCB946B04604
:1008E000F8BD254310003570EEE7BFF35F8F00239E
:1008F0002B608CF31088012040424346002BECD043
:100900000898FFF775FFC0462C0100D0044A107804
:10091000431CDBB2172B00D9102313707047C0465D
:10092000700F002010B5064B064C82B001000093FA
:1009300018221F232000FFF79BFF02B010BDC04606
:10094000A07000106C1C00200021044B044ABFF36F
:100950005F8F02C39342FAD17047C046000100D0B6
:10096000800100D0054B064A1360064A13605360AD
:100970009360D3601361536193617047808080807E
:1009800000E400E004E400E01F2318401E3B834025
:10099000002905D0C021044A490053501360704714
:1009A000802201498B50FAE700E100E001228240F9
:1009B000034B1B6813405A1E9341D8B27047C04680
:1009C00000E100E001238340014A13607047C04604
:1009D00000E200E0064B10309B688000C358054AD7
:1009E00000209B1A2F229A424041C0B27047C04655
:1009F00000ED00E0740F002070B50D00EFF31086DD
:100A000072B60F4A1368002BFCD0BFF35F8F0D4BFB
:100A100010309B6884001B590B4A934203D09D42BF
:100A200001D001F063F8074B9B681D51BFF35F8F46
:100A3000BFF35F8F0022024B1A6086F3108870BDEF
:100A4000240100D000ED00E0CD010010F0B55746C4
:100A50004E46DE464546E0B585B0060000911700DB
:100A6000EFF3108B72B66A4A1368002BFCD0BFF309
:100A70005F8F0025674B5D579A46002D00DAA9E08D
:100A80006B00654C01935B199B009846A146C144DD
:100A90004B4652469B7910361370604BB6009B68EC
:100AA00099590B1B2F2B33D95D4B994200D0ACE0E9
:100AB000019B42469C465B4B6544AD0063535A4BD9
:100AC0000232A218043B9B1A1B05584A5B0D65199C
:100AD00013436B80564B0121AB80FF23AB71009B0E
:100AE000EF71AB604B460B4319004C4B9B6899511F
:100AF000BFF35F8FBFF35F8F0022454B1A608BF30C
:100B0000108805B0F0BCBB46B246A946A046F0BD71
:100B100001200A008243D3798C46BB4231D8454636
:100B2000130044491B1B5B415943090D3D4B635363
:100B30003D4B02356519043B5B1B1B053B4D5B0DB3
:100B40002B43AA464D466B800425AC465546E044EF
:100B5000131F44441B1B1B055B0D1D434B46997122
:100B600000999D8099604946DF71334B01431360C2
:100B7000BBE75800C01880002018C179B9422FD9AE
:100B800002000623D356002BF3DA02932B4B614667
:100B90000393131D9A4604235B429C46E14450464E
:100BA0004B461B1A1B055B0D9C46204B95719846C6
:100BB0006346404603439380019B5A199200039B6E
:100BC000A418A380029B1C4AA371009B2260E771BA
:100BD000A3608AE700F08AFF002553465D574FE780
:100BE000908802934005131D9A46031561469C4662
:100BF0004046D444634604302018181AE023000508
:100C0000400D1B0218430390C5E700F06FFF4FE74C
:100C1000240100D0B8240220740F002000ED00E071
:100C2000CD01001000A1FFFFA40F002000E0FFFF96
:100C300001BDFFFFAAAA00000148804701BD0000D6
:100C4000F0B5DE4657464E464546E0B50C0083B04B
:100C5000EFF3108872B6634A1368002BFCD0BFF321
:100C60005F8F614B61499A68030010339F00D5592B
:100C700000938D4243D0A54254D05D4EAA1B2F2A2B
:100C80003DD85C4B9C461B689A4601231A00994646
:100C90008240534613401F2201934B46024093402B
:100CA0009A468022634650469850BFF35F8FEFF319
:100CB00005839B46002B37D0009B5B4501D000F09D
:100CC00015FF2A004B469A439068844208D177E08A
:100CD0004B005B189B00F3189868844236D01A00CA
:100CE000062151560029F3DA844255D0019B002B8E
:100CF00027D0C02251463F4B5200995019603A4BC1
:100D00009B68DD51BFF35F8FBFF35F8F0022354BD0
:100D10001A6088F3108803B0F0BCBB46B246A946FF
:100D2000A046F0BD0D00EAE72A004B469A439068C2
:100D30008442D5D106201056130000280ADA0D008F
:100D400032E0802351462B4AD150D8E7062018566E
:100D5000002822DB42001118890074188946A16816
:100D60009960E179D971062161569971002925DBD5
:100D7000A488F11A640524154C440919E0240905D6
:100D8000490D24022143998013181B4A9B001178B6
:100D9000F31899711070A9E713005946002914D16E
:100DA000FF3191711549918013490A789A71144A5B
:100DB0009B1B5B415A43120D0A7097E71149E2E70A
:100DC0000620105613000028C4DA0F4A0F49D21A21
:100DD000083A5002400D014399800D4952080A43D8
:100DE000DA8083E7240100D000ED00E0CD0100109F
:100DF000740F002000E100E0B824022001BDFFFFD5
:100E0000AAAA000001BD0000AE0F002000F0FFFF05
:100E100000F8FFFF10B58308040003202040FF24E2
:100E2000054AC0009446844081409B0063441A6890
:100E3000A2430A431A6010BD00E400E070B501242B
:100E40000443EFF30581EFF3108C72B6214A136867
:100E5000002BFCD0BFF35F8F1F4B05001F4AED1A1C
:100E60006D416A43120D1E4D8900AE6852B276582C
:100E7000A6421CD00621595691421CD01221595627
:100E8000914222D01E215956914220D02A215956F2
:100E90000324914210D0134B19781A708171BFF35B
:100EA0005F8F00220B4B1A608CF3108870BDAB680B
:100EB0000D4C5C50EFE700246100091989005B18B4
:100EC000FF21997109499980E5E70124F4E702249B
:100ED000F2E7C046240100D0740F0020AAAA000047
:100EE00000ED00E0B8240220CD01001001BDFFFF9D
:100EF00010B5084B084C82B0010000930022052376
:100F00002000FFF7B5FC002801DB1F23181A02B0F0
:100F100010BDC046BC700010BC240220024B9C4691
:100F2000614489000160704740000034F8B5124CFC
:100F3000124DAC4212D20126002776422368002BC4
:100F40000DD0FFF7E3FC01002000FFF7E7FF66602C
:100F50002772BFF35F8F0C34AC42EFD3F8BDFFF7BD
:100F6000D5FC01002000FFF7D9FF6660BFF35F8F5B
:100F70000834AC42E2D3F1E73C1000204C100020D2
:100F800010B50400FFF7C2FC01002000FFF7C6FF08
:100F900001235B426360BFF35F8F10BD10B5040097
:100FA0000120FFF7BFFC034BC3189B002360BFF376
:100FB0005F8F10BD40000034034B9C4661448900A4
:100FC0000160BFF35F8F704740000034F0B5DE462C
:100FD00057464E464546E0B583B0EFF305820323FE
:100FE0001340B54A990052580091904601229A4008
:100FF0009346B24B1A60B24B01935B46B1484363D0
:10100000434608229B5E9946002B3ADA43469B886A
:101010001BB2002B00DB9DE043469B79002B00D0E8
:10102000E1E0434608241C5F002C20DB43465A695C
:1010300063001B19DB00D3189D68DC686B1C00D1B2
:1010400003E1A048009984466144826A0B69AE1AA4
:101050009B1A9E4213D35A46036A1A420FD09948EC
:1010600000F03AFB8C4202DCC7D18542C5D940BFB3
:1010700003B0F0BCBB46B246A946A046F0BD0D6128
:10108000EDE7424652695B0092464B44DB009A44CE
:1010900053469E68DF6800F01FFB8F42B6DC00D12C
:1010A000F8E0002F00DAD9E05246534654691B6934
:1010B000019A934200D1CCE0414652460820085E96
:1010C0005288000421001043984704000D002300BB
:1010D0002B4300D1C2E0002D00DBDFE030003900FF
:1010E000001BA94153469860D96000229A5E002AED
:1010F00000DA8BE743465D6953009C18E4002C1925
:10110000A768E4688C4200DD80E702D1874200D9FD
:101110007CE74646328108360DE08C4200D1C6E0BD
:101120001E000023F25E002A0ADB53009C18E40034
:101130002C19A768E4689B18DB00EB188C42ECDDE7
:1011400053461A804B46338043469B881BB2002B84
:1011500000DA61E743461A69EFF3108172B613684B
:10116000002BFCD0BFF35F8F43469E88012342468D
:101170005B42938036B21369BFF35F8F00221A601F
:1011800081F31088002E00DA46E743465D69083394
:1011900042469C467700BF19FF00EF19BB686046C6
:1011A00098460823D15E9246FC68002907DA0EE0D3
:1011B000A24246D018000023C15E002906DB4B0086
:1011C0005B18DB00EB18DA68A242F1DD52460680BC
:1011D0000023FE5E3980002EDCDA904643469B7980
:1011E000002B00D11DE7002342469371434646463B
:1011F0000821595E08364B1C00D138E7474689461E
:10120000556902E006004B1C18D04B005B18DB0050
:10121000E8180A008C46E95E43881BB2002BF1DA1D
:1012200001235B42DC178360C4604A4503D03180F0
:101230003B8903803A81E1464B1CE6D1B8464C46D7
:10124000F2E69A684245B5D9C0E7631C00D0F8E6DB
:1012500005E7200023699847002825D153464246D8
:101260001B8813811269EFF3108372B6116800298D
:10127000FCD0BFF35F8F4246514652880A804246F7
:10128000494651801269BFF35F8F0021116083F3DB
:101290001088BBE6864200D803E7B7E6094800F0AD
:1012A0001BFA001969411DE7656824680FE787424A
:1012B00000D835E744E7C046E82000203C700540F0
:1012C000CD0F001000400540074810B50268EFF34D
:1012D000108172B61368002BFCD0BFF35F8F03F050
:1012E000E9FF0020002110BDA823002070B52E4C7E
:1012F0002569002D04D00A212C48FFF70FFE70BD90
:101300002B4E0321300000F0DDF9E660FFF7FEFA16
:10131000284B03229C46D02322701B061B68012108
:101320006370254B6044A3600F238000206102207E
:10133000638063694942A18019800231198647316F
:101340001D83585218315A5275325C3999521832ED
:1013500001319952183201319952183201319952A2
:10136000083518329D520231183299521832013123
:10137000995218320131995218320131995218326A
:10138000013199521832013199520C4B0C49DC60F1
:1013900001303562FFF730FB01210320FFF7F4FA3B
:1013A000084B1D60A7E7C046BC0F0020A823002003
:1013B0000040054040000034FFFF1000E8200020FE
:1013C000CD0F00103860054000487047BC0F00206A
:1013D000F8B51F0008AB1B7804001600002B08D1DD
:1013E00000F082F932003B00121A8B41002B00DA28
:1013F00053E02269EFF3108072B61368002BFCD023
:10140000BFF35F8F0223E15E63694A005218D20086
:101410009B18002937DB1A8862802269BFF35F8F2F
:101420000025156080F31088069A9E60DF601A61BF
:10143000079A5A615A8801325204520C101C002A31
:101440001FD082B25880080410432669EFF310873A
:1014500072B63268002AFCD0BFF35F8FA2881A8070
:10146000A1802369BFF35F8F00221A6087F3108881
:101470000B4923788C4601329A40E36863441A6032
:10148000F8BD0120DDE72369BFF35F8F00221A60FA
:1014900080F3108801204042F2E70020F0E7C046C8
:1014A0003C20000070B501000469EFF3108C72B6A7
:1014B00020680028FCD0BFF35F8F02200D5E4C69CE
:1014C00068004019C0002418002D37DB20884880B0
:1014D0000869BFF35F8F002606608CF31088E36015
:1014E00063880498013320615B0405985B0CA2605B
:1014F00060611A1C002B1FD093B22804628018432D
:101500000A69EFF3108C72B61368002BFCD0BFF39E
:101510005F8F8B8823808D800B69BFF35F8F0022E4
:101520001A608CF310880B7801329A40CB68084916
:101530008C4663441A6070BD0122DDE70B69BFF37E
:101540005F8F00221A608CF3108801204042F2E77E
:101550003C20000010B543890A1493421ADD530061
:101560009B184269DB00D3180469EFF3108C72B644
:101570002268002AFCD0BFF35F8F5A88090494B216
:10158000090C8A4208D00369BFF35F8F00221A60FA
:101590008CF31088002010BD8022120214435C805E
:1015A000012302698371BFF35F8F002111608CF307
:1015B0001088044902788C469340C2680120624436
:1015C0001360E8E73C20000040787047F0B5D6464D
:1015D0004F464646C0B504000D0082B0EFF30587C4
:1015E0008946002F0ED0344900204B6AAB4203D30A
:1015F0008A6A0130A24226D302B0E0BCBA46B146A4
:10160000A846F0BD2D4B9846DB689A4643465046A7
:101610001E7800F061F80B00514602000436B60057
:10162000715820008E1A2900801A99418F4211DCCE
:101630000ED020BF204A0020536A4B45DCD3926A6B
:101640000130A242D8D25B1B5A1E9341D8B2D3E7D5
:101650008642EED900F048F822002B00121A8B4186
:10166000002B1ADB00230193154B22000093404608
:101670002B00FFF717FF011E0FDD0F4B5A6A4A457B
:1016800017D39B6AA34212D34046FFF763FF0A4A6F
:101690000020536A4B45AFD3D1E7074A0020536A75
:1016A0004B45A9D3926A0120A242A5D2CBE74A4575
:1016B000EAD120BFE8E7C04600400540BC0F00204B
:1016C000C912001010B5024A0248FFF7AFF810BD6A
:1016D000D8700010701C00200300416A0A00986A4C
:1016E000596A8A42FAD17047034B596A0A00986ACC
:1016F000596A9142FAD1704700400540F8B5DE467C
:101700004E4657464546E0B58B4605000A991800F7
:10171000160000F0C9FA0A9B6C001F02324B6419D4
:101720009C46A4006444636881469F4200D9676078
:101730002B1FDBB29846012B30D9C02380229B019E
:10174000E31812011A60294BAD0059599A46002935
:101750001BD17301E026226853401E40802342467D
:101760005B01E3181E60012A30D9802380229B018F
:10177000E31812011A6053464A4667605A51F0BC9A
:10178000BB46B246A946A046F8BD586900F08CFA9F
:10179000013043001B18033BFDD2DAE75B46012B07
:1017A000CBD1C02303229B01E3181A60023AA3683D
:1017B0001A42FCD07301E0262268AD0053401E405F
:1017C00080230A4A5B019246E3181E605A4621684C
:1017D000514003220A401A6001225B469A40A368E6
:1017E0001A42FCD0C1E7C04600800040741C0020B3
:1017F000F0B546464F46D646C0B51F00344B4400B0
:101800009C462418A4006444636888461600FF2B95
:1018100002D880235B006360031FDBB29A46012B72
:1018200030D9C02380229B01E31812011A60294B92
:1018300085005959994600291BD17301E026226879
:1018400053401E40802352465B01E3181E60012A6C
:1018500030D9802380229B01E31812011A60802373
:101860005B0063604B465F51E0BCBA46B146A84698
:10187000F0BD586900F018FA013043001B18033B13
:10188000FDD2DAE74346012BCBD1C02303229B01D3
:10189000E3181A60023AA3681A42FCD07301E026EA
:1018A0002268850053401E4080230A4A5B0191460E
:1018B000E3181E6042462168514003220A401A6024
:1018C000012342469340A2681342FCD0C1E7C046C0
:1018D00000800040741C0020014B8000C0587047FD
:1018E000741C0020F8B5040021481E0017000D00EC
:1018F00000F0DAF90100380000F0D6F9069B360452
:101900001B031E432368002B20DB1A4B1A49E318E4
:101910005A1E93418022920194465B421B0B174A48
:101920001B0363441360164A13601F000A68974341
:10193000FBD1144B2560E2182123A06013602368BB
:10194000002BFCDA0823E6601360F8BD3F23226811
:101950001340AB42D9D1A3681B051B0D8342D4D1E0
:10196000EE22E368D2021340B342CED1EDE7C04687
:10197000001BB7000040FDBF08C0004000E0004071
:1019800000F000400430000010B580241C4BE4053A
:101990001C6000281AD001231A4C18431A4BDC6132
:1019A0001A4C44401C62596298628021144BC9054C
:1019B0001960174817490860E021C9041960002A16
:1019C00007D18022144B12061A6010BD0E4BD8614D
:1019D000EBE753019B1A9B009A18802312015B04CA
:1019E0009A4209D213000D490B60074B5A608022BE
:1019F000094BD2051A60E8E7094B1A00F3E7C04625
:101A000000B00540D3C007B0008005402D3FF84F1F
:101A1000FCFF01000820014000A00540D820002064
:101A2000FFFFFF008023024A9B000B43D3627047F5
:101A300000800540142310B50100188804331B886A
:101A4000984710BD162310B50100188802331B8873
:101A5000984710BDF8B54746CE4680B50F1E19D041
:101A600014239946043304000025012698464B466A
:101A70001888434621681B88984701C4431E984133
:101A8000013540420640AF42F1D13000C0BCB946FA
:101A9000B046F8BD0126F8E7142370B50400188895
:101AA00004331B880D000549984703000020002CD3
:101AB00001DB0130A04029009847C0465542000094
:101AC000AA23064A1B0113608D235B00D3600449DF
:101AD000044B19605368002BFCDA70470040024049
:101AE00000B0FA00006002407047C04610B50148DF
:101AF000FEF77EFEFC70001070B5074D074EB54234
:101B000009D20024013E761BB60808CD9847230071
:101B10000134B342F9D170BD107000104C70001048
:101B2000054B064A06491A60064A074B1A60100020
:101B30000B689843FBD1704700E00040BFCDFBFE2F
:101B400008C00040FE7F3C0000F00040044BDB6C0E
:101B5000002B03D18022034BD2021A607047C0468B
:101B6000000011504C201150044A054B1A60054AE0
:101B70001368DB018033FBD17047C046FFFFFF01D4
:101B800000F0004008C000404022034B9A675A67AB
:101B90001A67DA667047C04600F0014010B5FEF7DC
:101BA000D3FE10BD70B5044D044CA968C0222000BE
:101BB00000F08AFBAC6070BD00ED00E0000000208A
:101BC000002310B5294C82B0A367FFF779FF0122EB
:101BD000274B1A60636C012BFCD10322254B1A6042
:101BE000224A936B012BFCD1013300930121224A3D
:101BF00022480433FFF776FE052301210093204A93
:101C00002048FFF76FFE0022022104201E4BFFF741
:101C1000EFFD0022012105201C4BFFF7E9FD00220A
:101C2000002107201A4BFFF7E3FD002200210820C6
:101C3000174BFFF7DDFD8023DB000093002200211E
:101C40000920134BFFF75AFD0022104B00210620FC
:101C5000FFF7CEFD0420FFF73FFE0E4900F024F809
:101C600001000020FFF7DEFE02B010BD0080004042
:101C70003CB0004030B00040002F68590080024066
:101C8000008C864700C00240001BB7004059730714
:101C9000006CDC0240420F0001480421014B184750
:101CA000E00F0020551A0010114A936F9B0813D2C1
:101CB00010665166002905D0FFE7FFE7FFE7516F87
:101CC000106F704704B5002801D00020C04305F014
:101CD00067F9002104BDC046F0B5146E556E576F0C
:101CE000166FFFF7E5FF1466556657671667F0BD78
:101CF000000000D094464A4A926F9208624601D290
:101D000028E0C046F0B5464E346E756E776F366F7C
:101D100000F020F89446424A1466556657671667E5
:101D20006246F0BD94463E4A926F9208624601D2E6
:101D300054E0C046F0B53A4E346E756E776F366F2C
:101D400000F04CF89446364A146655665767166795
:101D50006246F0BD002B24DB11D000293EDA00B52D
:101D6000C943404200D1013100F038F8C943404234
:101D700000D10131DB43524200D1013300BD002AC2
:101D8000EBD1002801D1002905D00020C90FC907D7
:101D900001D1C043410800B505F0F2F8002200234C
:101DA00000BD00B500290ADBDB43524200D10133FC
:101DB00000F014F8C943404200D1013100BDC943CD
:101DC000404200D10131DB43524200D1013300F0E7
:101DD00005F8DB43524200D1013300BD002923D175
:101DE000002B18D1002A0CD0BC460D4F38667A66FD
:101DF00000210023FFE7FFE7FFE77A6F386F6746B0
:101E00007047002801D00748010000B505F0B8F878
:101E10000022002300BD02000B00002000217047BB
:101E2000000000D0FFFFFFFF002B00D0BFE0130C2D
:101E300028D1002AE7D080B4114F39667A66FFE7CF
:101E4000FFE730B4040C7B6F396F1B0423433B6600
:101E50007A66FFE7FFE7FFE7C04684B27B6F3D6F1E
:101E60001B0423433B667A66FFE7FFE7C046002377
:101E70002C042D0C7A6F386F00196941B0BC704783
:101E8000000000D0F0B594460025140E01D11202D6
:101E90000835140F01D112010435940F01D19200BD
:101EA0000235D40F01D152000135D40B0134254F36
:101EB0007C66254C3C660E0C93B2FFE7FFE7FFE71C
:101EC0003C6F6643360C7703BE467343DF0B5B04FF
:101ED000C01AB941130C7343DB18C91ACE08664304
:101EE000360CB64493B273431F0F1B01C01AB9419D
:101EF000130C73431F0B1B05C01AB941860D8F02CB
:101F00003E436643360C092D24DB520A7243801A85
:101F10007703460A6643360C16235B1BDE40DF4020
:101F2000BF1964466643821B7046043506330100C0
:101F3000D940A840C01900D30131A24206D20023E3
:101F4000F0BD0000000000D0FFFFFFFF121B0130BA
:101F5000F3D3F1E709277F1BFE406446A2B2724328
:101F6000801A00D20139220C7243130C1204821A17
:101F700099410B007046043513370100F940A84021
:101F8000801900D30131002B02D1A2420AD2F0BD48
:101F9000013000D30131121BFAD2013BF8D1A24229
:101FA00000D2F0BD013000D30131121BF7E7F0B5CC
:101FB0001C0C00D080E00CB400251C0A04D11B02CC
:101FC000160E3343120208351C0B04D11B01160FE9
:101FD0003343120104359C0B04D19B00960F33430D
:101FE00092000235DC0B02D192185B4101351C00D6
:101FF000971864410134464F7C66464C3C660E0C93
:10200000FFE7FFE7FFE7C0463C6F6643360C770308
:10201000BE4697B27743C01B00D20139C01B00D225
:1020200001399FB27743C91BC91B170C77437E0444
:10203000FF0B801BB941CE086643360C0C2D33DBF9
:10204000B644120B1F053A431B0B97B27743C01BD4
:1020500000D201399FB27743C91B170C77433E0466
:102060003F0C801BB941860D8F023E4366432927F2
:102070007F1BFE400C3D7746AF40BF1930BCA2B27B
:10208000ABB272437343801A9941220C7243130C12
:102090001204801A994102000B000137001BA9416C
:1020A000F9D2781E0021F0BD0C277F1BFE40774639
:1020B0007F0BAF40FF19E0E700245D1C07D0144FF1
:1020C0007D663966FFE7FFE7FFE7FFE73C6F95B204
:1020D0009EB265436643401BB141150C1E0C65431F
:1020E000664336042F0C3E432D04401BB1419942F8
:1020F00004D202000B0020000021F0BD01D190426B
:10210000F7D3801A994101349942F2D3F6E70000DF
:10211000000000D0FFFFFFFF132370B51D78012DD5
:1021200019D014DD1F48FFF78DFC06001E48FFF78D
:1021300089FC1E4C80223100200000F0C5F8022DE1
:102140002DD01B48FFF776FC1A4B186070BD1A4B58
:10215000164CA364F5E7184B144C23606360A3602E
:10216000E36023616361A361E36123626362A3624D
:10217000E36223636363A363E36323646364A3642D
:10218000E36423656365A365E36523666366A3660D
:10219000E36623676367A367E367A364D1E7064B3E
:1021A000A364CEE75344000053460000D81100203A
:1021B0004C330000A4230020BD21001007B5604669
:1021C00001880A0A0230DF2AFAD1C9B2820804D390
:1021D000028840880004104300E00068014A505023
:1021E000039007BDD811002051434343C9188C46C2
:1021F000110C83B24B4310B4040C614392B280B211
:10220000504362431C041B0C001910BC59411304B9
:10221000120CC0185141614470470000132310B5DF
:1022200012481C78FFF70EFC0100012C0AD003DDD8
:1022300080220F4800F048F80E48FFF7FBFB0E4BDA
:10224000186010BD0A4C5422200000F03DF80B4BE2
:102250006365A365E36523666366A366E366236738
:102260006367A367E3672362E361E5E75346000022
:10227000D81200204C330000A4230020812200103B
:1022800007B5604601880A0A0230DF2AFAD1C9B2CE
:10229000820804D3028840880004104300E00068EC
:1022A000014A5050039007BDD81200200148042174
:1022B000014B1847F00F0020551A0010014B1B6806
:1022C00018470000F00F0020014B5B681847000022
:1022D000F00F002010B5002800D110BD00F024F947
:1022E000FBE7C04610B5094A0300146884B0002C0F
:1022F00008D0012200910648524203A9A0470120BC
:1023000004B010BD00F05CF90020F9E7D0200020F7
:10231000D522001000BEFDE710B5FFF7FBFFC04659
:1023200070B5FFF7E9FB074D074EB54209D200240F
:10233000013E761BB60808CD984723000134B3420E
:10234000F9D170BD4C7000105C700010030010B526
:10235000080011001B68984710BDC046F0B5C6467E
:1023600000B5437D07000D001600002B38D0002A71
:102370002EDD00216A1E90466A5C037D4C1C002005
:102380000A2A0CD0A64216D043461B5D21000D3B05
:102390005A4253416A5CDBB24C1C0A2AF2D1002B30
:1023A000F0D1884217DB022110483B689847A642CB
:1023B00007D02000E8E7864203DD311A3B68281881
:1023C0009847AD19013D2B780D3B5A4253413B755F
:1023D00080BCB846F0BD091A3B6828189847E2E768
:1023E0000368110028009847F2E7C04648720010C1
:1023F000F0B5DE4657464E464546E0B585B0170077
:102400001C0006000D00FFF76FF90023314A121877
:102410004B41802109068B4202D301222E4B5242AE
:102420002E4908008A4604F0DBFD01906B1C03D1A5
:10243000300004F0FFFC0500002C26D0284B984605
:10244000284B1C68002C15D0002F21D1264F02E00C
:102450002469002C0ED02368002BF9D03B68002B98
:1024600001D09C42F4D120002A003100C0472469E9
:10247000002CF0D1019B002B28D1280005B0F0BC26
:10248000BB46B246A946A046F0BD184B9846D7E7D2
:10249000154B994602ABDF1D0A239B4602E02469D7
:1024A000002CE7D02368002BF9D04B461B68002B8B
:1024B00001D0A342F3D12A0031002000C0475B467F
:1024C0000122390020003B70C047E8E7504604F085
:1024D00047FDD2E740420F00FFFFFF7F441000207E
:1024E0005D230010C41C0020CC1C00204D230010D4
:1024F0000A4A1368002B05D10CE01A001B69103240
:10250000002B07D09842F8D1002902D1036913604B
:10251000016170470029FCD01060FAE7C41C00205C
:1025200010B500F08DFA10BDF0B5CE46474680B527
:1025300083B06B460600DD1D2870FFF7D5F8002339
:102540001A4A12184B41802109068B4202D30122FC
:10255000174B524217490800884604F041FD164BBC
:1025600081461C68002C14D0144F02E02469002C12
:102570000FD02368002BF9D03B68002B01D09C4280
:10258000F4D1200001222900FFF7E8FE2469002C85
:10259000EFD14B46002B05D1300003B0C0BCB9468B
:1025A000B046F0BD404604F0DBFCF5E740420F00CA
:1025B000FFFFFF7F44100020C41C0020CC1C002023
:1025C00070B5040004F036FC01230100050001226F
:1025D0002000FFF70DFF084B1C68002C06D0636835
:1025E000002B05D098472469002CF8D1280070BD35
:1025F0002469002CF3D1F9E7C41C00207047C046C1
:102600000022014B1A707047B92402204B79002038
:10261000FF2B0BD18B79002B08D1CB79012B05D166
:10262000082A03D9024B8A7809301A707047C046CD
:10263000B92402200120704710B5012901D00120E2
:1026400010BD13495379107909781B020343002008
:102650009942F5D15378012B08D0022BF0D10020FC
:1026600064220021FFF790F90120E9E7D3789178FF
:102670001B021943DB0507D54A0A100001231A4043
:102680007E331940FFF708FA01204A0A4042F5E775
:10269000B9240220004870471473001070B505007B
:1026A00014000120012909D153780020012B05D104
:1026B000637912791B021343072B00D070BD2100F0
:1026C0002800024A9F3301F063FAF7E76C720010AA
:1026D00001230370004870474C7200104B780A7851
:1026E0001B0213438A7810B512041A43CB781B06D9
:1026F00013439622D200934200D010BD0022012045
:1027000011004042FFF7C8F9024B1860024B1960F4
:102710007047C046641C0020681C002010B5024BA6
:102720001878FEF74FF910BDBA240220154B70B58A
:102730001A68002A22D0EFF3108172B610680028C0
:10274000FCD0BFF35F8F00200F4A596010701B68E8
:10275000BFF35F8F186081F31088002400250B4EB3
:102760003078FEF723F9002804D100240025290041
:10277000200070BD3078FEF725F9F8E7FA2400252F
:10278000A400ECE7E0200020BB240220BA240220B1
:1027900070B5040000200E0001F01AFB002836D0AE
:1027A000002001F02BFB002831D0FEF79DFF002315
:1027B000184A12184B41802109068B4216D2164D39
:1027C000280004F00DFC002821D0002001F000FBBF
:1027D00000280FD101200021404200F009FD032410
:1027E0006442280004F0BCFB200070BD01220B4BAA
:1027F0005242E4E7002001F001FB0028EAD021006A
:102800003200002001F004FB041EEAD1E7E70324B4
:102810006442E9E740420F00AC230020FFFFFF7F46
:1028200010B5FEF761FF00230E4A12184B418021BC
:1028300009068B4202D301220B4B52420B4C200063
:1028400004F0CEFB00280CD001200021404200F013
:10285000CFFC002001F026FB0028F5D1200004F079
:102860007FFB10BD40420F00FFFFFF7FAC23002025
:10287000F8B5DE46574680B505000C00FEF734FF7C
:102880000023374A12184B41802109068B4202D39C
:102890000122344B5242344908008A4604F0A0FB1E
:1028A000002803D1C0BCBB46B246F8BD002001F0F1
:1028B0008FFA00284AD00026002C43DD2B4B9B4684
:1028C00014E0A919002001F027FB070001200021D6
:1028D000404200F08DFC002001F0E4FAFEF704FF16
:1028E000224BF61918605960B4422BDD002001F02C
:1028F00033FBA71B0200B84200DD3A00002AE0D1FA
:1029000001200021404200F073FC002001F0CAFACF
:10291000002001F05DFA002814D0002001F01CFB1B
:102920000028E1D1FEF7E0FE5B460F001A685B6805
:10293000002184460E4812184B419F4202D8D3D141
:102940009445D1D9504604F00BFBABE700200021A1
:10295000064B18605960504604F002FBA2E7C046DF
:1029600040420F00FFFFFF7FAC230020D01100206A
:1029700020A1070030B52B4C85B00021200004F0C9
:1029800017FB00281CD1284B1A68002A16D0EFF339
:10299000108172B610680028FCD0BFF35F8F01244D
:1029A0002248596002781B68D2B20470BFF35F8F6F
:1029B0000020186081F31088002A17D005B030BDC0
:1029C00001200021404200F013FC002001F016FA23
:1029D0000500200004F0C4FA002DEFD0144B1B6852
:1029E000002BEBD0134A10689847E7E7FEF7ECFCA2
:1029F0000400FEF779FEFA220023920012184B41E0
:102A0000802109068B4202D301220B4B5242012145
:102A1000029100210191094920000091FEF7D8FCA4
:102A2000CCE7C046AC230020E0200020BB240220DD
:102A3000641C0020681C0020FFFFFF7F2D27001072
:102A4000D02310B51B0684B01C68FEF7BDFCFEF752
:102A5000BBFDA04202D0002004B010BD2A4B0021D3
:102A600000201B7801F078FD28480368002B47D030
:102A70000120FEF73DFAFF23254C2649207018401F
:102A8000FDF7BAFF20780121FDF77EFF0520FDF755
:102A9000A1FF002826D1082200211F48FFF70EFCC5
:102AA000FEF792FC0400FEF71FFEFA2200239200BC
:102AB00012184B41802109068B4202D30122174B89
:102AC00052420121029100210191154920000091FB
:102AD000FEF77EFC0028BEDB12480121FFF708FD4F
:102AE0000120B9E70120FDF71DFF0B4B0100180085
:102AF000FEF762FA002205200B49FDF7A7FFEBE77E
:102B0000FEF73EFAB4E7C046F4740010AC23002090
:102B1000BA24022075290010E0200020FFFFFF7F6B
:102B20002D270010001000201D27001000487047BE
:102B3000B0730010004870475C73001010B50400BB
:102B400017480378002B20D0002C06D1154B1648CF
:102B50004380063BFF3B038010BD052C19D8134B67
:102B6000A400E05812490123013804E001330A802F
:102B70000231142B0FD0C25C002AF7D1C022DBB285
:102B80005B00920008481343E5E7112100F01AF8B2
:102B9000DAE70020E0E7CA2303489B00DBE7C046F2
:102BA000B4230220090400009C1C00204473001080
:102BB0009E1C002010B5024800F0D8F810BDC04699
:102BC0009C23002030B54B1E012900D1A7E0664AA6
:102BD00011780D092C0030349F2900D9A2E004702F
:102BE000012B00D1BEE00F21147821400C003034BD
:102BF000092900D998E04470022B00D1B2E0547842
:102C00002509290030319F2C00D990E08170032BD9
:102C100000D1A7E00F2121400C003034092900D950
:102C200087E0C470042B00D19CE09478250929002A
:102C300030319F2C00D97FE00171052B00D191E04C
:102C40000F2121400C003034092900D976E044716D
:102C5000062B00D186E0D4782509290030319F2C3D
:102C600000D96EE08171072B00D17BE00F2121405C
:102C70000C003034092966D8C471082B00D171E0EA
:102C800014792509290030319F2C5FD80172092B56
:102C900068D00F2121400C003034092958D84472E3
:102CA0000A2B5FD054792509290030319F2C52D846
:102CB00081720B2B56D00F2121400C003034092992
:102CC0004BD8C4720C2B4DD0947925092900303192
:102CD0009F2C00D9073101730D2B43D00F212140C8
:102CE0000C003034092901D937310C0044730E2B04
:102CF00038D0D1790C09220030329F2900D907320F
:102D000082730F2B2ED00F220A4011003731092A6F
:102D100001D830321100C173102B23D010300023A2
:102D2000037030BD07345AE737310C0063E70731D1
:102D30006CE737310C0074E707317DE737310C0061
:102D400085E707318EE737310C0095E707319DE7BE
:102D500037310C00A3E70731AAE737310C00C47202
:102D60000C2BB1D1C018DAE79C23002010B588B035
:102D700004000D2200216846FFF7A0FA0D22002171
:102D800004A8FFF79BFA4B236A466846137004A910
:102D90000D2204F0DDF81521082220006944FFF718
:102DA00093FA08B010BDC046F8B500F043F90C2303
:102DB000194DFF22AB6705201849FDF747FE184C57
:102DC000402200212000FFF779FA40270023012646
:102DD0002121144A66702783A260136063545F3117
:102DE000618445396354104A10496360E260278763
:102DF000A1620B606362E26204F0BAF880239B0573
:102E00002E64EB6490230A4A0120EA508022094B89
:102E10005202DA64F8BDC04600001150750400206B
:102E2000D01C002084001050000110508000105071
:102E300010D001000020115010B501210520FDF730
:102E4000A3FD10BD10B500220021024800F012F9C8
:102E500010BDC046F01C0020044B1970002904D09E
:102E600080219023024A8902D1507047B524022064
:102E7000002011500B785B0602D14B78052B00D057
:102E800070478A78014B1A60FAE7C046000011507B
:102E9000F0B5C646C87800B58007830F1800012B2F
:102EA00060D08F780A794B797F213940FC091B0269
:102EB0004E001343334D32195201AA18977001275F
:102EC0006740577000275B055B0DD7701383D07682
:102ED000B846CA00012C32D02B4FBC468F01624449
:102EE000BC46AC446746BA6047461760002932D0FA
:102EF000264AC90090466246414451603F223F3312
:102F00009343022837D0224937190A687F01D31822
:102F10000B602049EF19FA608B422ED836197601E2
:102F2000AD19EB7E1C499B064A40134380221206D2
:102F300013436A681360012080BCB846F0BD174F88
:102F4000BC468F016244BC46AC446746BA62474601
:102F50001760002908D1002364012C196360104B0D
:102F6000E360E8E70020E7E70B4AC90090466246C5
:102F700041445162C2E75B00C5E7FEF7B7FDFA685E
:102F8000CCE7C046D01C0020840010500400105034
:102F9000DC200020FF0F1050000010508000105067
:102FA0000001105010B503F0E3FF10BD10B57F20F5
:102FB0000C0020404000E409110000191A00034BE6
:102FC0004001C01800F056F8012010BDD01C0020B0
:102FD0007F23180010B50840CA090B4203D10749E6
:102FE0007D3B9B1A8B66400080188022044B400179
:102FF0000021C018120104F003F810BD0020115088
:10300000D01C00207F22130010B50B400A4200D1D3
:1030100010BDC9095B005B1804485B01C0180023A0
:1030200000220349C37003F0EBFFF1E7D01C00203E
:10303000FFF7FFFF80220A4B520410B51A60094BBC
:1030400009491A6010000B689843FBD180220021C7
:1030500052010648FFF732F90922054B5A6710BDA5
:1030600000E0004000F0004008C0004000001050A8
:1030700000001150002310B5C38201338282837691
:103080000161040003F0A4FF002804D080219023F4
:10309000074A8902D150200003F07AFF002802D0AD
:1030A0000123237710BD200003F0A2FFFAE7C046FA
:1030B000002011507047C0467047C046002070473E
:1030C000002070477047C0467047C0467047C046F2
:1030D0007047C046024B5878431E9841C0B27047B3
:1030E00074170020024B18784007C00F7047C04685
:1030F00074170020F0B5D6464F464646C0B5314B52
:1031000007009A461B780E00FF2B01D0012044E0F7
:10311000002941D0002154222B48FFF7CFF800228C
:103120002A4C2B4B20001A70FDF72AFF294B1C60FC
:10313000294C2000143CFDF731FF200001F032FE45
:10314000264B274D1C60274B002B2BD02800FFF768
:10315000BFFA254B2A781860244900248946224961
:103160000023884610E043461B6862019B18002B31
:1031700012D05B68002B0FD098472A780134E4B254
:10318000511C2300A1420FDBA242ECD89B1A5B0129
:103190004B445B68002BEFD10020E0BCBA46B1463F
:1031A000A846F0BD2A78D7E75346310038001F7093
:1031B000FFF7FAFD0028EFD03800FFF73DFE0120B1
:1031C000EBE7C04634100020741700206C17002075
:1031D000B6240220C81700202C100020CC17002095
:1031E000B4240220D1260010C81500206C740010F1
:1031F000F0B5DE4657464E464546E0B5C84B91B061
:1032000002931B78FF2B00D13EE1C64BC64E9B4676
:103210005F46C64B0DAC0193C54B009335686A6998
:10322000EFF3108172B61368002BFCD0BFF35F8FF1
:10323000A9612800210001F0E3FB6A69AB69BFF3D3
:103240005F8F0021116083F31088002800D11BE1FB
:103250006378082BE2D89B00FB589F466368002BDD
:10326000DCD0A0689847D9E77F222179AF4D0A408A
:103270005300EB189846C80980444046012330307B
:1032800005799D430571057903339D430571002A36
:1032900000D100E14346A74A1B7D1278934200D338
:1032A000EFE0A54A5B011568ED18002D00D1EBE0B9
:1032B000A36862792078AD69A847AFE79F4A137881
:1032C000002B00D1E0E01378013BDBB213701378E0
:1032D000002BA3D10122954D01212B78042013430B
:1032E0002B703423EA5C8A43EA54EA5C8243EA5452
:1032F0000133EA5C8A43EA54EA5C8243EA54237865
:1033000000209B4600F0A4FC602223791A40602A2A
:1033100000D1EFE0402A00D1F5E0DB06DB0E012B07
:1033200000D113E1022B00D1C7E0002B00D0E1E077
:10333000202A00D11CE2002A00D0DBE06379092BAF
:1033400000D9D7E07E4A9B00D3589F46774D2B7813
:10335000DB0700D462E7FFF7BBFE5FE7019BDB788A
:10336000DB0700D45AE76068FFF7A6FE56E76F4D0B
:103370002B78DB0700D451E728780007C00FFFF750
:10338000A5FE4BE723786A4999468B46694B6A4903
:1033900098468A4639001A7847460023B0460025E9
:1033A0004E46894610E053461B686A019B18002B65
:1033B00000D176E0DB68300098473A780135EDB20D
:1033C000511C2B008D4244DC9542ECD39B1A5B01CF
:1033D0005B44EFE7237858499946564B8A4698460E
:1033E0003100BB464E461A780025002347468946E1
:1033F0000FE053461B686A019B18002B55D0DB6811
:10340000300098473A780135EDB2511C2B008D42BF
:1034100007DC9542EDD39B1A009A5B019446634406
:10342000EDE7019D542200212800FEF747FF1022FE
:10343000FF214448FEF742FF28002022FF211430DC
:103440004E465F46FEF73AFF00F0F8FBFFF73CFE02
:10345000E4E6364D542200212800FEF72FFF10220B
:10346000FF21281DFEF72AFF28002022FF2114300B
:1034700046464F46FEF722FF00F0E0FB2379AB7093
:10348000CCE6501C984213DA11B0F0BCBB46B246F1
:10349000A946A046F0BDA3686279207800F0ECFB55
:1034A000BCE646464F46214DE6E74E465F46CBE733
:1034B0001F4D9B1A5B015D19FAE67023217A0B42BE
:1034C00018D1C80982460F330B405B009846194853
:1034D000EB1853441B7D00789946834266D2164808
:1034E0005B01006881469944002A00D15FE14B46A8
:1034F000002B68D120780021FFF76AFD8021207819
:10350000FFF766FD8AE6104800F0A2FB012158464D
:103510000EAAFFF7C3F8002800D07FE6EAE7C0460E
:1035200034100020C4730010CC1700207417002042
:103530006C740010B4240220C8150020B6240220A8
:10354000E8730010781700209D260010237A0F2BB7
:10355000D0D8CF4AEB181B791578AB423ED3691C03
:103560009942C7DB5D1BCB4B6D01ED18686900F01C
:103570006FFB012158466B690EAA9847002800D0BE
:103580004CE66022150023791D401A42B2D16379BE
:103590000A3B012BAED800F05BFB63790A2B00D10C
:1035A00099E158460EA900F0DDFA37E6431C4B4579
:1035B00000DAF7E04B461B1A5B019946B548814497
:1035C000002A00D1F3E04B46586900F041FB4B461E
:1035D000012158465B690EAA98479CE7AE4A5B01F9
:1035E0001568ED18002DC1D184E7A37999466B7851
:1035F0009945D6D06B78002B00D033E14B466B70E9
:10360000002B00D12BE148460138C0B2FFF792FAF7
:10361000002800D17EE143780793022B00D079E1A6
:103620000122C179B1468B11491113400A40302162
:1036300012015B0113432A78A8468A4313432B7077
:1036400009239A4682445646BA46C37882781B02BA
:103650001343C31805938E4B04938E4B08938E4BE4
:1036600009938E4B0A93059BB34200D855E17378BA
:1036700001220B2B03D13378F278F6187378042BE0
:1036800000D044E1059B00279B1B9BB20693049B43
:103690000B921D78002303931BE0099A7B011568A8
:1036A000ED18002D00D132E1310058462B69069A01
:1036B00098478446082803D9069A824200D313E12A
:1036C000049B01371D78FFB26B1C03979F4200DDFE
:1036D0001DE1BD42E1D8039B5D1B089B6D019C462B
:1036E0006544E1E76B780CAA023213705846012357
:1036F0000EA900F04DFA91E5E3881A0AD8B20F2A14
:1037000000D9F7E666499300CB589F460EA800F013
:10371000A5FA5846A179FFF795FB02222B781343AF
:103720002B707BE5E388012B00D0E3E608222B78A1
:10373000584693430EA92B7000F014FA6EE5022050
:1037400029780CAB9A1C8B068908DB0F01400B43D0
:103750001380584602230EA900F01AFA5EE5E388AA
:10376000012B00D0C6E608222B7813432B7018E7F4
:10377000237A0F2B00D9BDE6EB181D79444B1B783B
:103780009D4228D2444B6D011B685D19002D00D16C
:10379000B0E6686900F05CFA012158466B690EAA30
:1037A0009847B8E6002A00D0A4E60023994662793B
:1037B0000220130003928343012B15D0002A00D06E
:1037C00098E62B004344534430331B790CAA9B07E3
:1037D000DB0F0232BCE75A1CAA4200DA8AE6ED1A75
:1037E0002C4B6D01ED18D4E7E388002B12D1029B1E
:1037F0001878039B012B23D0FFF7EAFB43460221F5
:10380000EB18534430331A790A4301211A711A799B
:103810000A431A714B46002B00D1FFE4586900F0AF
:1038200017FA4B4601215B690EAA584698470020BB
:1038300000F00EFA3523EB5CDB0700D5EEE4B0E6D2
:10384000FFF7E0FB43460221EB18534430331A796B
:103850008A431A711A7903998A431A71DAE7FFF7D2
:1038600033FC9EE600215846FFF7F6FA5846FFF76C
:1038700099FBAB78074903930491054B0649984699
:103880001A780591002329001D008A461BE0C046D6
:10389000B42402206C740010C81500208817002082
:1038A00010740010059B6A011B689B18002B4DD0FB
:1038B000DB685846984743461A780135EDB2511CEB
:1038C0002B008D422EDC9542ECD39B1A049A5B01AF
:1038D00094466344ECE70CAB9A1C584601230EA9AE
:1038E000157000F055F999E40B9A012A4FD0002A7F
:1038F0003CD00023B07804E00133DBB20F71934277
:1039000034D2C118C9B241440D79FF2DF4D04E46CE
:103910004546574600236B70ECE54E465746FFF789
:10392000D1FB3EE65546542200212800FEF7C6FC96
:103930001022FF21281DFEF7C1FC28002022FF21B4
:103940001430FEF7BBFC039BAB7057E65546FAE715
:10395000FEF7A0FE021E00D1CCE5D37891781B02C1
:103960000B4358460EA900F013F9D4E565463B0019
:103970002A0031000A9800F0B3FEAC46049B039A7B
:103980001B7866440133934200DB6CE6BFE7174BBC
:1039900029699942ADD1079AABE7FFF78FFB021E69
:1039A00000D1A7E5584613780EA900F0F1F8B2E56A
:1039B0002189FFF7C3F8021EF4D19BE5022A0FD03C
:1039C000FFF77EFB021EC8D194E5FFF7AFF8021E99
:1039D00000D18FE5122358460EA900F0D9F89AE5D8
:1039E000FFF7A8F8021EB8D184E5C0466540001074
:1039F000F8B557464E46DE4645460C00E0B5160083
:103A00001F00002A3DD0204B00259A46702399467E
:103A10001E4B9B4618E05B4600222000997800F080
:103A200003FE00281FD021004046FFF731FA00288E
:103A300019D0A378DA09012A1CD00A9A013513702B
:103A40002378E418B5421CDA6378052B0BD1E378B0
:103A50009B079B0FBB4206D153464A461B789846AC
:103A6000A3781A42D7D00020F0BCBB46B246A94684
:103A7000A046F8BD0B9A013513702378E418B542BF
:103A8000E2DB0120F0E7C04634100020741700206C
:103A9000702270B50A4B0C001D788B781A4201D049
:103AA000002070BD074B00222000997800F0BCFD7B
:103AB0000028F5D021002800FFF7EAF9F1E7C04619
:103AC00034100020741700200B007F2010B5184020
:103AD000DB0934334000044AC018044B1168C01895
:103AE00000F05EFD10BDC046C8170020741700200E
:103AF0000B007F2010B51840DB0934334000044A26
:103B0000C018044B1168C01800F072FD10BDC0460B
:103B1000C81700207417002070B57F240F480C4090
:103B200064000419CD09641930342079C00701D527
:103B3000002070BD0126257909483543007825719C
:103B4000FFF734FA0028F4D101222379934323713B
:103B50002379033293432371EAE7C04674170020A8
:103B60003410002070B5094C0600082220000D001A
:103B7000FEF7AAFB00238021E360A3602B783000CE
:103B8000994300220023FFF7C7FF70BD54170020A0
:103B9000F8B5CE4647469046264E80B58146082267
:103BA00030000D001F00FEF78FFB4346B36000237B
:103BB000F381EC79AB7924021C43231CBC4200D96D
:103BC0003B1C9FB2B381002C0ED0002F18D043466F
:103BD000002B2CD03B1C402F1BD89FB233787F2B5F
:103BE0001CD80021144A0FE080212B780022994331
:103BF00048460023FFF790FFC0BCB946B046F8BD69
:103C00007F230022317899433B004846FFF784FF29
:103C1000F2E740239FB233787F2BE2D9064C3A007B
:103C200041462000FEF750FB80212200ECE70020F7
:103C3000E2E7C046541700201417002010B51422E4
:103C400000210248FEF73AFB10BDC0465417002081
:103C5000014B18617047C0465417002010B5054C41
:103C6000010008222000FEF72FFB0023A360E36081
:103C700010BDC0465417002070B5384C1D00237885
:103C80000600DA09C9098A4210D00020002D00D0B0
:103C900070BD21003000FFF7EDF82369002B03D041
:103CA00022000321300098470120F1E7A0687F2B14
:103CB00005D8002834D02A002949FEF705FBE289FF
:103CC000A1685219E38892B24919E281A160934236
:103CD00014D03F2D12D9A389981A051C80B2402810
:103CE0002AD82078ADB27F2828D800219A4232D035
:103CF0001B4A2B003000FFF70FFFC9E72369002B99
:103D000005D0220002213000984700280AD08021E7
:103D100023780022994330000023FFF7FDFEB7E728
:103D20000020B5E700213000FFF752F93000802174
:103D3000FFF74EF90120ABE74025D2E79A4207D0C2
:103D4000074C2A002000FEF7BFFA80212200D0E7AE
:103D500080210022CDE70022CBE7C0465417002087
:103D60001417002070B50500FFF7B4F9002800D142
:103D700070BDFFF7B7F90028FAD1C8236B43124C86
:103D8000E618F1780029F3D010331C19200000F058
:103D900021FE3F28ECD90020F178FFF795FE00289E
:103DA000E6D0200000F016FE3F2808D9074BEA01B4
:103DB000D218F17840230020FFF7AEFED8E7F17863
:103DC0000020FFF795FED3E74C160020CC1500200D
:103DD00010B50400FFF77EF9002801D1002010BDC6
:103DE000FFF780F90028F9D1C8226243024B013065
:103DF0009B181B791840F2E74C160020C82310B519
:103E000043430248181800F0C7FD10BD5C1600209F
:103E1000F0B5C824C646802344431F4F1034050024
:103E200000B53C195B029A4200D31C4A200092B2B2
:103E300000F034FE8046FFF74DF9002803D14046DC
:103E400080BCB846F0BDFFF74DF90028F7D1C82671
:103E50006E43BE19F378002BF1D0200000F0BAFDBC
:103E60003F28ECD90020F178FFF72EFE0028E6D09D
:103E7000200000F0AFFD3F2808D9094BEA01D21815
:103E8000F17840230020FFF747FED8E7F1780020C3
:103E9000FFF72EFED3E7C0464C160020FFFF0000C0
:103EA000CC150020F8B50600FFF714F9002801D161
:103EB0000020F8BDFFF716F90028F9D1C824744393
:103EC0002500134F2435ED19280000F065FD00286A
:103ED000EED03F190020B978FFF7F6FD0028E7D0B3
:103EE0000C4BF401E41821002800402200F0D6FD1C
:103EF000B978051E08D0030022000020FFF70CFE51
:103F00000028D5D02800D4E70020FFF7F1FDCFE747
:103F10004C1600200C16002070B5C82444430C4BEE
:103F20000500E41880235B029A4200D3094A20006E
:103F300092B200F07BFE0600200000F02DFD3F282D
:103F400001D8300070BD2800FFF7ACFFF9E7C0468C
:103F500070160020FFFF0000C82310B5434302483D
:103F6000181800F037FD10BD70160020F0B51A4C7F
:103F700083B0C82200212000FEF7A0F9FF2363715F
:103F8000E1235B020025A360210008232000A37326
:103F9000402238310095073B103000F0C7FC270065
:103FA0002100200026000D4B40221B7878315B0752
:103FB000DB0F0093B8370123243000F0B7FCC03684
:103FC0003800FCF7DDFF3000FCF7DAFFE56127621F
:103FD0002663656303B0F0BD4C1600203810002046
:103FE0000B4B196B00290AD01A6A002A0DD0002247
:103FF0001A621A63DA6100225A63012070471A6A52
:10400000002AFAD0D9611962F7E71A63F3E7C046CC
:104010004C16002070B5104D052200212800FEF737
:104020004DF90E4C2378DA0709D50D4D9B070ED5B7
:10403000217828004907C90F00F0D4FE70BD280080
:10404000103000F0AFFE2378054D9B07F0D4280018
:1040500000F0A8FEECE7C0464C1600203810002007
:1040600070160020F0B54B79060083B0022B02D108
:104070008B79022B03D00025280003B0F0BD214F1F
:10408000BB78002BF7D18B7809253B700C780C1985
:104090006378242B0BD1082A02D80FE0AA420DD353
:1040A0002378E4185D196378ADB2242BF6D0052B84
:1040B00008D0042B02D163790A2B11D00020FFF71E
:1040C00051FED9E721003000FFF7E2FC0028D2D0F2
:1040D000A3787B7023785D19E4186378ADB2E8E7C4
:1040E000094B277801930133009302220223300009
:1040F000E119FFF77DFC0028BDD00E35ED19ADB2FA
:10410000DCE7C0464C1600204E160020F8B56023B0
:1041100014001278050013400020202B07D1354AE7
:104120006379277916781B023B439E4200D0F8BD85
:104130006378222B1AD007D8202B38D0212BF6D128
:10414000012942D00120F2E7232BF0D1012944D0EC
:104150000329F7D1284B002BF4D0E178A37809028A
:104160000020194300E000BF0120E0E7012934D01E
:104170000329E7D10125A378E47824021C431F4BCF
:1041800025401B7814715B072DD50121243269402D
:104190001000C9B200F026FE194B002BD2D0A207A6
:1041A00000202900D20F00E000BF0120BFE7012955
:1041B0000BD00329C6D1134B002BC3D008320020EB
:1041C0001100FEF78BFA0120B1E707232100280038
:1041D0000D4AFFF7DDFC0120A9E721002800FFF7C9
:1041E000C1FC0120A3E724321000002100F0FAFDF9
:1041F000D2E7C0464C160020000000003810002016
:1042000000000000DD26001054160020F0B54F46D7
:104210004646D646364DC0B5EA781F0080460C00AB
:10422000AB788A423AD08B4210D00020E0BCBA462C
:10423000B146A846F0BD2F4B002B04D02E4800F00D
:10424000C1FB002850D00020FFF78CFDAB78A342C3
:1042500001D00120EAE7294B002B02D0002000E02A
:1042600000BF0020FFF71EFE0028F2D1244C2000E2
:1042700000F092FB0028ECD1002FEAD0BF06E8D175
:10428000243C4046A178FFF71FFC0028E1D0002322
:1042900000224046A178FFF73FFCC7E710239A466B
:1042A000184EAA4431005046BAB200F0BFFC164B7B
:1042B000002BC0D06B79FF2BBDD0002FBBD0F219E3
:1042C000914603E00136B145B5D06B7932789A4218
:1042D000F8D1504600F076FB0028F3D15346103B4E
:1042E000597900E000BFEDE700E000BFABE7C04652
:1042F0004C160020000000005C16002000000000AA
:1043000070160020CC150020000000009322F0B5AC
:10431000134C85B0002120009200FDF7CFFF230051
:104320002000802640270F4D4D337600FF33293083
:104330000295009300220023002103970196FF308D
:1043400000F0E8F94035201D283400230122002127
:10435000039702950196009400F0DCF905B0F0BDDA
:10436000101900209018002010B5054C200000F016
:1043700007FA20002538FF3800F002FA012010BDAE
:10438000381A002070B5084C002520003130FF306D
:10439000257000F007FD20000C3000F003FD2A23FB
:1043A000FF33E554657170BD10190020F8B5CE4695
:1043B000474680B54B7906000C00FF2B55D12A23C8
:1043C0003C4FFF33FB5C0D78002B4ED17B79002BEB
:1043D0004BD190468B7888444D193B70A8450ED937
:1043E0002B78EB1898450AD36B78042B07D00B2B4E
:1043F00005D0052B06D02B78ED18A845F0D8281B42
:1044000080B233E029003000FFF742FB00282CD0B7
:10441000AB78DB09012B2DD02A23FF339946FB5CB7
:10442000002BE8D138003130FF3000F0BBFC4A46A9
:10443000AB789421BB546B792A791B0213431E4A33
:104440005B0594465B0D63445A4253410220490088
:104450007A5C5B00824313437B543900293130007E
:10446000FF3100F0F5F90028C5D10020C0BCB946E5
:10447000B046F8BD7B79002BBDD138000C3000F080
:1044800091FCAB7802217B716B792A791B02134373
:10449000094A5B0594465B0D63445A4253413A799D
:1044A0005B008A431343391D00203B7100F09EF9E5
:1044B000A1E7C0461019002000FEFFFF70B50500FF
:1044C0002A201F4CFF30205C1E006379884203D0F5
:1044D00000208B421DD070BD9A235B00E35A002B55
:1044E0000DD1184B002B04D000201749B2B200E0C8
:1044F00000BF2800154900F0ABF90120EBE72000D0
:10450000962331305B00E158B2B2FF3000F08EFBF1
:10451000E7E70F4B002B04D031040020090C00E02A
:1045200000BF0C4C2800210000F060F90028E4D105
:1045300032002100280000F025F90120CBE7C04619
:10454000101900200000000090180020381A0020E8
:10455000000000001419002000B5030083B00029FA
:1045600010D00020012B07D80A78002A04D00B486D
:10457000C2540120012A01D003B000BD1800FEF78B
:10458000B9FDF9E7012301A900200B80FEF7B2FD78
:104590000028F1D00122014B1A70EDE768170020C6
:1045A000037870B5DB0704000E00DD0F002B17D178
:1045B00003785B0701D5280070BD01213000494216
:1045C00002F0FEFC2378DB07DD0F002B0AD12378F5
:1045D0005B0708D40422237801251343237002E0EB
:1045E0000025E8E70025300002F0BAFCE3E7C0460A
:1045F00070B50C00012106004942200002F0E0FCE9
:1046000033785B07DD0F002B04DB200002F0A8FCF1
:10461000280070BD3378DB0704D404223378934339
:104620003370F2E70025F0E750B5447903792402AE
:104630001C43C37866059B07760D9B0F022B1DD08C
:10464000032B0CD00020012B08D102394B425941D9
:104650001F4B9C466144B1424041C0B250BD02393B
:104660004B1E99411B4B494219408023DB009C465D
:1046700000206144B1424041C0B2EFE7022912D0AC
:10468000002A03D080239B009E4218D0202E10D8F1
:10469000FF23DB001C4219D00F4B083EB6B2F3409B
:1046A00001201840DAE70D4BF01843425841C0B2E0
:1046B000D4E73000403843425841C0B2CEE7C13B56
:1046C000FF3B0371002343711000C7E70020C5E7DB
:1046D000FF03000040FCFFFF0101000100FEFFFF9F
:1046E0008A1870B5914207D27F264C78052C04D0E9
:1046F0000C7809198A42F8D870BD34008D782C40A6
:1047000064000419ED0963550C7809198A42ECD844
:10471000F2E7C046F0B5C64600B582B0150008AA5B
:1047200040CA040017880BAA1288012090460A008C
:104730002178024081432000114321703A00009308
:1047400031000123083000F0F1F8002E01D0002FD5
:1047500008D10A9B012063604346638002B080BC9D
:10476000B846F0BD26001C363000FCF709FC0023DB
:10477000002D01D0330000266361A661E9E7C04641
:1047800001207047F8B502240B7807001C406342F3
:104790005C41144B64421C40134B08009C4608309B
:1047A0000D001600644400F0F7F8002807D1002E31
:1047B00005D0344203D101242B781C4201D00020C3
:1047C000F8BD38006978FFF77FF90028F7D02B781B
:1047D0001C42F4D10023002238006978FFF79CF9CD
:1047E000EEE7C04640FEFFFFFF010000F8B50D00F8
:1047F0000835060028000C0000F0CEF8002803D091
:10480000012723781F4201D00020F8BD30006178D5
:10481000FFF75AF90028F7D028006288616800F095
:104820003DF92378051E0BD01F42EDD103006268CD
:1048300030006178FFF770F90028E5D02800E4E740
:104840001F42E1D130006178FFF752F9DCE7C04642
:10485000F8B5CE46474680B58A8905000C000B782E
:10486000002A07D101261E423FD00020C0BCB94615
:10487000B046F8BD9B0734D5FE2380261B0299461F
:10488000B60027000837380000F0A4F88642ECD8BC
:104890000122237890461A42E7D128006178FFF779
:1048A00013F90028E1D0380000F094F8864231D89E
:1048B0004146237862881942D7D14B461840061CDE
:1048C000904200D9161CB6B200226178002E00D0AA
:1048D000626833002800FFF71FF90028C5D03000B8
:1048E000C4E7114B40269946CBE74978FFF7ECF82F
:1048F0000028BAD0227863881642B6D100226178A7
:10490000002B00D062682800FFF706F90028ACD021
:104910006088ABE7424623781A42A6D12800617826
:10492000FFF7E6F8A1E7C046C0FF0000F0B5C646B5
:1049300000B5040006A805788020884617001E00F0
:104940000002824226D8E068002803D001214942B3
:1049500002F036FB2069002803D00121494202F011
:104960002FFB4346236073045B0CED031D430023C0
:10497000E0686381A780E5802381002801D002F0F0
:10498000EFFA2069002801D002F0EAFA012080BC89
:10499000B846F0BD0020FAE710B504894189828845
:1049A000A3B288B28C4207D31B1A9BB2101C9A4246
:1049B00000D9181C80B210BD5100091A5B189BB2B7
:1049C000F4E7C04603894089181A43425841C0B2EF
:1049D0007047C04610B5048941898288A3B288B265
:1049E0008C4207D31B1A9BB200209A4201D9D21ADB
:1049F00090B210BD5100091A5B189BB2F4E7C04693
:104A000070B5040000690E00002803D0012149425E
:104A100002F0D6FA25896089A288A9B283B28542BC
:104A20002CD3CD1AADB2002D2ED0AA4208D291427D
:104A300030D3891A8BB263819A4203D89B1A9BB2F6
:104A40009A42FBD9E28821685204520C5343300049
:104A5000C918FDF739FC63890125591C89B2A28860
:104A60008B4213D900215200891A89B220696181D1
:104A7000002801D002F074FA280070BD5500ED1A2C
:104A80004D19ADB2002DD0D1618989B25200914249
:104A9000ECDBE9E789188BB26381CDE7F0B54646D8
:104AA0004F46D646C0B506000069894690460028A4
:104AB00003D00121494202F083FA31897289B58815
:104AC0008BB294B2914254D31F1BBFB2002F4AD075
:104AD000BD4205D2AB4251D25B199CB22F0074810A
:104AE0004346B8453DD89FB2A54203D8641BA4B243
:104AF000A542FBD9F28831685204520C90466243B9
:104B00002B1B9BB2891842469F4225D953439BB227
:104B10001A0048469A46FDF7D7FB434648467D1B98
:104B200064195C4331685044A2B2FDF7CDFB718932
:104B3000B588CB199BB26A00994216D99B1A9BB2D1
:104B400030697381002801D002F00AFA3800E0BC15
:104B5000BA46B146A846F0BD48467A43FDF7B4FBD5
:104B6000E5E73B1CBFE773899BB26A009342E7DB32
:104B7000E4E76F003F1BDF19BFB2A7E75B1B9CB2E6
:104B8000ACE7C046F8B50400C0680E00002803D0AA
:104B90000121494202F014FA258920896189A288FD
:104BA000ADB283B28FB2884229D3DB1B9BB29A424B
:104BB00009D8E779FF0906D1E068002801D002F0A2
:104BC000CFF93800F8BD95421ED32B009B1A9BB23B
:104BD0009342FBD2E28820685204520C53433100C6
:104BE000C018FDF771FB6B1C9BB2A2889D4218D9BF
:104BF000002352009B1A9BB201272381DCE751005E
:104C0000C91B5B189BB2D2E72B00E28820685204D4
:104C1000520C53433100C018FDF756FB0135A288F2
:104C2000ABB252009342E7DBE4E7C046F0B557462B
:104C30004546DE464E46E0B5140005000F0083B041
:104C4000002A75D0C068002803D00121494202F033
:104C5000B7F92E89E9796A89AB88B6B292B2C909E7
:104C600045D1964200D36DE059008A1AB21892B22B
:104C7000002189469A4234D29A1A111C92B2A24259
:104C800000D9211C8AB29146EA885204520C9046FF
:104C90004A46B21892B292464A46D21A92B2934605
:104CA00034009E4203D3E41AA4B29C42FBD2424693
:104CB000624328681B1B9BB2801842464B4554D365
:104CC0004B4639005A43FDF7FFFAAB885B00564567
:104CD00001D89A4503DB5246D31A9BB29A465346F3
:104CE0002B81E868002825D002F03AF922E0E98813
:104CF0004904490C88469C4227D2964247D3B11AB0
:104D000089B28C465800E11A89B28B46614609196E
:104D1000814208DBD11889B20E1BB6B28A46B24274
:104D20003BD9361AB6B2A21992B29246A146B7E75B
:104D300000239946484603B0F0BCBB46B246A9469C
:104D4000A046F0BDB21A92B292E700218946002B2C
:104D5000C7D04146E41A4C431600D118002289B24C
:104D60008A46994693463F199AE753439BB21A00E5
:104D700039005C440193FDF7A7FA414622004A43FB
:104D8000019B286892B2F918FDF79EFA9DE758003A
:104D9000811A711889B28C46B5E7A146B04200DD90
:104DA0007EE7BEE710B50400C068002803D00121EB
:104DB000494202F005F92069002803D00121494247
:104DC00002F0FEF80023E06863812381002801D00F
:104DD00002F0C6F82069002801D002F0C1F80120D5
:104DE00010BDC046C37970B5DB0904000D008B42CD
:104DF0001DD0C068002803D00121494202F0E0F82C
:104E00002069002803D00121494202F0D9F87F230C
:104E1000E279ED011340E0682B43E371002801D0F3
:104E200002F09EF82069002801D002F099F80120D4
:104E300070BDC046F0B5C646431E00B50A3314D84F
:104E4000072304001A000834224023426CD01300C8
:104E5000093BA34209D31030841A01F0F7F9374A0D
:104E600027001568002D28D10EE001F0EFF9334A34
:104E70001368002B06D0002501F0F0F9280080BC53
:104E8000B846F0BD0027002407202D4D2B00290037
:104E9000284245D100202B4E706031602A4EB44626
:104EA00007266544B5431560284AEB1A1360284A63
:104EB0006860286013604B600D60002FDBDD244FBD
:104EC0003E68A642D7D31F48036804E01A68002A48
:104ED00004D0180013005968A142F7D3AB42CAD0DE
:104EE0001D001A680835904602600A1B102A05D971
:104EF00019194A6042460A6001602100134A761A75
:104F000010683E60864200D21660802212060A4374
:104F10005A6000221A600F4A136801331360ABE72E
:104F2000EB1D83431900B5E701F090F9034A270010
:104F30001568002DA8D0002CC1DA9CE708210020BC
:104F4000B423002074240220F8FF0100442402202E
:104F5000382402205024022070B5002804D00838DC
:104F600043680400002B00DB70BD0268002AFBD1FF
:104F70005B005B084360050001F068F9184A61684E
:104F800013685B181360174B1A001B689C42FBD810
:104F900050681618B4420DD0601883421AD02360AE
:104FA000AA4200D01560104A13680133136001F063
:104FB00055F9D9E70918501851608342F3D10B48CD
:104FC000150000688342EED058681B68411869607C
:104FD0002B60E5E7054800688342F5D1DFE7C0466E
:104FE00038240220742402205424022008210020A6
:104FF0000B4A13681868203080F30988022080F378
:105000001488BFF36F8F3FBCAE4608BC04BC62B6C9
:105010001847C046C046C046C046C046C046C04607
:10502000FC20002000000000000000000000000044
:10503000EFF30980164B1A6820381060F0C0444620
:105040004D4656465F46F0C00D221207146E556E4F
:10505000566F176F3038F0C008B572B601F0E0F93E
:1050600062B60CBC116808681030F0C8A046A946AA
:10507000B246BB4680F309880D2212073038F0C8CB
:105080001466556656671767F0C81847C046C0468D
:10509000FC20002010B5FBF7C3FBC046D02300B5B1
:1050A0001B061A6D83B0D20704D501219A6D1A6DC3
:1050B0001142FBD1D023FF221B061A65002312499F
:1050C00001930A68EFF3108C72B61368002BFCD0C2
:1050D000BFF35F8F00230D48096802680360BFF3C8
:1050E0005F8F0B608CF31088094B0A48196801AB7D
:1050F00001F060FE019B002B03D08022064B52057D
:105100001A6003B000BDC046F8200020CC23022066
:10511000342402201956001004ED00E07047C04608
:1051200010B58024031F64041C60043B196003490C
:10513000043B1960143B40381A6010BD95500010B4
:105140008022044B52051A60BFF34F8FBFF36F8F5D
:105150007047C04604ED00E072B6044A136801339C
:105160001360BFF34F8FBFF36F8F7047C8230220C8
:10517000034A1368013B1360002B00D162B67047ED
:10518000C8230220EFF3108072B6704780F31088B6
:105190007047C04610B5FFF7F5FF040001F02EF987
:1051A000002803D08022034B52051A602000FFF72D
:1051B000EDFF10BD04ED00E0002310B5084A094CD6
:1051C000052023601360FCF787FBFA218900FCF7B8
:1051D0006BFD054B013818600723236010BDC046E6
:1051E00018E000E010E000E014E000E0FF221F4BB8
:1051F0001204196810B50A431A60FF2219681206D2
:105200000A431A601A490E2001F0E8FD19490F20DF
:1052100001F0E4FD18490B2001F0E0FDFFF7CCFFA1
:105220000022164B1A60D0231B06154A1C68147006
:10523000FF221A651A6DD20704D501219A6D1A6DE5
:105240001142FBD10F34FF212000FBF7E3FD2000CA
:105250000C49FBF7D1FB01212000FBF795FBFFF781
:10526000C7FE01F0DDF8FBF7DBFAC04620ED00E0F9
:1052700031500010955100101D510010C82302201C
:10528000391000209D500010D02310B51B0618685F
:10529000074B1B78834200D010BDEFF30583002B32
:1052A00002D05B00C018F7E701F020FBF4E7C0462E
:1052B000391000202D4A30B5944603680C00634431
:1052C00083B099105C2B00D918390122284B8A40F1
:1052D0001978D0231B061B6899421FD040BF254D6B
:1052E000036829688B4235D00B68002BFCD0BFF3D4
:1052F0005F8F21490B6813430B602B68BFF35F8FEF
:1053000000221A600368D021002209064A65BFF313
:105310005F8F1A6084F3108803B030BD40BF03680C
:10532000BFF35F8F0021196084F31088EFF30583CA
:10533000DBB2002B13D0114B01911148196801AB5E
:1053400001F038FD019B002BE6D080220D4B520569
:105350001A60E1E70848016811430160D3E7074B91
:105360001100186800F00AF9D6E7C04600FFFF2FC9
:1053700039100020F8200020CC2302203424022001
:105380001956001004ED00E0F0B5CE46474680B552
:105390001D00364B14001A78D0231B061B6880466C
:1053A000894683B09A420FD00368BFF35F8F002213
:1053B0001A6081F3108820002900FCF707F903B078
:1053C000C0BCB946B046F0BDFCF78EF926002F00F0
:1053D0000123361A8F41264A5B42B6185F41002FDF
:1053E00020DC1BD043461B68BFF35F8F00221A608E
:1053F00089F310881F4B5A6A954205D89B6A012091
:10540000A342DCD29542DAD180221B4B52051A60AE
:10541000BFF34F8FBFF36F8F0020D0E7FA239B00BD
:105420009E42DFD3FA220023300039009200FCF7BD
:1054300061FC031ED6D042461268BFF35F8F002185
:10544000116089F310880D4A0D49106842468C4658
:105450001268624496105C2A00D9183E012100931C
:10546000B1400023012200F02DF8C3E739100020DD
:1054700018FCFFFF0040054004ED00E0342402204A
:1054800000FFFF2F10B5FBF741FA054A054B944684
:1054900060448000186000F009F8034B186010BDEC
:1054A00040000034F82000203424022010B51820D9
:1054B000FFF7C0FC041E03D0002308C000F0F4F87E
:1054C000200010BDF0B5C646060000B50D009046A0
:1054D0001F0000F0BBFE3468002F13D125420BD013
:1054E0004346002B0BD02300AB43336000F0B6FEE5
:1054F000200080BCB846F0BD069B002B21D100F0F7
:10550000ADFEF5E72B0023409D42E9D0069B002B22
:10551000F5D0434680215A1E9341C9041B06194306
:10552000069A2943301D01F009F800F097FE002883
:105530001CD001F013FA0400830107D52402240AC9
:10554000D6E741464B1E99410906E9E7FFF704FEFD
:105550003468002F0DD12C4205D04346002B02D0D9
:105560002300AB433360FFF703FEE7E7FFF7E8FDF7
:10557000DFE723002B409D42F5D1EEE7F0B5DE4694
:1055800057464E4645460400E0B583B00D00060080
:10559000019000F05BFE2200136824690C361D4365
:1055A00037001560A6422BD0002399468023DB04E8
:1055B000984680235B049B4680239B049A460FE019
:1055C00000290BD059460A4202D04A461A43914656
:1055D0005146294301F0F4F8019B1D68A7420DD004
:1055E0002000290046460268646813021B0A19401D
:1055F0003242E5D08B42E5D0A742F1D14B469D43E4
:10560000019B1D6000F02AFE280003B0F0BCBB46E1
:10561000B246A946A046F0BDF8B5DE4657464E460E
:105620004546E0B505000F00060000F00FFE2968B2
:105630002C6939430C362960A6422CD000239846A9
:105640008023DB049B4680235B049A4680239B04D3
:1056500099460FE06746002F0AD057463A4202D0DB
:1056600042461A4390464B46194301F0A9F829686F
:10567000A6420ED020000F000268646813021B0AC5
:105680001F40BC465F463A42E4D06345E5D0A6429F
:10569000F0D143469943296000F0E0FDF0BCBB46E1
:1056A000B246A946A046F8BD030008330122436074
:1056B000C360036100235242826003607047C046AA
:1056C000002303617047C046030030B50D680833FE
:1056D0006A1C0DD01C005B681A68AA42FAD94B609C
:1056E000996003688C60013361600861036030BDBC
:1056F00004696368F3E7C0460369416882688A60A9
:1057000051605968814205D0002202611868013851
:10571000186070475A60F7E7F0B5DE464E465746C8
:105720004546E0B585B00600FFF716FD4523F45C5D
:1057300064B2002C21DD213B994621339A46B144C5
:1057400009E0AA6BEB6B03969A4245D3013CE3B2A6
:1057500064B2002B11D0B56C002DF2D1736A002B0E
:105760000BD0484600F0C6FF0028EFD001F0B8F893
:10577000013CE3B264B2002BEDD14523FF22F25489
:10578000FFF7F6FCFFF7E8FC44233500F45C103526
:1057900064B2002C05DC13E0013CE2B264B2002AE2
:1057A0000ED03369002B0BD0280000F0A3FF002897
:1057B000F2D0013C01F094F8E2B264B2002AF0D1D8
:1057C0004423FF22F254FFF7D3FC05B0F0BCBB46E4
:1057D000B246A946A046F0BD53462A6CEF5CAB6BBF
:1057E0007FB29846002A16D101239C462B68E044DC
:1057F0009B46002B2BD04346AB637B1C1DD16B6AB1
:10580000002BA3D02800243000F074FF00289DD086
:1058100001F066F8ACE703A96868FCF755FD41465E
:105820006B682A6C01319B18AA686B60934201D3A4
:105830002B686B60A9637B1CE1D000F0D9FDB842F6
:1058400000D883E7452301377FB2EF547EE7A8688D
:1058500001F052F85B46AB6043460190AB637B1CA2
:1058600009D16B6A002B0FD1019B002B00D16DE792
:1058700001F036F87CE700F0BBFDB842F4D953469E
:1058800001377FB2EF54EFE72800243000F032FFF9
:105890000028E9D06AE7C046F0B5C64600B5846C7A
:1058A00082B0A26BE36B002501909A4204D32800DA
:1058B00002B080BCB846F0BD4523226CE65CA76B05
:1058C00076B2002A1CD0606801A9FCF7FDFC636871
:1058D000226C9B18A2686360934201D323686360C3
:1058E00000250137A763731C15D1636A002BDED036
:1058F0002000243000F0FEFE0028D8D00125D6E795
:1059000023689846002BEBD1A06800F0F5FF4346D2
:105910000500A360E5E700F06BFD8642C7D2452392
:10592000013676B2E654C2E770B505000E000028D5
:105930003FD0030C0A0C002B40D1002A2ED130009E
:10594000684303004D3334D84C30FFF773FA041E1C
:105950002FD00300002E2FD12360E5632664FFF7CC
:10596000FBFB216CE36B22684B43D0185B1A62602F
:10597000D218E260FF2300254422A0602000A56326
:10598000A3540132A3541030FFF78EFE20002430C0
:10599000FFF78AFEFFF7ECFBA5640BE0131CA9B22E
:1059A000B2B24A4380B29BB24343120C9B181B0C09
:1059B000C5D00024200070BD4C33CDE7002AF8D1BB
:1059C000301CECE7F8B54E46DE4657464546040027
:1059D000E0B591461D000F00FFF7D4FBA26BE36B0F
:1059E00006009A422DD300239846022D09D030009C
:1059F000FFF7CCFB4046F0BCBB46B246A946A046EA
:105A0000F8BD4533E35C226C5BB29846A36B9B46C2
:105A1000A36B9A46002A3BD15746236801379A4622
:105A2000002B63D04346A763013327D1A36C002B1F
:105A300042D0022D4AD15B46002B47D00123984625
:105A4000D5E74523E35C226C5BB29846A36B9B468B
:105A5000A36B9A46002ADFD0002D19D13900574692
:105A60006068FCF731FC6368226C01379B18A26800
:105A700063609342D6D323686360D3E700F0B8FC39
:105A80008045DBD24346452201335BB2A354D5E7C0
:105A90003900E068FCF718FC226CE36851429B1A5D
:105AA0002268E360934202D2A3685B18E360574622
:105AB000022D17D00137B5E7636A002BBED0200056
:105AC000243000F017FE002805D1B7E72000FFF7CB
:105AD000E3FE0028B2D04B46002BAFD001234A464C
