:020000041000EA
:10000000002008205D0100101301001015010010F0
:100010001101001011010010110100101101001058
:100020001101001011010010110100101701001042
:100030001101001011010010190100101B01001026
:100040001D0100101D0100101D0100101D010010F8
:100050001D0100101D0100101D0100101D010010E8
:100060001D0100101D0100101D0100101D010010D8
:100070001D0100101D0100101D0100101D010010C8
:100080001D0100101D0100101D0100101D010010B8
:100090001D0100101D0100101D0100101D010010A8
:1000A0001D0100101D0100101D0100101D01001098
:1000B0001D0100101D0100101D0100101D01001088
:1000C0001D0100101D0100101D0100101D01001078
:1000D0001D0100101D0100101D0100101D01001068
:1000E0001D0100101D0100101D0100101D01001058
:1000F0001D0100101D0100101D0100101D01001048
:100100001D0100101D0100101D0100101D01001037
:1001100000BE00BE00BE00BE00BE00BEEFF3058004
:10012000103800BEF2EB88710468001024680010DB
:10013000A801001090A31AE7D3DEFFFF42012110AF
:10014000FF01000040780000793512AB4FF000004D
:100150002049086006C881F3088810474FF05040D6
:10016000006810B14FF00000F2E70FA40ECC002998
:1001700002D000F015F8F9E71749184A002000E00E
:1001800001C19142FCD1002080F30A8814498847BC
:10019000144988471449884700BEFDE701C901C2D8
:1001A0009A42FBD3704700BF246800101001002062
:1001B0006412002078790010000008200000082058
:1001C00078790010001008200010082000000000BE
:1001D0007047000008ED00E064120020D4210120E7
:1001E000391700100D03001031170010F8B500BFCB
:1001F0000348044B834202D0034B03B118477047B6
:10020000641200206412002000000000064B074921
:10021000C91A891048BF0131491003D0044B0BB1F2
:1002200001481847704700BF641200206412002084
:100230000000000010B5064C237843B9FFF7D8FF43
:10024000044B13B10448AFF300800123237010BDA9
:10025000F814002000000000E863001008B5044B0B
:100260001BB104490448AFF30080BDE80840CDE766
:1002700000000000FC140020E863001070B5192095
:1002800000F06CF84FF00105192345EC44300B4E9B
:10029000304601F091FB192445EC40404FF47A7050
:1002A00005F0ECF8064801F087FB4FF0000343EC43
:1002B00040404FF47A7005F0E1F8E9E7E863001098
:1002C0000464001070B5102000F048F84FF00105EC
:1002D000102345EC44300B4E304601F06DFB1024EA
:1002E00045EC40404FF4FA6005F0C8F8064801F0CC
:1002F00063FB4FF0000343EC40404FF4FA6005F01D
:10030000BDF8E9E7206400103C64001000240125DA
:1003100000B583B001F00CFB4FF4FA6000F0DEFE94
:10032000CDE9005402254FF480722346074908485E
:1003300004F0ECFD4FF4807223460649CDE90054E9
:10034000054804F0E3FD04F0F9FEFEE758640010F0
:100350007D02001064640010C502001030B44FF03C
:10036000000343EC440043EC400005254FF4807447
:100370000B4BC20053F8201003EB800081F04001CA
:1003800002F1804303F5203301F0C00200F58051F3
:1003900000F540500A605D60046030BC704700BFEB
:1003A000048003400FB400B583B0049C074801F0FB
:1003B00003FB3CB105A92046019101F09FF90448D7
:1003C00001F0FAFA012001F0B1F900BF70640010E9
:1003D0008064001008B50148FFF7E4FF8464001052
:1003E00070B58646EFF3108572B6124CD4E8CF6F25
:1003F0000120002EFAD1C4E8460F002EF6D1BFF33B
:100400005F8F4FF0010CC80801F007030CFA03F3EB
:100410001EF800C01CEA030608D14CEA030C0EF8D3
:1004200000C0C4E88F6F85F3108870BD1046FFF7D9
:10043000B9FF00BF8F170020F8B5EFF3108572B633
:10044000234CD4E8CF7F0126002FFAD1C4E8476FB0
:10045000002FF6D1BFF35F8F9A4227D80126D70825
:1004600010F807E002F0070C06FA0CFC1EEA0C0F6D
:1004700000EBD2070DD125E04FEAD20E10F80EE0C6
:1004800002F0070C06FA0CFC1EEA0C0F00EBD20778
:1004900018D001329342EFD24FF0FF300023C4E86E
:1004A0008F3F85F31088984207DBF8BD0023C4E82E
:1004B0008F3F85F310884FF0FF300029F5D0069864
:1004C000FFF770FF4EEA0C0E104687F800E0E5E7F4
:1004D0008F170020044A1078431CDBB2182B28BF6A
:1004E00010231370704700BFB811002010B5054CE1
:1004F00082B001461F23182200940348FFF79CFF97
:1005000002B010BD94640010A01B00204FF0E02248
:10051000936843F000539360704700BF0021044B81
:1005200003F12002C3E88F1F01339342FAD17047D1
:10053000841700204FF0E0234FF08032C3F80024EE
:10054000C3F80424C3F80824C3F80C24C3F8102407
:10055000C3F81424C3F81824C3F81C24C3F82024B7
:10056000C3F82424C3F82824C3F82C24C3F8302467
:10057000704700BF012300F01F029340400941B1C2
:10058000800000F1604000F56140C0F880310360F8
:100590007047024A203042F82030704700E100E006
:1005A0000123064A410952F8212000F01F00834030
:1005B000134214BF01200020704700BF00E100E09B
:1005C00001224309034900F01F008240403341F8F3
:1005D0002320704700E100E0054A10309268054B87
:1005E00052F82000C01A2F288CBF0020012070472D
:1005F00000ED00E0BC110020F8B50D46EFF31087C8
:1006000072B6124ED6E8CF2F0123002AFAD1C6E8DF
:10061000423F002AF6D1BFF35F8F0D4B00F110046B
:100620009B680C4A53F82430934203D0994201D07E
:1006300000F070FF064B9B6843F82450BFF35F8FB8
:100640000023C6E88F3F87F31088F8BD8D17002080
:1006500000ED00E01D0100102DE9F04F81468B46B2
:10066000164683B0EFF3108372B6DFF8D0A1009383
:10067000DAE8CF1F01230029FAD1CAE8413F002957
:10068000F6D1BFF35F8F664B93F90040002CC0F2A8
:10069000A080644D04EB440705EB870898F806102A
:1006A00009F110091970604BBF009B6853F82900CD
:1006B0006300411B2F292FD95C49884240F0A48058
:1006C0001C445B4B02372F44043BDB1BC3F34A0340
:1006D0006FEAC3434FF421416FEAD34325F8241056
:1006E00005EB840463804BF60153A380FF2348F09D
:1006F0000100E671C4F808B0A3714B4B9B6843F846
:100700002900BFF35F8F0023CAE88F3F009B83F36C
:10071000108803B0BDE8F08F20F0010E9EF807109E
:10072000B1422ED84FF42143EB53414BB91C29441D
:10073000043B04375B1A2F44AEF104013D4CC91B46
:10074000C1F34A012143A8F80410C3F34A033A490C
:100750002343A8F802304AF6AA2073465B1B5B418C
:100760005843000D88F8076088F80600C8F808B0FC
:1007700048F00100CEF80010BFE7D179B1422ED980
:1007800096469EF906C00CEB4C02BCF1000F05EB3F
:100790008202F2DA4BF601510EF10402A8F10407CD
:1007A000BF1AC7F34A076FEAC7476FEAD7478EF801
:1007B000064003EB0408204C05EB8803AEF80470F8
:1007C00045F82840998083F806C0DE71C3F808B068
:1007D00093E700F09FFE124B93F9004059E77246F1
:1007E00032F8041F490514D44915023102EB4101C6
:1007F00001916FF00701C91B019F491B3944C1F3E7
:100800004A0141F46041C9E7019300F083FE019B76
:1008100056E701F5FF1101F5FF511F31E4E700BF75
:10082000CF210120BC11002000ED00E01D010010CF
:10083000EC11002000E0FFFF014880478D170020E9
:10084000F0B5EFF30585EDB2EFF3108C72B62649E3
:10085000D1E8CF2F0123002AFAD1C1E8423F002A74
:10086000F6D1BFF35F8F214E40F0010EB4684AF617
:10087000AA2354F825701E4A0446A41A644163430F
:100880001B0D77455BB21BD092F906409C421CD0F1
:1008900092F912409C4223D092F91E409C4221D0F2
:1008A00092F92A409C4208BF03240FD0114A002429
:1008B000157813708571C1E88F4F8CF31088F0BDE7
:1008C000B2680D4C42F82540F0E7002404EB4404E4
:1008D00002EB8402FF2494714BF601549480E5E707
:1008E0000124F3E70224F1E78D17002000ED00E07A
:1008F000BC110020CF2101201D01001010B5074CB4
:1009000082B001460523002200940548FFF794FDBC
:100910000028A8BFC0F1330002B010BDB0640010C1
:10092000D3210120014B0B44036070478417002042
:10093000F8B5124C124DAC4211D24FF0FF360027E1
:1009400023686BB1FFF7C6FD01462046FFF7EAFFBB
:1009500066602772BFF35F8F0C34AC42F0D3F8BDF2
:10096000FFF7B8FD01462046FFF7DCFF6660BFF3E6
:100970005F8F0834AC42E3D3F8BD00BF54120020AF
:100980006412002010B50446FFF7A4FD014620467E
:10099000FFF7C8FF4FF0FF336360BFF35F8F10BDF9
:1009A00010B504460120FFF7A1FD034B034423606B
:1009B000BFF35F8F10BD00BF84170020024B0B44B4
:1009C0000360BFF35F8F70478417002000000000B2
:1009D0002DE9F04F2DED028B85B0EFF30583DBB2EF
:1009E000103B9A0818BF01224FF0010103F00300E9
:1009F00018BFAF4DAF4B08BFAF4D00EB820253F8AD
:100A0000226001FA00FB05F541539FEDA78B019091
:100A1000C3F804B02EE0B388180440F19280B37993
:100A2000002B40F0DC80B6F908100029C0F21D81CF
:100A3000736901EB410103EBC103D3E90247B7F14D
:100A4000FF3F08BFB4F1FF3F0DD0019B05EB8301D1
:100A5000AB6A0A69D21AE31A934203D32B6A13EAE8
:100A60000B0F00D10C61284600F0BEFBA042B9413B
:100A7000C0F2FB80B6F90830C5F83CB0002B0093FB
:100A8000C9DBD6F8149003EB430A284609EBCA07E2
:100A9000D7E9024800F0A8FBA04271EB0801BADBDD
:100AA000B8F1000FC0F2C380D7E90431834A934202
:100AB00000F0ED807A88B6F9080092B242EA004070
:100AC000984702460B4652EA030100F0B080002B23
:100AD00080F2D180B4EB020E68EB030839F93A30AA
:100AE000C7E902E8002B96DB716903EB430201EBD7
:100AF000C202D2E90270BE4578EB000C4FEA430215
:100B000089DBB4462CF8083F0BE031F93230A446BB
:100B1000002B0DDB03EB430001EBC0005A00D0E9D2
:100B20000270BE451A4478EB000001EBC204ECDA17
:100B300029F83A30009BACF80030B38818043FF530
:100B40006EAF3369EFF3108272B6D3E8CF0F012195
:100B50000028FAD1C3E8401F0028F6D1BFF35F8F09
:100B60004FF6FF74B0880023316900B2B480C1E849
:100B70008F3F82F310889842FFF651AF0746A9468F
:100B8000746906F1080807EB470E04EBCE03D3E9BE
:100B90000250B6F90830C446002B13DBB24600976A
:100BA00004E034F936309446002B09DB03EB4306AE
:100BB00004EBC602D2E90271BD4270EB0101F0DA2A
:100BC0005646009FACF8007034F93E7024F83E3071
:100BD000002FD8DAB3794D46002B3FF424AF002321
:100BE000B371B6F9083006F10808591C3DD0194612
:100BF000776903E080465A1C3FF417AF03EB4302CA
:100C000007EBC200B0F802C01C461CF4004F9E4621
:100C100037F93230EED08C4280ED028B05D0A8F847
:100C20000030318927F8321034817146E3E739F812
:100C30003A3033813369EFF3108272B6D3E8CF0FC5
:100C400001210028FAD1C3E8401F0028F6D1BFF3E4
:100C50005F8F7388316929F83A30009B73800023D5
:100C6000C1E88F3F82F31088D5E640BF05B0BDECE8
:100C7000028BBDE8F08F2846CDE9022300F0B4FADC
:100C8000029A039B10EB020E43EB010826E708468D
:100C90000B69029198470028C9D00299D1E9002335
:100CA00011E700BFAFF30080FFFFFFFFFFFFFFFF73
:100CB00000800B401820002000000B40D1090010DC
:100CC0000B4808B50368EFF3108172B6D3E8CFCFB5
:100CD0000122BCF1000FF9D1C3E84C2FBCF1000F89
:100CE000F4D1BFF35F8F03F053FB0020002108BD58
:100CF000C02000202DE9F84F364C25692DB1BDE804
:100D0000F84F0A213448FFF70DBEDFF8E4800321D5
:100D1000404600F057FA0326C4F80C80FFF7DAFBD0
:100D20004FF0504C2D4B267003442361DCF800300B
:100D30000F216370636961801D834FF00405A3F880
:100D400078504FF00505A3F890504FF00605A3F832
:100D5000A8504FF007050E214FF6FF7208274FF0FD
:100D60000A0EA3F8C0504FF001094FF00C0C4FF0E1
:100D7000020B4FF0090A0D204FF00B05A3F8681184
:100D80001749A280A3F808E1A160A3F848B0A3F82E
:100D9000F0A0A3F82051A3F838C1A3F85001A3F89C
:100DA0003090A3F86060A3F8D8701A800D4B3046DD
:100DB000C8F820700C49DC60FFF71EFC494630463D
:100DC000FFF7D8FB094B0A211F640348BDE8F84F21
:100DD000FFF7A8BD04120020C020002084170020C7
:100DE000FFFF100018200020D109001000200B4048
:100DF00000000B400048704704120020F8B59DF831
:100E00002070044616461D4637B900F0F5F98642B3
:100E100065EB010100295CDB2369EFF3108772B6F3
:100E2000D3E8CF1F01220029FAD1C3E8412F0029BE
:100E3000F6D1BFF35F8FB4F902C063690CEB4C01CC
:100E4000BCF1000F4FEAC10203EBC10138DB985A35
:100E50004FF0000E60802069C0E88FEF87F31088A4
:100E60000698C1E902650861079848614888013021
:100E7000C0F30E00012838BF0120488040EA0C4032
:100E80002169EFF3108572B6D1E8CF7F0126002FDC
:100E9000FAD1C1E8476F002FF6D1BFF35F8FA18869
:100EA0009952A4F804C02369C3E88FEF85F3108832
:100EB0000122E368217803F501538A405A60F8BDA6
:100EC00000232269C2E88F3F87F310884FF0FF307C
:100ED000F8BD3846F8BD00BF0146F0B50069EFF334
:100EE000108772B6D0E8CF5F0124002DFAD1C0E898
:100EF000454F002DF6D1BFF35F8FB1F902E04C6989
:100F00000EEB4E0CBEF1000F4FEACC0504EBCC0CFF
:100F10003DDB605B002648800869C0E88F6F87F37F
:100F20001088BCF80200CCE902230130C0F30E00A7
:100F3000012838BF0120059BACF80200CCF8103026
:100F4000069B40EA0E40CCF814300B69EFF3108298
:100F500072B6D3E8CFCF0127BCF1000FF9D1C3E8B7
:100F60004C7FBCF1000FF4D1BFF35F8F8B886353CC
:100F7000A1F804E00B69C3E88F6F82F310880122A7
:100F8000CB68097803F501538A405A60F0BD00230D
:100F90000A69C2E88F3F87F310884FF0FF30F0BD39
:100FA00003464089B0EB214F37DD58690A1402EB44
:100FB000420210B500EBC2001C69EFF3108C72B650
:100FC000D4E8CFEF0122BEF1000FF9D1C4E84E2FD3
:100FD000BEF1000FF4D1BFF35F8F428889B292B2A5
:100FE0008A4207D000221B69C3E88F2F8CF3108838
:100FF000002010BD42F40042428001210022186905
:101000009971C0E88F2F8CF310881C78DA68084635
:1010100002F50153A140596010BD0020704700BF88
:10102000407870472DE9F043B0F1960641F1FF3565
:10103000B04271EB050338BF002683B038BF354698
:1010400004460F4600F0D8F8301A65EB010301287A
:1010500073F1000306DA2046394603B0BDE8F043D9
:1010600000F0D4B800F0C8F8864265EB0101002911
:101070000ADB0021154B3246009315482B4601919F
:10108000FFF72AFF0028E6DBDFF84C80DFF844900A
:10109000D8F824309D4205D8D8F82820B242DAD2B8
:1010A0009D42D8D1D9F80030EFF3108172B6D3E861
:1010B000CF0F01220028FAD1C3E8402F0028F6D133
:1010C000BFF35F8F034803F031F9E1E7C10C001073
:1010D00004120020C020002000000B4010B5044680
:1010E00000F08AF84FF47A734FF0FF3C6FF0004243
:1010F000E4FB0301BDE81040844572EB01033CBFF3
:1011000060461146FFF78EBF2DE9F04306460D46B7
:1011100083B0EFF30584E4B23CB1274B586AA84290
:101120001CD2002003B0BDE8F083244FD7F80C9008
:1011300097F80080484600F057F808F1040859F87D
:1011400028301B1A301A65EB0101984271F1000139
:1011500011DB20BF184B586AA842E2D39B6AB34206
:1011600003D3012003B0BDE8F083401B18BF01206A
:1011700003B0BDE8F08300F03FF8864265EB010163
:101180000029CADB0E4B3846CDE9003432462B46E7
:10119000FFF7A2FE011EC0DD074B5A6AAA4208D320
:1011A0009B6AB34203D30548FFF7FAFEB5E7AA42AC
:1011B000F9D120BFF7E700BF00000B400412002068
:1011C000C10C001010B4054B054C064AA04214BFD8
:1011D0001846581C5DF8044BFFF702B9A41B002009
:1011E00000800B40CC6400100346416A0A46986AAE
:1011F000596A8A42FAD17047034B596A0A46986A7B
:10120000596A9142FAD1704700000B40074A536A6D
:101210009942FCD8994207D1044B02E05A6A9142A4
:1012200002D19A6A8242F9D3704700BF00000B4096
:1012300000EB400C4FEA8C0C0CF1804C0CF5803C20
:10124000F0B51646DCF80420051FB2F5803F38BF24
:101250004FF48032EDB238BFCCF80420012D2AD9EA
:101260004FF40067254C0CF54052176054F82020CD
:10127000B2B9DCF80020012D82EA461202F0E00249
:101280000CF5805632602AD94FF4006144F82030C2
:101290004FF480330CF500521160CCF80430F0BDEF
:1012A0006769B7FBF2FE0EF1010E0EEB4E0EBEF1BA
:1012B000030EFCD2DDE70129D2D103240CF5405204
:1012C0001460DCF80820D207FBD5DCF800200B4CBA
:1012D00082EA461202F0E0020CF5805632600122EA
:1012E000DCF800504D4005F00305356002FA01F1CD
:1012F000DCF808200A42FBD0C6E700BFA81B00208C
:10130000014B53F820007047A81B002070B4039DC8
:1013100004682D0345EA03451B4B002CB3FBF1F396
:10132000B2FBF3F61FDB194A194B904214BF4FF47E
:1013300080424FF40042174C1A6003F580531A6044
:10134000A36832EA0303FBD1212200F540530433A2
:10135000016086601A600268002AFCDA0822C56013
:101360001A6070BC7047036803F03F038B42DAD108
:101370008368C3F30B03B342D5D1C36803F4EE23F0
:10138000AB42D0D1EDE700BF001BB70000800540A5
:10139000002002400000024030B44FF080441C4B5B
:1013A0001C60E0B11B4CA3F54053DC611A4C40F0CB
:1013B000010044401C62596298624FF080454FF032
:1013C000E061134B1548164C1D60846019604AB9E2
:1013D00030BC4FF00042A3F580531A607047114BA8
:1013E000D861EAE74FF47A7303FB02F2B2F1807F2F
:1013F0002ABF6FF07F4313461A464FF080410A4CD4
:1014000008482360094B426030BC1960704700BF38
:1014100000B00D40D3C007B02D3FF84F00A00140F1
:10142000F3FFFF0100800D400820002000A00D40C8
:10143000012300EB4000800000F1804000F58410A3
:1014400041600360704700BF002370B5DB8A04462B
:101450000D46002242E800F2520254BF102104213E
:1014600044F25220984786462B462246F446BDE871
:1014700070400A214FF48170604700BF0023DB8A6F
:10148000002242E800F2520201D410211847042140
:10149000184700BF08B503460846191E02DB1AB1FB
:1014A00040F03000FFF7D0FF40F02000FAE700BF27
:1014B000034AD2F82838002BFBD0BFF35F8F704768
:1014C00000000E400021044B044ABFF35F8F43F835
:1014D000041B9342F9D170470C080E402C080E40B3
:1014E00010B44FF48D704FF42A64064A064B074936
:1014F0001460D06019605368002BFCDA5DF8044B6F
:10150000704700BF0080044000A0044000B0FA0013
:10151000704700BF08B50148FEF744FFF0640010B3
:1015200038B5054C054DAC4204D254F8043B9847FD
:10153000AC42FAD338BD00BF98630010D8630010E6
:1015400010B40748074C084B084A094904601A6060
:101550008B6832EA0303FBD15DF8044B704700BF90
:10156000002002407F3BEFEF00300240F6FFF30324
:1015700000000240044BDB6CB3F5004F03D14FF485
:101580008022024BDA647047000011500020115095
:101590004FF0E022044BD2F8881D0B43C2F8883D7F
:1015A00010EE3004704700BF030330006FF060415D
:1015B000044B054A19609368DB4333F06043FAD16A
:1015C000704700BF003002400000024010B545F2F5
:1015D0005320FFF753FFBDE810400346042018478F
:1015E00010B545F25320FFF749FFBDE81040034610
:1015F00001201847FEF792BF10B5054B054C4FF47C
:1016000088721846A16804F0A3FDA06010BD00BF59
:101610000000002000ED00E0002370B52B4C82B0EC
:10162000C4F88430FFF75CFF0122294BDA63636C56
:10163000012BFCD10321264A244B11639C6B012C06
:10164000FCD10226052521460523224A2248009680
:10165000FFF75CFE21462B46204A21480095FFF704
:1016600055FE0022042031461E4BFFF7E1FD2146C6
:10167000284600221C4BFFF7DBFD00220820114604
:101680001A4BFFF7D5FD002209201146174BFFF733
:10169000CFFD002206201146134BFFF7C9FD0022A3
:1016A000114B07201146FFF7C3FD0420FFF728FE6A
:1016B00000240F4BA3FB0035AD0CE0B229460134EA
:1016C000FFF7B6FE062CF8D102B070BD0000014055
:1016D00000300140002F685900000540008C86470B
:1016E00000800540001BB70080D1F008006CDC02D0
:1016F00083DE1B4300B9704700F01CB910B5094BDD
:1017000084B01C684CB1034600914FF0FF3203A92E
:101710000548A047012004B010BD00F04DF9204657
:1017200004B010BD04200020F516001000BEFDE737
:1017300008B5FFF7FBFF00BF38B5064C064DFFF7B5
:10174000EFFEAC4204D254F8043B9847AC42FAD3C3
:1017500038BD00BFD8630010E86300100368084676
:1017600011461847437D2DE9F04781460F4616463E
:10177000002B43D0002A3BDD037D00204D1E014697
:1017800015F8012FDFF884800A2A01F101040ED038
:10179000A6421CD02B782146A3F10D03B3FA83F3A4
:1017A00015F8012F5B090A2A01F10104F0D1002B81
:1017B000EED18142A1EB000138441BDC02214046FE
:1017C000D9F800309847A64208D02046E2E7864282
:1017D00004DD311AD9F8003038449847374417F8F7
:1017E000013CA3F10D03B3FA83F35B0989F81430CC
:1017F000BDE8F087D9F800309847DFE73846D9F8D8
:1018000000301146BDE8F047184700BF3C660010A5
:101810002DE9F04782B00D46924699460746FFF7FC
:10182000EBFC4FF0FF366FF000442F4A821841F175
:101830000003964274EB03013CBF324623462B481B
:1018400004F09EFD6B1C804603D1384604F0FCFC7E
:101850000546274B274E1C68274BB9F1000F18BFD0
:101860001E46B4B1BAF1000F1AD1DFF8909001E032
:10187000246974B12368002BFAD0D9F800300BB179
:101880009C42F5D120462A463946B0472469002CAF
:10189000F0D1B8F1000F1FD1284602B0BDE8F087A3
:1018A0004FF00A0ADFF8549002E02469002CF0D0CF
:1018B0002368002BF9D0D9F800300BB1A342F4D142
:1018C0002A4639462046B047012220460DF107013D
:1018D0008DF807A0B047E8E7044804F041FD28462A
:1018E00002B0BDE8F08700BF40420F005C1200204C
:1018F000F81B00205D17001065170010001C002069
:101900000A4A13684BB1834202D109E0984207D0DA
:1019100003F110021B69002BF8D101B11060704770
:101920000029FCD10369136001617047F81B002096
:1019300000F06EBAF0B583B006468DF80700FFF7E9
:101940005BFC4FF0FF356FF00044174A821841F1FD
:101950000003954274EB03013CBF23462A4613481B
:1019600004F00EFD124B07461C689CB1114D01E0BE
:1019700024697CB12368002BFAD02B680BB19C4200
:10198000F6D1204601220DF10701FFF7EBFE246995
:10199000002CEFD117B9304603B0F0BD034804F076
:1019A000DFFC304603B0F0BD40420F005C12002067
:1019B000F81B0020001C002038B5044604F044FC4D
:1019C000012305461A4620462946FFF721FF084B0A
:1019D0001C682CB163682BB198472469002CF9D19D
:1019E000284638BD2469002CF4D1284638BD00BFF4
:1019F000F81B0020704700BF0022014B1A7070478F
:101A0000D02101204B79FF2B0BD1887948B9CB79B4
:101A1000012B07D1082A05D9034B8A7809201A70AF
:101A200070470020704700BFD0210120012070477F
:101A3000012901D00120704708B5104B91881B780F
:101A4000994201D0002008BD5378012B08D0022B09
:101A5000F8D1002164220846FFF79EFC012008BD52
:101A60005188CB054BBF4A0A4A0A10464FF0FF3057
:101A700002F0010201F07F01FFF70CFDD0210120EF
:101A80000048704708670010012907D15378012BDF
:101A900002D19388072B03D00020704701207047A4
:101AA0001146A623014A01F041BA00BF606600104A
:101AB0000346012201481A70704700BF40660010BB
:101AC00008B50B68B3F5966F00D008BD00224FF043
:101AD000FF301146FFF7DEFC024A034B106019602D
:101AE000704700BF981B00209C1B0020184B70B54E
:101AF0001A68002A28D0EFF3108172B6D2E8CF4FCF
:101B00000120002CFAD1C2E8440F002CF6D1BFF31B
:101B10005F8F00220F4C186859602270C0E88F2F29
:101B200081F31088002400250B4E3078FEF738FD35
:101B300020B9002400252046294670BD3078FEF7E4
:101B40003FFD2046294670BD4FF47A740025EBE72F
:101B500010200020D2210120D1210120014B187832
:101B6000FEF72EBDD121012038B5044600200D46D8
:101B700001F008FBA8B3002001F01AFB88B3FFF7BF
:101B80003BFB4FF0FF3E6FF0004C174A821841F1CB
:101B9000000396457CEB03013CBF72466346134845
:101BA00004F0EEFBE8B1002001F0ECFA58B9002196
:101BB0004FF0FF3000F012FD6FF002040B4804F00C
:101BC000CFFB204638BD002001F0F2FA0028EED00D
:101BD00021462A46002001F0F7FA04460028EDD1FC
:101BE000EAE76FF00204ECE740420F00C420002057
:101BF00008B5FFF701FB4FF0FF3E6FF0004C0F4AB6
:101C0000821841F1000396457CEB03013CBF72460C
:101C100063460B4804F0B4FB70B14FF0FF30002175
:101C200000F0DCFC002001F015FB0028F5D1BDE838
:101C30000840034804F094BB08BD00BF40420F00B9
:101C4000C42000202DE9F84307460E46FFF7D4FADA
:101C50004FF0FF356FF00044334A821841F1000322
:101C6000954274EB03013CBF2A4623462F4804F0FB
:101C700087FB08B9BDE8F883002001F083FA00284B
:101C800048D0002E41DD0025DFF8A480DFF8A490C5
:101C900013E02246002001F023FB002104464FF010
:101CA000FF3000F09BFC002001F0D4FAFFF7A4FA0B
:101CB000C8E900012544AE4227DD002001F032FBD7
:101CC000741B8442A8BF04467919002CE1D1214637
:101CD0004FF0FF3000F082FC204601F0BBFA2046B6
:101CE00001F050FA88B1204601F01CFB0028E2D137
:101CF000FFF782FAD8F80030D8F8042013EB090374
:101D000042F1000283428A41D5D20848BDE8F84337
:101D100004F026BB00200021054BC3E90001BDE80B
:101D2000F843024804F01CBB40420F00C4200020CE
:101D3000B014002020A1070030B5002185B02E4846
:101D400004F026FBF0B92D4B1A68CAB1EFF31081ED
:101D500072B6D2E8CF5F0124002DFAD1C2E8454F18
:101D6000002DF6D1BFF35F8F254C1D682278596096
:101D7000D3B201222270C5E88F0F81F31088CBB156
:101D800005B030BD00214FF0FF3000F027FC0020EF
:101D900001F00EFA0446184804F0E2FA002CEFD0E5
:101DA000184B1B68002BEBD0174A106805B0BDE834
:101DB00030401847FFF71EF80446FFF71DFA4FF0B2
:101DC000FF3C6FF0004510F57A7241F10003944535
:101DD00075EB030138BF2B464FF000014FF00105B2
:101DE00020460A4C38BF6246CDE901150094FFF742
:101DF00005F805B030BD00BFC42000201020002031
:101E0000D2210120981B00209C1B0020ED1A0010FD
:101E10004FF0504330B585B01C68FEF7EBFFFFF77D
:101E2000FFF8A04202D0002005B030BD00212A4BAF
:101E300008461B7801F046FD28480368002B47D070
:101E40000120FEF75BFD0346254C2649C0B22370F6
:101E5000FEF7D2FB20780121FEF78CFB0E20FEF767
:101E6000BBFB40BB204B0125C3E90000FEF7C2FFCE
:101E70000446FFF7C1F94FF0FF3E6FF0004C10F53C
:101E80007A7241F1000396457CEB03014FF00001AB
:101E90002046164C3CBF72466346CDE901150094BE
:101EA000FEF7ACFF0028BEDB01211148FFF728FD3B
:101EB000012005B030BD0120FEF718FB01460A489D
:101EC000FEF77CFD00220E200A49FEF7C5FBEBE77A
:101ED000FEF758FDB4E700BF20680010C4200020C2
:101EE000D1210120391D001010200020ED1A001012
:101EF0001C1200205D1B001000487047A4670010F2
:101F0000004870475067001038B5184B04461A78DF
:101F10000AB344B940F209424FF44173144D6A8048
:101F200013482B8038BD052C1AD8124B104D53F88E
:101F3000241028460023013903E0132B20F8022F38
:101F400010D011F8012F0133DBB2002AF5D15B006C
:101F500043F44073E4E71121184600F025F8D8E770
:101F6000002038BD4FF44A73DAE700BFD0200120CB
:101F7000D01B00203867001000B545F247308BB009
:101F8000FFF77CFA01220346092101A89847DDE901
:101F90000332044912BA1BBAC1E900230BB05DF841
:101FA00004FB00BFB8200020012901F1FF3300F03D
:101FB000B3805D490A784FEA121C9F2A8CBF0CF14E
:101FC000370C0CF1300C012B80F800C000F0A7801A
:101FD00002F00F02092A8CBF37323032022B4270D6
:101FE00000F09D804A784FEA121C9F2A8CBF0CF1AA
:101FF000370C0CF1300C032B80F802C000F08F80FE
:1020000002F00F02092A8CBF37323032042BC27023
:1020100000F085808A784FEA121C9F2A8CBF0CF151
:10202000370C0CF1300C052B80F804C077D002F08F
:102030000F02092A8CBF37323032062B42716ED024
:10204000CA784FEA121C9F2A8CBF0CF1370C0CF196
:10205000300C072B80F806C061D002F00F02092A6D
:102060008CBF37323032082BC27158D00A794FEA10
:10207000121C9F2A8CBF0CF1370C0CF1300C092B71
:1020800080F808C04BD002F00F02092A8CBF37320B
:1020900030320A2B427242D04A794FEA121C9F2AF0
:1020A0008CBF0CF1370C0CF1300C0B2B80F80AC0F4
:1020B00035D002F00F02092A8CBF373230320C2B98
:1020C000C2722CD08A794FEA121C9F2A8CBF0CF165
:1020D000370C0CF1300C0D2B80F80CC01FD002F027
:1020E0000F02092A8CBF373230320E2B427316D0C2
:1020F000CA7911099F2A8CBF373130310F2B817378
:102100000DD002F00F02092A94BF30323732102B63
:10211000C27318BF103002D00023037070471844F8
:1021200000230370704700BFB820002070B500F096
:1021300033F90C2340261B4CFF22A3670E201A49BB
:10214000FEF78AFA194B32460021184603F0AEFF1B
:102150000346002101258020154A58849A60843A5C
:102160005D701E831E875960C2F88410C2F880100B
:1021700002F58072DA60DA62803A83F8211083F81F
:102180003B1059629A624FF0005604F0FDF84FF48C
:1021900080320849084B25642846E664C4F890104C
:1021A000DA6470BD00001150A9030020041C002057
:1021B0008400105010D001000020115001210E2089
:1021C000FEF7D8B900220248114600F005B900BF59
:1021D000241C0020044B197021B14FF40032034B32
:1021E000C3F89020704700BFCD210120002011507E
:1021F0000B785B0602D14B78052B00D070474B88DB
:10220000014ADBB21360704700001150CB782DE912
:10221000F04103F0030EBEF1010FC3F301005DD0E6
:10222000002791F802C0354C0CF07F035E008988CE
:1022300006EBDC1204EB42124FEADC15D076C1F358
:102240000A0185F00100507082F802C01183D77036
:1022500018B2DA008DBB2A48043204EB831C02EB6F
:102260000008CCF8088017508BB3264ADB001A44CC
:10227000CCF80420244B3F311A6821F03F01BEF115
:10228000020F08BF490011441960204B771904EB75
:1022900047179942FA602CD82E4404EB4613D97E96
:1022A00082F0A04282F480125B6842EA816242F0CE
:1022B00000421A600120BDE8F081DFF844C004EB61
:1022C00083186244C8F828204CF830704BB90022BB
:1022D0000F4904EB4513D9605A60EBE70020BDE8D5
:1022E000F081DB0003F1A04303F58013C8F824302C
:1022F000C0E7FFF70FF9FA68CEE700BF041C002023
:1023000080001050040010500C200020FF0F1050CF
:102310000001105004F038B88C4608B51146074843
:102320001A460CF07F034FEADC1C0CEB430C00EB6D
:102330004C1000F051F8012008BD00BF041C002023
:10234000CB0911F07F0103D1064AC3F10200906668
:10235000054803EB41034FF40062002100EB4310FA
:1023600004F00AB800201150041C002011F07F0373
:1023700000D17047002210B4C809064C00EB43009E
:1023800004EB40136FF4006118465DF8044BDA70FB
:1023900003F0F2BF041C00204FF0805209480A49A4
:1023A00008B50A4B02600A609968C94311F0805170
:1023B000FAD14FF48052064803F078FE0922054B0B
:1023C0005A6708BD00200240003002400000024071
:1023D000000010500000115000234FF0010C10B508
:1023E00080F81AC08282C3820161044603F0C0FFF4
:1023F00020B14FF40032074BC3F89020204603F081
:10240000ABFF10B10123237710BD2046BDE810407B
:1024100003F09EBF002011502DE9F04100241D4E15
:10242000054623463278DFF878801B4F0DE03B6885
:1024300013EB441325D0DB682846984732780134E3
:10244000E4B2511CA142234606DBA242A3EB0203E5
:10245000EDD808EB4313EEE7104C54220021204640
:1024600003F024FE4FF0FF33251D6360C5E90133FF
:10247000EB6004F114002022BDE8F041FF2103F0DD
:1024800015BE4FF0E023D3F8F03DDB0700D500BECA
:10249000BDE8F081CC210120A8160020B017002053
:1024A000B8670010704700BF704700BF002070473A
:1024B00000207047704700BF704700BF704700BFE3
:1024C000704700BF024B5878003818BF0120704792
:1024D000B0170020024B1878C0F38000704700BF8F
:1024E000B01700202DE9F047DFF8E8A09AF8003097
:1024F000FF2B02D00120BDE8F0870E4600293ED018
:10250000002154220746294803F0D0FD0022284C20
:10251000284B20461A70FEF735FA274B27481C60D7
:10252000274CFEF73DFA204601F0B0FD254A264B28
:10253000264D146063B32846FFF7BAFA244B2A7875
:1025400018600024DFF890902346DFF884800EE0C6
:10255000D8F8003013EB441311D05B687BB1984777
:102560002A780134E4B2511CA142234612DBA24274
:10257000EED89B1A09EB43135B68002BEFD14FF0A9
:10258000E023D3F8F03DDB0700D500BE0020B2E722
:102590002A78D6E7314638468AF80070FFF7C6FD3C
:1025A0000028ECD03846FFF709FEA3E7B01700205B
:1025B000A8170020CE210120041800204812002076
:1025C0003412002008180020B11A0010CC2101207C
:1025D000A816002050120020B86700102DE9F04F17
:1025E000DFF8C8928BB099F80030FF2B00F0F18033
:1025F000A84CA94DDFF8B0A2DFF8B4B22668736921
:10260000EFF3108272B6D3E8CF0F01210028FAD180
:10261000C3E8401F0028F6D1BFF35F8FB261304698
:1026200007A901F081FB00237269C2E88F3FB369FB
:1026300083F31088002800F0CC809DF81D30013B0A
:10264000072B00F27D83DFE803F0A7B1959D8E355F
:102650000A04089B002BD1D009989847CEE79DF833
:10266000201001F07F0605EB460000EBD11090F83A
:10267000343023F0010380F8343090F8343023F004
:10268000040380F83430002E00F0A680037D9AF811
:102690000020934280F09380804A126812EB43132B
:1026A00000F090809E699DF82120099B9DF81C00F8
:1026B000B047A3E79BF80030002B00F083809BF825
:1026C0000030013BDBB28BF800309BF8003003F0A8
:1026D000FF00002B92D1704F9DF81C803B7843F097
:1026E00001033B7097F8343060F3000387F834300F
:1026F00097F8343060F3820387F8343097F8353038
:1027000060F3000387F8353097F8353060F38203C3
:1027100087F8353000F06AFC9DF8203003F0600245
:10272000602A6CD0402A7CD003F01F03012B00F0FC
:10273000C180022B00F08180002B60D1202A00F0A4
:10274000E981002A5BD19DF82130092B57D8DFE8B9
:1027500013F0B001A2015600C101560095016B01B2
:1027600056006001F4002B78D9077FF547AFFFF7DB
:10277000A7FE43E7EB78DA077FF540AF0898FFF74D
:1027800093FE3BE72B78D8077FF538AF2878C0F366
:10279000C000FFF793FE31E79DF81C00FFF73CFEF9
:1027A00000F01AFC9DF82030AB7027E79DF81C0064
:1027B000FFF732FE00F010FCFFF77EFE1EE7501C14
:1027C000984211DA4FF0E023D3F8F03DDC0700D552
:1027D00000BE0BB0BDE8F08F099B9DF821209DF84D
:1027E0001C0000F017FC09E79B1A2D4A02EB43136B
:1027F00058E7FFF785FB0246002840F082814FF042
:10280000E023D3F8F03DDE0700D500BE9DF81C00A4
:102810000021FFF795FD80219DF81C00FFF790FD3A
:10282000ECE6204800F0E2FB0121404608AAFFF751
:102830002BF900287FF4E2AEE8E79DF8241011F0B0
:10284000700FDCD101F07F0607EB4600164B00EB62
:10285000D1101B78007D7600019698424FEAD11680
:10286000009659D35E1C8642C0F26681C01A0C4B9A
:1028700003EB4016002A00F06381706900F0B6FB9C
:1028800001214046736908AA984700287FF4B6AE34
:10289000BCE700BF08180020B0170020A8160020D1
:1028A000B8670010891A0010CC21012050120020B6
:1028B000CE2101209DF824300F2BA7D8AE4A3B44EF
:1028C0001B791278934232D3511C99429EDBAB4E56
:1028D0009B1A06EB4316706900F088FB0121404605
:1028E000736908AA984700287FF488AE9DF82030C5
:1028F00013F060068AD19DF821300A3B012B85D860
:1029000000F074FB9DF821300A2B00F0F281404664
:1029100008A900F0F1FA71E6994B1B6803EB401629
:10292000002A00F00D81002E3FF470AFA5E7944A15
:10293000166816EB4316CED168E77B789DF82260C7
:102940009E4200F04F817B78002B40F0BE817E706C
:10295000002E00F04581701EC0B2FFF7D1FA034689
:10296000002800F05F814278022A40F05B81C17943
:1029700003F10906C1F340121201C1F3801142EACA
:1029800041123146387820F0300002433A705A88BC
:10299000CDF80C809A180192019B8B4240F2A481E1
:1029A0004A780B2A00F0AF810123042A40F03A81D3
:1029B0000026019A0096521A92B202926E4A04932D
:1029C00012781DE06E4B1B6813EB461800F02A814D
:1029D000029AD8F8103003980591984708280246C3
:1029E000059906F1010303D90298904280F0FF8017
:1029F000DEB2614B00961A78531C9E4200F312819E
:102A0000009BB242A3EB0202DCD85C4B03EB421802
:102A1000DEE77B7840468DF81A300DF11A0201236B
:102A200008A900F083FAE9E5BDF82200030A013B9A
:102A3000020AC0B20E2B3FF6E9AE01A151F823F015
:102A4000552C0010F12A0010912C00100D280010B8
:102A50000D280010732C0010F12A00100D28001012
:102A60000D2800100D2800100D2800100D28001052
:102A70000D2800100D280010472C001008A800F0A9
:102A8000BBFA40469DF82210FFF79CFB3B7843F0D1
:102A900002033B70B2E5BDF82230012B7FF4B6AEE5
:102AA0003B78404623F0080308A93B7000F024FA65
:102AB000A4E540463B789A0802F00202C3F34013B3
:102AC0001343ADF81A300DF11A02022308A900F0E1
:102AD0002DFA93E5BDF82230012B7FF497AE3B78B9
:102AE000404643F0080308A93B7000F005FA85E56D
:102AF000022A3FF47EAEFFF7DBFC024600283FF4DB
:102B000085AE4046538808A900F010FA00287FF4EB
:102B100075AD7BE69DF824300F2B3FF677AE164A55
:102B20003B441B79127893421DD2154A166816EB66
:102B300043167FF4A2AE69E6002A7FF467AE002652
:102B40009DF8212002F0FD03012B1BD0002A7FF409
:102B500056AE019B009A3B44134493F834304046F0
:102B6000C3F34003ADE7511C9942FFF64FAE034E4D
:102B70009B1A06EB431680E6CC210120B8670010B3
:102B8000A8160020BDF82230B3B9012A99F8000038
:102B900000F08680FFF7D4FB019B009A3B4413446E
:102BA00093F8342042F0020283F8342093F8342062
:102BB00042F0010283F83420002E3FF41FAD70690B
:102BC00000F014FA7369012108AA404698470020D2
:102BD00000F00CFA97F83530DF073FF50FAD96E6B9
:102BE000FFF76AFC404608A900F086F906E5049B59
:102BF000012B00F09E80002B00F08A80002091F8CD
:102C0000028005E08CF804605FFA80FC63457FD9A0
:102C100008EB000C57FA8CFC9CF804E00130BEF184
:102C2000FF0FEFD04FF0E023D3F8F03DDA0700D5E7
:102C300000BE4FF0E023D3F8F03DDB0700D500BE27
:102C400000237B70E2E5FEF71BFF024600287FF4BD
:102C500058AFDBE5FFF750F9024600283FF4CFAD4F
:102C60004046122308A900F061F900287FF4C6ACA1
:102C7000CCE5FFF71BFC024600283FF4C7AD4046F9
:102C8000137808A900F052F900287FF4B7ACBDE52D
:102C9000BDF82410FFF738F902460028EFD1B5E55A
:102CA0000293FFF763FB019A009B3A441A4492F89F
:102CB0003410029B63F3410182F8341092F834100F
:102CC00063F3000182F8341076E700214046FFF7F5
:102CD00081FA4046FFF71EFBBB7840460093FFF7A2
:102CE0009BFB009BBB7032E6DDF80C80FFF7E2FB3C
:102CF00078E74046012308A90DF11A028DF81A6001
:102D000000F014F97AE40A78CB7811444A784CE65A
:102D1000334610480492029100F07CFE0E4B049A58
:102D200002991B781144009A01339342BFF634AEE6
:102D300078E7D8F810C00948844508BF02235DE74A
:102D40004FF0E023D3F8F03DDB077FF557AC00BE32
:102D500054E400BFC4170020CC210120253400100A
:102D60002DE9F84FDDF82880002A3FD00C461E469A
:102D700015464FF0000B1F4FDFF87C9017E0204600
:102D800099F8021000F014FEF8B121465046FFF702
:102D90003DFA08B3A3780BF1010BDA0916BF0B9AC1
:102DA00088F8003013702378AB451C441ED063783C
:102DB000052B11D1E17801F00301B1420CD1A378C8
:102DC00097F800A013F0700FD9D04FF0E023D3F89C
:102DD000F03DDA0700D500BE4FF0E023D3F8F03D18
:102DE000DB0700D500BE0020BDE8F88F0120BDE85C
:102DF000F88F00BF50120020B017002038B50E4BDE
:102E00001D788B7813F0700F08D04FF0E023D3F8C3
:102E1000F03DDB0700D500BE002038BD074B0C4657
:102E20000846997800F0C4FD0028EED021462846D7
:102E3000BDE83840FFF7EAB950120020B017002073
:102E40000B46064A06481168DA09343203F07F035C
:102E500002EB4303184400F065BD00BF04180020D6
:102E6000B01700200B46064A06481168DA093432CA
:102E700003F07F0302EB4303184400F07DBD00BF65
:102E800004180020B017002010B5194C01F07F0E77
:102E900004EB4E0404EBD11494F834C015481CF034
:102EA000010F04F13004007808D04FF0E023D3F88C
:102EB000F03DDA0700D500BE002010BD94F804C034
:102EC0004CF0010C84F804C0FFF726FA0028F4D176
:102ED0004FF0E021227960F300022271227960F341
:102EE00082022271D1F8F03DDB07E5D5E3E700BFB0
:102EF000B01700205012002030B50B4C8C46A6466F
:102F00000546086849680023AEE803009CF80010F5
:102F10002846C943C4E90233BDE830401A4601F0EF
:102F20008001FFF7B1BF00BF701700202DE9F0410D
:102F3000274F4FF00008BE468C4606460868496891
:102F4000BA60AEE80300A7F80E801546BCF806206C
:102F5000934228BF1346BB819AB11C462BB3DDB107
:102F600097F90030402C28BF4024002B28DB414635
:102F700023463046174AFFF787FF68B10120BDE8B6
:102F8000F0819CF800101346C943304601F08001DF
:102F9000FFF77AFF0028F1D14FF0E023D3F8F03D9E
:102FA000DB0700D500BE0020E9E71A46397801F0BA
:102FB000800123463046FFF767FF0028DED1EBE7AC
:102FC00022462946034803F0C3F88021014AF0E76E
:102FD00070170020301700200022034BC3E90022A5
:102FE000C3E902221A61704770170020014B186173
:102FF000704700BF7017002030B40246044C002513
:10300000234600685168C4E9025530BC03C37047C9
:103010007017002070B53C4CC90922780646B1EB08
:10302000D21F1D4682B017D053B14FF0E023D3F822
:10303000F03DDB0702D4002002B070BD00BEFAE70D
:103040002146FFF7D5F823691BB1224603213046FC
:103050009847012002B070BD94F90030A068002BA1
:1030600005DB0028E7D02A46284903F071F8E089FB
:10307000A168E388284480B229448342E081A160AA
:1030800016D03F2D14D9A28994F90040131A9BB28F
:10309000402B28BF4023002C26DB90424FF000013C
:1030A00030D01A4A3046FFF7EFFE0028D1D1BCE7F6
:1030B000236923B102213046134A984758B1217839
:1030C0000023C94330461A4601F08001FFF7DCFEB9
:1030D0000028BED1A9E701463046FFF731F980212B
:1030E0003046FFF72DF9B4E7904208D01A4607485A
:1030F000019303F02DF88021044A019BD2E780213F
:103100000022CFE70A46CDE77017002030170020D5
:103110002DE9F0410446FFF7D5F908B9BDE8F08183
:10312000FFF7D8F907460028F8D1C822134B02FB55
:103130000436F1780029F1D006F11005284600F098
:10314000E1FD3F28EAD93846F178FFF779FE0028FB
:10315000E4D0284600F0D6FD3F2809D9084A384671
:10316000F17802EBC4124023BDE8F041FFF78CBEBA
:103170003846F178BDE8F041FFF774BE68120020D0
:10318000AC16002010B50446FFF79CF908B90020E2
:1031900010BDFFF79FF90028F9D1C822034B02FBAD
:1031A0000433187900F0010010BD00BF6812002040
:1031B000C82108B5102301FB0030024A104400F07A
:1031C00087FD08BD681200202DE9F8434FF6FF7314
:1031D0004FF0C80810249A4228BF1A4618FB004432
:1031E0001A4F06463C44204692B200F0E7FD0546E1
:1031F000FFF768F910B92846BDE8F883FFF76AF9C8
:1032000081460028F7D108FB0677FB78002BF2D027
:10321000204600F077FD3F28EDD94846F978FFF7C2
:103220000FFE0028E7D0204600F06CFD3F2808D9AB
:10323000074A48464023F97802EBC612FFF724FEFE
:10324000D9E74846F978FFF70DFED4E76812002069
:10325000AC1600202DE9F0410546FFF733F910B90F
:103260000020BDE8F081FFF735F906460028F7D1C8
:103270004FF0C808242418FB0544174F3C4420464F
:1032800000F026FD0028EBD008FB05773046B97822
:10329000FFF7D6FD0028E3D04022104B204602EB7A
:1032A000C5141C44214600F089FD054680B1034643
:1032B00022463046B978FFF7E7FD38B94FF0E023F2
:1032C000D3F8F03DDB07CBD500BEC9E72846C8E7F9
:1032D000B978FFF7C7FDC3E768120020AC160020DD
:1032E00038B54FF6FF734FF0240CC8249A4228BF1C
:1032F0001A4614FB00C40A4B92B21C4405462046F1
:1033000000F018FE034620461C4600F0E1FC3F2872
:1033100001D8204638BD2846FFF79CFF204638BD1F
:1033200068120020C82108B5242301FB0030024A9E
:10333000104400F0E7FC08BD68120020F0B5194CFD
:1033400083B0C8220021204602F0B0FE0025FF23F2
:103350004FF4E1310822144804F1B80705700095D4
:1033600004F110006371A160A27304F1380101231C
:10337000402200F07DFC0123402204F178010093FB
:1033800004F1240000F074FC04F1C0063846FDF797
:10339000F9FA3046FDF7F6FAC4E90757C4E90C65B7
:1033A00003B0F0BD681200202C170020094B196BE8
:1033B00049B11A6A12B10022C3E907220022C3E907
:1033C0000C22012070471A6A002AFAD00120C3E9B2
:1033D0000711704768120020002210B50E4C0F48EC
:1033E000237802600271DA0707D59B070BD5BDE889
:1033F000104001210A4800F065BE103000F046FE82
:1034000023789B07F3D4064800F040FEBDE8104047
:103410000121034800F056BE2C170020681200203E
:103420008C120020F0B54B7983B0022B03D000251D
:10343000284603B0F0BD8B79022BF8D1264FBB781C
:103440003BB14FF0E023D3F8F03DDB07EFD500BEF2
:10345000EDE78B7806463B700B780925CC18617830
:1034600024290BD1082A02D80FE0AA420DD32378D1
:103470001C4461782B4424299DB2F6D005290AD03A
:10348000042902D163790A2B13D00020FFF740FEF4
:10349000284603B0F0BD21463046FFF7AFFC0028B8
:1034A000CFD0A3787B7023781C442B4461789DB2E5
:1034B000E6E70A4B27780193013300930223304655
:1034C0001A46E119FFF74CFC0028BAD00E3517FA5E
:1034D00085F5ADB2D9E700BF681200206A1200205E
:1034E000137803F06003202B08D170B5264C938825
:1034F00094F800C09C4503D0002070BD00207047A8
:103500005378203B032BF7D8DFE803F027230D0285
:1035100001292ED003291ED11C4BE3B10020518874
:10352000AFF3008017E0012923D0032913D1558878
:10353000174805F0010686F00101257100F0C2FD73
:10354000144B43B131460020C5F34002AFF3008075
:1035500001E0012911D0012070BD01290DD00329FE
:10356000F9D10D4B002BF6D000200C49FEF7A8FA3C
:10357000F1E71146FFF7C0FCEDE711460723074AC4
:10358000FFF7D4FCE7E700BF68120020000000004E
:103590008C12002000000000C11A001070120020E0
:1035A0002DE9F047364F0C46FA7806468A421D460A
:1035B00097F802C03CD08C4513D04FF0E023D3F8ED
:1035C000F03DDB0700D500BE0020BDE8F0872D4BA5
:1035D00023B12D4800F08CFB00284ED00020FFF7CF
:1035E00097FDBB78A34202D00120BDE8F087274BAE
:1035F00013B10020AFF300800020FFF72BFE00285E
:10360000F2D1234800F064FB0028EDD1002DEBD06F
:1036100015F03F05E8D13046B978FFF711FC0028D6
:10362000E2D02B462A463046B978FFF72DFCDBE77F
:10363000DFF864809AB2414607F1100000F07AFC8E
:10364000144B002BC3D07B79FF2BC0D0002DBED0F4
:1036500007F1100908EB050A02E0C245B7D07B79F3
:1036600018F8012B9A42F8D1484600F041FB002897
:10367000F3D17979AFF30080EFE7AFF30080ADE7E6
:1036800068120020000000007812002000000000F6
:103690008C12002000000000AC160020F0B5144C85
:1036A00085B04FF413720021204602F0FFFC402742
:1036B00000234FF480760F4D04F5A6721946CDE92C
:1036C0000257009201961A4604F5947000F0CEF964
:1036D000002304F128013D44009101221946CDE95F
:1036E00002570196201D00F0C1F905B0F0BD00BFE2
:1036F0004C190020CC18002010B5054C204600F0D5
:10370000E1F9A4F5927000F0DDF9012010BD00BFD1
:10371000741A002038B50025064C04F59870257001
:1037200000F0B4FC04F10C0000F0B0FC84F8295166
:10373000657138BD4C1900202DE9F84F4B79FF2BEE
:1037400002D00020BDE8F88F394D0E4695F829319A
:103750000C78002BF5D16F79002FF2D18B780C44C7
:103760002B700B79002B3ED0804604EB020B05F545
:10377000987A05F594796378052B09D0A34502D88A
:1037800031E05C452FD223781C446378052BF8D1B7
:10379000A34528D921464046FFF730FB00283ED0FC
:1037A000A378DB0923D1504600F070FCA37895F88C
:1037B000281185F82931A3884046C3F30A03A3F5ED
:1037C0000073B3FA83F35B0963F3410185F82811B1
:1037D000494600F0E5F910B32378317901371C44EC
:1037E000FBB29942C7D8A11B88B2BDE8F88F114837
:1037F00000F04CFCA37895F804C06B71A3880E49C7
:10380000C3F30A03A3F50073B3FA83F35B0963F30D
:10381000410C002085F804C000F08AF9DCE74FF085
:10382000E023D3F8F03DDB078BD500BE89E700BF6E
:103830004C190020581900205019002070B51B4C5D
:10384000064694F829C11D468C45627904D08A4207
:1038500018BF002018D070BDB4F8343163B9144BD0
:1038600023B100201349AAB2AFF3008030461249B9
:1038700000F096F9012070BDD4F82C11AAB204F51D
:10388000987000F057FBEAE70C4B1BB10020A9B27F
:10389000AFF3008030460A4900F04AF90028E9D128
:1038A0002A463046064900F00FF9E3E74C1900209C
:1038B00000000000CC180020741A00200000000056
:1038C0005019002010B582B0B9B101280CD80B787E
:1038D00053B1134C012B235402D0012002B010BD70
:1038E000FEF700FE0028F8D14FF0E023D3F8F03DBA
:1038F000DB0700D500BE0020F0E70124084601A93F
:10390000ADF80440FEF7EEFD38B94FF0E023D3F8F0
:10391000F03DDA07E2D500BEE0E7014B1C70DDE7C1
:10392000A4170020F8B5037813F001041AD1037826
:1039300005465A07C3F3800701D52046F8BD0E4659
:103940004FF0FF31304602F0FFFC2B7813F00104FA
:103950000BD12B785B0709D42B78012443F00403A7
:103960002B7003E000242046F8BD3C46304602F0B0
:10397000F7FC2046F8BD00BF70B50C4605464FF079
:10398000FF31204602F0E0FC2B78C3F380065B0792
:1039900008D52B7813F0010311BF00262A7863F3B2
:1039A00082022A70204602F0DBFC304670BD00BF68
:1039B000C378828803F003000228C2F30A021FD0F2
:1039C000032803D001280AD000207047022914BF21
:1039D00040234FF48063934209D3012070470229AA
:1039E00040F2FF3308BF4FF480639342F6D24FF0AA
:1039F000E023D3F8F03DDB07E6D500BE002070479A
:103A0000022902D0402AE8D9F1E7B2F5007FE4D0DC
:103A1000EDE700BF0A44914226D291F801C0BCF103
:103A2000050F05D091F800C061448A42F5D870476F
:103A300000B591F802C00CF07F0E00EB4E0E4FEA7D
:103A4000DC1C0EF80C3091F800C061448A4209D9A0
:103A500091F801C0BCF1050FEBD091F800C06144B2
:103A60008A42F5D85DF804FB704700BF2DE9F041AC
:103A70008E4682B0009390F800C0089EBDF8247076
:103A80006EF3000C04461546012331463A4600F811
:103A900008CBBDF82C8000F0EBF806B13FB901204F
:103AA0000A9BA4F80280636002B0BDE8F08104F1D3
:103AB0001C063046FCF766FF0DB135460026C4E90A
:103AC0000556ECE701207047F8B50746084640F276
:103AD000FF13154610F8082B0C4612F0020F0CBF0E
:103AE0003F261E4600F0F4F828B925B12E4202D137
:103AF0002378DA0701D50020F8BD38466178FFF752
:103B00009FF90028F7D0237813F0010307D04FF076
:103B1000E023D3F8F03DDB07EDD500BEEBE71A4616
:103B200038466178FFF7B0F90028F0D0F8BD00BF43
:103B300070B501F10805064628460C4600F0C8F8A5
:103B400010B12378D80701D5002070BD30466178C8
:103B5000FFF776F90028F7D028466288616800F000
:103B60002DF92378054648B1D9070ED54FF0E0234B
:103B7000D3F8F03DDA07E7D500BEE5E7DB07E3D48D
:103B800030466178FFF76EF9DEE70346626830463B
:103B90006178FFF779F90028E8D0284670BD00BFAA
:103BA0008A892DE9F0410B780C4605468AB9DF0772
:103BB00025D44978FFF744F908B322786388D607FB
:103BC0003FD54FF0E023D3F8F03DDA0717D500BE1C
:103BD00015E003F0020301F10808002B40460CBF7A
:103BE00040274FF400774FF6C07618BF4FF47E465B
:103BF00000F088F8874202D82378D80702D5002041
:103C0000BDE8F08128466178FFF71AF90028F6D060
:103C1000404600F077F887421FD823786288D9079A
:103C2000CFD43040904228BF104661780646E0B1BC
:103C3000626833462846FFF727F90028C1D030468E
:103C4000DEE761783BB162682846FFF71DF900287E
:103C5000B7D06088D4E71A46F6E72378DB07CED4DE
:103C600028466178FFF7FEF8C9E70246E1E700BFA2
:103C70002DE9F041B2F5004F9DF8188024D8044694
:103C8000C06817460E461D4618B14FF0FF3102F0CE
:103C90005BFB206918B14FF0FF3102F055FB0022A9
:103CA000C5F30E03E06843EAC83362812660A7804B
:103CB000E380228108B102F053FB206908B102F0D1
:103CC0004FFB0120BDE8F0810020BDE8F08100BF7E
:103CD000038942899BB292B28088934236BFC2EB7D
:103CE00040029B1A9B189BB2984228BF1846704707
:103CF0000289438990B29BB2C01AB0FA80F04009A1
:103D0000704700BF038942899BB2808892B2934278
:103D100036BFC2EB40029B1A9B189BB2984286BFEB
:103D2000C01A80B20020704738B5044600690D46BD
:103D300018B14FF0FF3102F007FB2189638989B286
:103D40009BB2A288994236BFC3EB4200C81A401802
:103D500080B250B3824209D291422CBF891A89188D
:103D60008BB29A42638103D89B1A9BB29A42FBD9C9
:103D7000E2882168C2F30E0202FB0311284602F01A
:103D8000E7F96189012589B24B1C9BB29942A2884F
:103D90000ED9002302FA05F15B1A9BB220696381F8
:103DA00008B102F0DDFA284638BD054663899BB2AA
:103DB000B3EB420F4FEA4201F0DBEDE72DE9F047AC
:103DC000064600698846914618B14FF0FF3102F06F
:103DD000BBFA338974899BB2A4B2B588A34236BFBB
:103DE000C4EB45071F1BFF18BFB2002F4AD0BD42CE
:103DF00040D3B94528BFB946A5421FFA89F703D871
:103E0000641BA4B2A542FBD9B6F806A02B1B3168EF
:103E10009BB2CAF30E029F42924602FB041123D9C1
:103E200013FB02F31FFA83F94A4640467D1B02F05A
:103E30008FF9621912FB0AF2316808EB090092B29D
:103E400002F086F97289B58892B2D3199BB29A4270
:103E50001AD96A009B1A9BB23069738108B102F0CB
:103E60007FFA3846BDE8F087404607FB02F202F0D1
:103E70006FF9E7E7AB422CBF5B1B5B199CB22F4687
:103E80007481B6E773899BB2B3EB450F4FEA4502E5
:103E9000E2DBDFE7F8B50446C0680E4618B14FF024
:103EA000FF3102F051FA2589238961899BB289B2D9
:103EB000A2888B4236BFC1EB42015B1A5B189BB2F2
:103EC0009A42ADB208D8E779FF0905D1E06808B198
:103ED00002F046FA3846F8BD954219D32B469B1A94
:103EE0009BB29342FBD2E2882068C2F30E0202FB2F
:103EF0000300314602F02CF96B1C9BB29D42A28854
:103F000012D9002351005B1A9BB201272381DDE700
:103F1000E2882068C2F30E0205FB0200314602F07F
:103F200017F90135A288ABB2B3EB420F4FEA420159
:103F3000EBDBE8E72DE9F04F164683B0002A4CD0C2
:103F40000546C068884618B14FF0FF3102F0FCF911
:103F5000EA792F896989D209AB88BFB289B240D189
:103F60008F4236BFC1EB4301791AC91989B2994210
:103F700041D2591A89B28E4228BF0E46B5F806A022
:103F800007EB0609A6EB030BCAF30E0A1FFA89F921
:103F90001FFA8BFB9F423C4603D3E41AA4B29C4217
:103FA000FBD21B1B28689BB2B3420AFB04004BD315
:103FB00041460AFB06F202F0CBF8AA884F454FEAC9
:103FC000420302D8B9EB420F03DBA9EB03031FFA4C
:103FD00083F9E868A5F8089088B9304603B0BDE8D1
:103FE000F08FB5F806A09E42CAF30E0A0DD3002B3F
:103FF0003FD11E4600E00026E8680028EDD002F020
:10400000AFF9304603B0BDE8F08F8F4236BFC1EB49
:1040100043027A1AD21992B258003244A6EB030B2B
:1040200082421FFA8BFB0ADB01EB03091FFA89F9B5
:10403000A9EB0607BFB2B94218D9381A87B206EB06
:1040400007091FFA89F9A5E713FB0AF35C4414FB7F
:104050000AF49AB24146019202F07AF8019A28686D
:1040600008EB0201A2B202F073F8A6E7B84291DCB5
:10407000E3E7F61A01EB03090AFB06880F461E4622
:104080004FF0000B1FFA89F984E700BF10B5044612
:10409000C06818B14FF0FF3102F056F9206918B12D
:1040A0004FF0FF3102F050F90023E0686381238173
:1040B00008B102F055F9206908B102F051F9012068
:1040C00010BD00BF38B50446C0680D4618B14FF0AA
:1040D000FF3102F039F9206918B14FF0FF3102F0D9
:1040E00033F9E379E06865F3C713E37108B102F0CF
:1040F00037F9206908B102F033F9012038BD00BF5B
:10410000704700BF00000000000000000000000039
:104110000B4A13681868203080F30988022080F366
:104120001488BFF36F8F3FBCAE4608BC04BC62B6B8
:10413000184700BFAFF30080AFF30080AFF30080FB
:1041400038200020000000000000000000000000F7
:10415000EFF30980164B1A6820381060F0C044460F
:104160004D4656465F46F0C00D221207146E556E3E
:10417000566F176F3038F0C008B572B601F0D8F935
:1041800062B60CBC116808681030F0C8A046A94699
:10419000B246BB4680F309880D2212073038F0C8BA
:1041A0001466556656671767F0C81847AFF3008066
:1041B0003820002008B5FCF70DF900BF10B44FF00F
:1041C0008074054B40E9021440F80C3C40F8202C68
:1041D0005DF8044B40387047B54100104FF0E023C4
:1041E0004FF08052C3F8042DBFF34F8FBFF36F8F92
:1041F000704700BF72B6044A136801331360BFF3FF
:104200004F8FBFF36F8F7047E4200120084A136877
:10421000013B136053B9074A116831B1C1E88F3FC0
:104220000549096881F31088136062B6704700BFC2
:10423000E4200120B4200020CC200120EFF31080E6
:1042400072B6704780F31088704700BF10B5FFF753
:10425000F5FF044601F05CF928B14FF0E0234FF080
:104260008052C3F8042D2046BDE81040FFF7EABF96
:10427000002310B54FF0E02405202361A361FDF772
:104280003FF80721034BA3FB00239B09013B63611C
:10429000216110BDD34D621008B54FF0E023D3F873
:1042A000202D134942F47F02C3F8202DD3F8202D8E
:1042B0000E2042F07F42C3F8202D01F0DFFD0D49B2
:1042C0000F2001F0DBFD0C490B2001F0D7FDFFF7BB
:1042D000CFFF00204FF050420849094B0860126898
:1042E0001A70FFF715FF01F023F9FCF773F800BF10
:1042F000514100104D42001001410010E420012006
:10430000511200204FF05042074B10681B78834237
:1043100000D07047EFF30583DBB213B100EB43002D
:10432000704701F06DBB00BF511200204FF05043A9
:10433000124A92F800C01A680368944506D0002219
:10434000C3E88F2F81F3108820BF7047012230B55A
:104350004FF0FF340A4D0B482B600B4D1B1A2960A0
:104360000A4802FA03F183B041EA01210023006800
:10437000090A009400F0D8F803B030BD51120020B3
:10438000B420002084170020CC2001204C210120E3
:104390004FF0504330B51C4A1B68127804689A42AB
:1043A00083B008D040BF00230268C2E88F3F81F38A
:1043B000108803B030BD40F20112144B0025E31AFF
:1043C0009A40120AC4E88F5F81F31088EFF30583E7
:1043D000DBB283B10E4B0F48196801AB019501F0B8
:1043E00035FD019B002BE4D04FF0E0234FF08052CD
:1043F000C3F8042DDDE71146054B186803B0BDE88E
:10440000304000F0EBB800BF5112002084170020AC
:104410004C21012045460010F0B54FF0504E314C74
:104420001D4694F800C0DEF8003007469C450E4655
:10443000144683B00CD000230268C2E88F3F81F39A
:1044400010882046294603B0BDE8F040FCF75CBE6A
:10445000FCF7D2FE221A65EB0101B2F57A7041F148
:10446000FF31B0F57A7F71F100031EDA00233A685C
:10447000C2E88F3F86F310881B4B5A6A954207D8D3
:104480009B6AA34202D3012003B0F0BD9542FAD14A
:104490004FF0E0234FF08052C3F8042DBFF34F8F4D
:1044A000BFF36F8F002003B0F0BD4FF47A7200238A
:1044B00001F05AFF0028D9D0012200903F680B4933
:1044C000DFF834C0791ACCF8007002FA01F1084F15
:1044D000084841EA012100233E60090A006800F013
:1044E00023F8C9E75112002000000B408417002078
:1044F000CC2001204C210120B420002008B500F080
:1045000005F8014B186008BD4C21012010B518209A
:1045100001F0DAFC044620B1002340F8043B00F02F
:10452000C3F8204610BD00BF2DE9F04107461E46E6
:104530000D46904600F0DCFE3C689EB92C420AD045
:10454000B8F1000F09D024EA05053D6000F0D8FE5F
:104550002046BDE8F081069B1BBB00F0D1FE204643
:10456000BDE8F08135EA0403EAD0069B002BF4D0C5
:10457000B8F1000118BF01211A46090641F0806117
:104580002943381D01F082F800F0BAFEF8B101F0BD
:1045900073FA830104460BD524F07F442046BDE81E
:1045A000F081B8F1000118BF01211A460906E7E7BA
:1045B000FFF720FE3C686EB9254205D0B8F1000F28
:1045C00002D024EA05053D60FFF720FEE4E7FFF78F
:1045D00005FEDCE735EA0403F6D1EFE72DE9F84301
:1045E00007460D4600F10C0900F082FE3B683C696D
:1045F0002B43A1453B601ED04FF0000809E036B1C7
:10460000D30148BF48EA050801F06AF93B68A145B3
:104610000FD020460268646822F07F4512F0806F58
:1046200043F0007105EA0306E9D0B542E8D0A145A0
:10463000EFD123EA08033B6000F062FE3868BDE872
:10464000F88300BF2DE9F84307460D4600F10C0939
:1046500000F04EFE3B683C692B43A1453B601ED0F9
:104660004FF0000809E036B1D30148BF48EA050819
:1046700001F036F93B68A1450FD020460268646816
:1046800022F07F4512F0806F43F0007105EA0306C7
:10469000E9D0B542E8D0A145EFD123EA08033B6059
:1046A000BDE8F84300F02CBE4FF0FF31002200F1CE
:1046B0000803C0E90131C0E903330260704700BF5D
:1046C00000230361704700BF30B40D686B1C10D02D
:1046D00000F108031C465B681A68AA42FAD902680E
:1046E0004B60013299608C606160086130BC02608F
:1046F000704704696368F2E7036910B4D0E90112F6
:104700005C688A6051600021844208BF5A601A6860
:104710000161013A1A6018685DF8044B704700BFE8
:1047200070B5A0B3A1FB002305460E467BBB01FB81
:1047300000F010F1490F2AD8483001F0C5FB0446BB
:1047400028B33EB300F148032360C4E90F56FFF7D6
:1047500051FD0023FF20A363216CE36B226801FB62
:1047600003F3591A626013440A44C4E9023284F81C
:10477000440084F8450004F11000FFF795FF04F1B0
:104780002400FFF791FFFFF741FD204670BD002494
:10479000204670BD0346D7E72DE9F0470446914611
:1047A0001E460F46FFF74AFDA26BE36B05469A4291
:1047B00029D3022E06D000242846FFF743FD2046C9
:1047C000BDE8F08794F84580226CA36B4FFA88F817
:1047D000D4F838A0002A3ED127680AF10106002F3C
:1047E0004ED0B8F1FF3FA66329D1636A8BB304F1C1
:1047F000240001F00DF860B3B9F1000F29D00123B6
:10480000C9F8003025E094F84580226CA36B4FFA7C
:1048100088F8D4F838A0002ADED03946002E34D1EA
:10482000606801F095FC6368226C0AF1010613448C
:10483000A26863609342D4D323686360D1E700F039
:1048400061FE804505D208F101084FFA88F884F826
:1048500045800124B0E73946E06801F079FC226C1C
:10486000E36821689B1A8B42E360C2F1000202D226
:10487000A3681344E3605646012E38BF0126B0E713
:10488000A06801F0C3F8A760ABE7E06801F060FC46
:10489000226CE36821689B1A8B42E360C2F100023C
:1048A00004D3022EE7D00AF101069AE7A368134465
:1048B000E360F6E72DE9F043044685B088460192AF
:1048C000FFF798FCA56B002D40F01781019B002B92
:1048D00000F0C68002A801F051F82F4604F124062A
:1048E000FFF794FC00F004FDFFF784FC94F84430DB
:1048F000FF2B08BF84F8447094F84530FF2B08BFA5
:1049000084F84570FFF782FC01A902A801F042F883
:10491000002854D1FFF76EFCA36B002B40F0A6805B
:1049200004F12409FFF772FC4846019900F068FE83
:10493000FFF760FC94F845305DB2002D04DC11E017
:104940006B1EDAB25DB26AB1636A5BB1484600F0D1
:104950005FFF0028F4D001F04DF86B1EDAB25DB2B3
:10496000002AF1D1FF2384F84530FFF74FFCFFF711
:1049700041FC94F844305DB2002D14DD04F11009BF
:1049800003E06B1EDAB25DB26AB123695BB14846DF
:1049900000F03EFF0028F4D001F02CF86B1EDAB2D4
:1049A0005DB2002AF1D1FF2384F84430FFF72EFCDA
:1049B00000F0A6FC00284AD1FFF710FC47E0FFF703
:1049C00019FC94F845305DB2002D04DC11E06B1E3B
:1049D000DAB25DB26AB1636A5BB1304600F018FFCB
:1049E0000028F4D001F006F86B1EDAB25DB2002A9E
:1049F000F1D1FF2384F84530FFF708FCFFF7FAFBFD
:104A000094F844305DB2002D14DD04F1100903E088
:104A10006B1EDAB25DB26AB123695BB1484600F041
:104A2000F7FE0028F4D000F0E5FF6B1EDAB25DB2AD
:104A3000002AF1D1FF2384F84430FFF7E7FB00F0B0
:104A40005FFCFFF7D7FBA36B53B1FFF7DFFBFFF76B
:104A5000D1FBA56B002D50D1019B002B7FF440AF03
:104A6000FFF7D4FB002005B0BDE8F083FFF7CEFBD5
:104A7000FFF7C0FB94F845305DB2002D14DD04F162
:104A8000240903E06B1EDAB25DB26AB1636A5BB1FE
:104A9000484600F0BDFE0028F4D000F0ABFF6B1ECE
:104AA000DAB25DB2002AF1D1FF2384F84530FFF776
:104AB000ADFBFFF79FFB94F844305DB2002D14DD91
:104AC00004F1100903E06B1EDAB25DB26AB123692A
:104AD0005BB1484600F09CFE0028F4D000F08AFF4D
:104AE0006B1EDAB25DB2002AF1D1FF2384F84430A4
:104AF000FFF78CFB00F004FCA9E7226C5AB1E168D7
:104B0000A36811449942E16028BF2168404628BF4C
:104B1000E16001F01DFB013DA56323692BB9FFF79F
:104B200075FB012005B0BDE8F08304F1100000F032
:104B30006FFE0028F3D0FFF751FBF0E7002955D0B6
:104B4000444B5A68904272D01A6810B4002A2CD094
:104B5000DA6890427BD09A68002A41D05A69904224
:104B600073D01A69002A42D0DA69904265D09A69F6
:104B7000002A42D05A6A904244D01A6A002A45D08C
:104B8000DA6A90425BD09A6A002A44D05A6B90420B
:104B900057D01A6B002A43D0DA6B904253D09B6BEC
:104BA000002B42D05DF8044B7047DA6890424ED03B
:104BB0005A69904249D01A46DC69A0423DD05C6AED
:104BC000A0421FD0DC6AA04239D05C6BA04238D032
:104BD000DC6BA04237D0C2E900105DF8044B70478F
:104BE0005A69904231D003F10802E5E77047DA696B
:104BF000904222D003F11002E1E75A6A904201D0BC
:104C0000154ADFE7042203EBC202E4E7DA6A9042C6
:104C100015D0124AD9E75A6B904212D0104AD7E702
:104C2000DA6B90420FD00F4AD5E70F4AD3E7002244
:104C300003EBC202C2E9001070470322E3E705223A
:104C4000E1E70622DFE70722DDE70222DBE70122B8
:104C5000D9E700BFB8140020D0140020D8140020D9
:104C6000E0140020E8140020F014002070B5054680
:104C70000E461446FFF7BEFA95F84430FF2B04BFEA
:104C8000002385F8443095F84530FF2B04BF0023FE
:104C900085F84530FFF7BAFAAB6B002B43D0FFF72E
:104CA000A9FA95F845305CB2002C14DD05F1240614
:104CB00003E0631EDAB25CB26AB16B6A5BB1304684
:104CC00000F0A6FD0028F4D000F094FE631EDAB2D6
:104CD0005CB2002AF1D1FF2385F84530FFF796FA40
:104CE000FFF788FA95F844305CB2002C14DD05F12A
:104CF000100603E0631EDAB25CB26AB12B695BB1E5
:104D0000304600F085FD0028F4D000F073FE631EED
:104D1000DAB25CB2002AF1D1FF2385F84430BDE855
:104D20007040FFF773BA2246314605F1240000F0C7
:104D30000DFDB4E780B5124D124F134EDFF84C80D5
:104D400014E0FFF757FAFB68DC68201DFFF7D4FC7E
:104D50003368013B33602B68013B2B60FFF756FA49
:104D6000206B01F051F9204601F04EF92B68002B21
:104D7000E7D1D8F80030012BF8D9FFF72FFAF5E783
:104D8000EC200120A8210120E82001205020002053
:104D90002DE9F04F544B83B01F6801371F60002F7F
:104DA00067D0524A13689F4277D3DFF84CE1DEF8B0
:104DB00000301868002800F0928000204C4B80469C
:104DC000BB4682464B4EDFF840910093019242E091
:104DD0005869D3E902249460626042688A4202689A
:104DE00008BF4460013AC3F814800260986A60B159
:104DF000D3E90724946062604268AA42026808BF4F
:104E00004460013AC3F828800260DA6AD9F80000E9
:104E100002EB8204824206EB8400476888BFC9F82F
:104E2000002056F82450D7F808C09F60C3F80CC083
:104E30000135CCF80410B9605861009B46F8245045
:104E40001968DEF80030C96A1B688A4288BF4FF0D3
:104E5000010A002B3DD0DEF80030DB68DB685C68BF
:104E6000191DA34503F11805B2D2019A50461460EA
:104E700017E0214B214A1868116819602049106019
:104E80000A6801320A601A681268E2B94FF0FF330B
:104E9000164A136013689F4287D20020144B154EA8
:104EA0000093009B17491B68DB6A03EB83039B009D
:104EB000F2580B68022A28BF0120002B18BF0120DE
:104EC00003B0BDE8F08F1B68084ADB681B681360FD
:104ED00068E75046019A4FF0FF331360E1E7044B57
:104EE000044E0093F7E700BFBC21012060210120A0
:104EF00038200020502000204020002048200020A2
:104F000064210120C8210120F82001202DE9F84367
:104F10009500074628468946984600F0D5FF0028A8
:104F200000F0B4800646682000F0CEFF044600285A
:104F300000F0A980043D68220021354401F0B6F854
:104F400025F007052663B9F1000F4AD099F8003023
:104F500084F83430002B44D099F8013084F835308F
:104F6000FBB399F8023084F83630D3B399F80330A4
:104F700084F83730ABB399F8043084F8383083B311
:104F800099F8053084F839305BB399F8063084F825
:104F90003A3033B399F8073084F83B300BB399F8C3
:104FA000083084F83C30E3B199F8093084F83D309A
:104FB000BBB199F80A3084F83E3093B199F80B30C0
:104FC00084F83F306BB199F80C3084F8403043B12D
:104FD00099F80D3084F841301BB199F80E3084F8FF
:104FE0004230089B261D042B28BF04239946E36208
:104FF00063643046FFF764FB04F11800FFF760FBC1
:10500000C9F10503A361424639462846246164621A
:10501000FFF7D4F8099B206003B11C60FFF7EAF8A2
:10502000394A3A4F1368013313603B68002B37D07D
:10503000DFF8FC80E36AD8F800205AB3344D3549D4
:1050400035480A6801320A6002689A4238BF036034
:1050500003EB830305EB83014A689B009068A26021
:10506000E06046609660EA5861610132EA50FFF7FD
:10507000CDF8D8F8003023B13A68E36AD26A9A4290
:1050800017D3012004E0304600F0BEFF4FF0FF30A0
:10509000BDE8F8833A68D26A9A4298BF3C60CDE78F
:1050A0003C601368012B07D0E36A194DDFF880805C
:1050B000C5E7FFF793F8E4E7154DA84605F1640945
:1050C000404608F11408FFF7EFFAC145F8D1DFF8C0
:1050D0006490DFF864804846FFF7E6FA4046FFF741
:1050E000E3FA0E48FFF7E0FA0D48FFF7DDFA0D4846
:1050F000FFF7DAFA0C4BC3F800900C4BC3F80080B2
:10510000E36ADFF82C809AE7E820012038200020AD
:1051100050200020F4200120F820012074210120DB
:10512000A8210120942101204020002048200020B7
:105130008821012024210120382101202DE9F84374
:105140004FF4007000F0C0FE00285FD005466820D4
:1051500000F0BAFE044600285CD00021682200F06E
:10516000A5FF504A271D05F5FE7362633846256387
:1051700023F00705FFF7A4FA04F11800FFF7A0FADF
:10518000052300224849A361284624616462FFF791
:1051900015F8464B20601C60FFF72CF8444ADFF8F6
:1051A0004881136801331360D8F80030002B40D0D9
:1051B000404EE36A3268002A33D03F4D3F494048B1
:1051C0000A6801320A6002689A4238BF036003EB42
:1051D000830305EB83014A689B009068A260E0604E
:1051E00047609760EA5861610132EA50FFF70EF8B4
:1051F00033683BB1D8F80020E36AD26A9A4201D200
:10520000FEF7ECFF00F0E0FD01281BD02D4B1B68E2
:10521000BDE8F883284600F0F7FE2A4B1B68BDE87E
:10522000F883D8F80020D26A9A4298BFC8F80040A4
:10523000C3E7C8F800401368012B0FD0E36A1E4D86
:105240001C4EBBE772B64FF0FF3400221E491F4BC5
:105250000C6030601A60FFF71FF8D7E7164D2E4636
:1052600005F1640930461436FFF71EFA4E45F9D1B0
:10527000DFF87890164E4846FFF716FA3046FFF7EB
:1052800013FA1448FFF710FA1348FFF70DFA134802
:10529000FFF70AFA124BC3F80090124B1E60E36A44
:1052A000044E8BE749444C45354D001054210120F4
:1052B000E82001208821012050200020F420012036
:1052C000F8200120F867001060210120BC21012096
:1052D0003821012074210120A821012094210120DE
:1052E00040200020482000203820002024210120D8
:1052F000024A136801331360704700BFF020012099
:105300002DE9F04FDFF8648183B0FEF773FFD8F822
:105310000030013BC8F80030D8F800E0BEF1000FC3
:105320007FD14C4B1B68002B7BD0DFF844C1DCF8ED
:105330000030002B00F08A80474BDFF83891474E51
:10534000DFF834A10193DCF80C30DB689A6AD3E90A
:10535000070154688160486003F11800844208BF67
:1053600051601168C3F828E0013911605A69D3E926
:1053700002018160486050681D1DA84208BF51604D
:10538000116801391160DA6AD9F8000002EB820174
:10539000824206EB81077C6888BFC9F8002056F876
:1053A0002100D4F808B001309C60C3F80CB0CBF8F1
:1053B0000450A5605F6146F82100DAF80030DB6A2E
:1053C0009A4235D30122019B1A60DCF80030002B91
:1053D000B9D1234B1A681268002A32D01A68214BBF
:1053E000D26812681A60204D2C689CB10126019F7A
:1053F00005E0FFF7CDFC00B13E60013C09D0D8F8D4
:105400000030002BF5D02B68013C03F101032B6029
:10541000F5D12C60019B1B681BB1FEF7DFFE012458
:1054200000E00024FEF7F2FE204603B0BDE8F08F56
:10543000DCF80030002B86D1094B1A681268002A6C
:10544000CCD14FF0FF32074B1A60CCE7024B0193EF
:10545000C9E700BFE8200120C8210120502000201A
:10546000402000206021012070210120F020012037
:1054700074210120F82001203820002008B9FEF70F
:10548000ADBE174A70B51368044601331360154B5F
:10549000154D1E6828680430FFF72EF92B68A419F3
:1054A0005C600ED2114B186829680431FFF70CF9C3
:1054B0000F4B1A68944238BF1C60FFF721FF50B1B0
:1054C00070BD0C4B186829680431FFF7FDF8FFF731
:1054D00017FF0028F4D1BDE87040FEF77FBE00BF83
:1054E000F0200120BC210120382000204020002095
:1054F0006021012048200020014B1868704700BF40
:10550000BC210120014B1868704700BFE820012032
:10551000054B1B680BB9FFF73BBC044A002013681E
:1055200001331360704700BFF0200120702101207B
:105530002E4B1B681BB101222D4B1A6070472C4A61
:105540002C4830B5136002682B4B02EB82018900B6
:105550005C58910084BB02F1FF3C0CEB8C0E4FEACF
:105560008E0E53F80E404FEA8C01002C39D1A2F177
:10557000020C0CEB8C0E4FEA8E0E53F80E404FEAE5
:105580008C0174BBA2F1030C0CEB8C0E4FEA8E0E57
:1055900053F80E404FEA8C011CBB141F04EB840C23
:1055A0004FEA8C0C53F80C50A100E5B9053A02EB18
:1055B0008201890059589100114403EB810C634624
:1055C000DCF80410083349689942CCF8041008BF8D
:1055D00049680A4B08BFCCF80410C968196002601A
:1055E00030BD6246E8E72246E6E700BFF020012032
:1055F000C8210120F8200120502000203820002060
:1056000070B50C461B4D29681831FFF75DF81A4B31
:105610001E6828680430FFF76FF8631C17D02B68EA
:10562000A4195C6007D3154B18682968BDE8704061
:105630000431FFF749B8124B186829680431FFF7A5
:1056400043F8104B1A68944238BF1C6070BD0E4B73
:1056500029685A682E688A60286829682D681C683D
:10566000043001341C6094680431F460606091601F
:105670006B6170BD38200020BC2101204820002033
:105680004020002060210120942101202DE9F041DB
:10569000284C41F0004125682368A96115464268FD
:1056A000D4F80080DA6127682668D4F800E003683F
:1056B00091680133DFF890C018361837C8F8201009
:1056C0004F609660CEF828000360DCF80060206828
:1056D0000430FFF711F86B1C18D02368AD195D601A
:1056E0000CD2154B186821680431FEF7EDFF134BFF
:1056F0001A68954238BF1D60BDE8F081104B1868EC
:105700002168BDE8F0410431FEF7DEBF0D4B216892
:105710005A6826688A602068216825681C680430F9
:1057200001341C6094680431F460606091606B61C6
:10573000BDE8F081382000204020002060210120B9
:105740004820002094210120BC21012094462DE90D
:10575000F041294C0D4623684168D4F80080D96196
:1057600027682668D4F800E003688A680133183790
:105770001836C8F8202057608E60CEF828000360E5
:105780001E4BBCF1000F18D01B6820680430FEF7D8
:10579000B3FF1B4B22685968886891602268D0600B
:1057A000226804324260206824681A68043001329A
:1057B00088601A606361BDE8F0811E68206804306B
:1057C000FEF79AFF2368AD195D6007D30D4B18688B
:1057D0002168BDE8F0410431FEF776BF0A4B186836
:1057E00021680431FEF770FF084B1A68954238BFF4
:1057F0001D60BDE8F08100BF38200020BC210120E1
:105800009421012048200020402000206021012018
:10581000F0B40026C3682C4DDB689A6AD3E907010F
:1058200081604860506803F11804A04208BF5160CD
:105830001168D86A01399E6211602A68002A2FD146
:10584000D3E902415A69A1604C6054681E1DB442FC
:1058500008BF51601168013911601C4A116881420A
:105860001B4938BF106000EB800201EB82077D68A6
:1058700092008C58D5F808C09D60C3F80CC0013464
:10588000CCF80460AE605F61124B8C501B68DB6A21
:10589000834215D2F0BC01230F4A184613607047AB
:1058A0000E4A15685168013515608D68D9611D6211
:1058B0006C608C609A62074B1B68DB6A8342E9D399
:1058C000F0BC0020704700BFF0200120F82001202C
:1058D0005020002038200020C82101207421012000
:1058E000F0B4D0E901540027026941F000410160A1
:1058F0005168C36881421168AC60656001F1FF3195
:1059000008BF5460D3E90254076111605A691E1D33
:1059100051681648B1421168AC6001F1FF31656011
:10592000116008BF5460D96A0268914288BF016063
:105930000F4801EB810200EB82077D6892008458DA
:10594000D5F808C09D60C3F80CC00134CCF80460E1
:10595000AE605F61074B84501B68DB6A994202D9D5
:105960000122054B1A60F0BC704700BFF8200120EF
:105970005020002038200020C8210120034A044B79
:1059800012681B68C0E90023704700BF6421012032
:10599000BC210120F8B50D460446FEF72BFC2B6810
:1059A000124A581C11681BD0D4E90060DFF840C0CF
:1059B000DCF80070BE4208D0884206D800230124DB
:1059C0002B60FEF723FC2046F8BD0F1ABB42F5D929
:1059D0005B1ADCF80010126803442B60C4E9001263
:1059E0000024FEF713FC2046F8BD00BFBC210120B7
:1059F000642101200122014B1A607047C821012057
:105A0000014B1868704700BF3820002058B1F8B526
:105A1000C16A836C426C013B91420446836400D0AE
:105A20001BB10020F8BD00207047061D3046FEF770
:105A300063FE636C0E4AC3F10500A061012011688A
:105A4000E3628B4288BF13600A4A03EB83034FEA89
:105A5000830C02EB83035D6852F80C10AF680144BD
:105A6000A560E7607E60AE60636142F80C10F8BD2F
:105A7000F820012050200020044A116813681268A1
:105A8000DB6A8869C3F10503936170473820002001
:105A90002DE9F04FDFF8CC82DFF8CCA2DFF8CC9212
:105AA000AF4E87B0D8F800301C68002C00F00D8194
:105AB000DB681C68FFF71CFCFFF71EFDDAF80030FE
:105AC0008346984240D38442CAF8000040F23181B4
:105AD00000223068A4EB0B01FFF7C8F8FFF710FCB9
